:020000040000FA
:040000000EEF00F00F
:0400080042EF00F0D3
:080018004BEF00F0F18CF18ABE
:10002000F292F090F288F086F28EF28CD08EF09CF4
:1000300093809382830ED56E8C6AF00E956E060EB9
:10004000026E010E006E00C08CFF37EC00F083B82A
:1000500030EF00F002500060006A002A23EF00F049
:10006000002E23EF00F002C000F023EF00F0CF0ECF
:10007000D76E2D0ED66EF2A43BEF00F0F294000086
:1000800000001200F2B245EF00F0F292006A002A7E
:1000900000C08CFF1000F0B04EEF00F0190E016EA2
:0E00A00037EC00F0012E50EF00F0F090100051
:020000040030CA
:0100000000FF
:010001000CF2
:010002001FDE
:010003001EDE
:010005008179
:010006008178
:010008000FE8
:01000900C036
:01000A000FE6
:01000B00E014
:01000C000FE4
:01000D0040B2
:00000001FF
