:020000040000FA
:0400000007EF00F016
:100008004D82F5ED08F012EF19F000016351800BF5
:100018006C6F635163256E6F62AF15EF00F017EFD9
:1000280000F018EF00F06E816E51D8B41EEF00F0AA
:1000380020EF00F035EF00F06E29D8A426EF00F08D
:1000480028EF00F030EF00F0000E606F000E616FD7
:10005800000E626F000E636F628F000E636F3DEFDC
:1000680000F0000E606F000E616F000E626F000EF0
:10007800636F6751800B6D6F6C516D19D8B447EF82
:1000880000F049EF00F04AEF00F06C8D67516725EA
:100098006D6F66AF52EF00F054EF00F055EF00F0CF
:1000A8006D816D51D8B45BEF00F05DEF00F072EF39
:1000B80000F06D29D8A463EF00F065EF00F06DEF54
:1000C80000F0000E646F000E656F000E666F000E84
:1000D800676F668F000E676F7AEF00F0000E646F2F
:1000E800000E656F000E666F000E676F6E516D5DD6
:1000F800D8B081EF00F083EF00F0AAEF00F06CAD0C
:1001080088EF00F08AEF00F08CEF00F0800E6C1B97
:100118006EC06FF06DC06EF06FC06DF060C06FF0B4
:1001280064C060F06FC064F061C06FF065C061F0DA
:100138006FC065F062C06FF066C062F06FC066F0B5
:1001480063C06FF067C063F06FC067F0000E6F6F39
:100158006E516DC068F0696B685F000E695B69BFBE
:10016800BFEF00F0695109E11A0E685DD8A0BFEF32
:1001780000F0C1EF00F0F8EF00F06051611162117A
:100188006311D8A4CAEF00F0CDEF00F0010ECEEF56
:1001980000F0000E6F6F000E606F000E616F000EB2
:1001A800626F000E636F6DC06EF001EF01F06FA11A
:1001B800E0EF00F0E2EF00F0E8EF00F0D8906F31E8
:1001C80001096F6FEAEF00F0D8906F3360A1EFEF8D
:1001D80000F0F1EF00F0F2EF00F06F8F633563335A
:1001E8006233613360336E2B6D516E5DD8A0FFEFC3
:1001F80000F001EF01F0DBEF00F06CBD06EF01F05D
:1002080008EF01F048EF01F06E51D8A40EEF01F0AD
:1002180010EF01F01AEF01F0000E606F000E616F31
:10022800000E626F000E636F69EF02F06451602781
:1002380065516123665162236751632363A127EFE8
:1002480001F029EF01F0D5EF01F06FA12EEF01F0D9
:1002580030EF01F036EF01F0D8906F3101096F6F80
:1002680038EF01F0D8906F3360A13DEF01F03FEF18
:1002780001F040EF01F06F8F633563336233613310
:1002880060336E2BD5EF01F06451605D65516159A3
:10029800665162596351800A686F6751800A6859CC
:1002A800D8B059EF01F05BEF01F086EF01F0605133
:1002B800645D686F61516559696F625166596A6F0B
:1002C800635167596B6FFF0E6825606FFF0E6921D8
:1002D800616FFF0E6A21626FFF0E6B21636F800EE4
:1002E8006C1B6F6D6F51D8A47CEF01F07EEF01F0AD
:1002F8008EEF01F0010E6027000E61236223632355
:100308008EEF01F06451605F6551615B6651625B1D
:100318006751635B6051611162116311D8A497EF53
:1003280001F099EF01F0CEEF01F06F51D8A49FEFE3
:1003380001F0A1EF01F0CEEF01F0000E606F000EAA
:10034800616F000E626F000E636F69EF02F0D89064
:1003580060376137623763376FAFB5EF01F0B7EFDA
:1003680001F0B8EF01F060816FA1BDEF01F0BFEFC0
:1003780001F0C3EF01F0D8806F37C5EF01F0D890D6
:100388006F376E51D8B4CBEF01F0CDEF01F0CEEF5F
:1003980001F06E0762AFD3EF01F0D5EF01F0ABEFDC
:1003A80001F0000E6D6F6FAFDCEF01F0DEEF01F0D2
:1003B800F6EF01F06FC068F07F0E6817D8B4E7EF6A
:1003C80001F0E9EF01F0EDEF01F0010E6D6FF6EFCE
:1003D80001F060A1F2EF01F0F4EF01F0F6EF01F0A7
:1003E800E9EF01F06D51D8B4FCEF01F0FEEF01F038
:1003F80029EF02F0010E6027000E612362236323B8
:1004080063A109EF02F00BEF02F029EF02F060C0E0
:1004180068F061C069F062C06AF063C06BF06B3568
:100428006B336A336933683368C060F069C061F060
:100438006AC062F06BC063F06E29D8B426EF02F090
:1004480028EF02F029EF02F06E2B6E29D8B42FEFB7
:1004580002F031EF02F039EF02F06E51D8A437EF15
:1004680002F039EF02F04BEF02F0000E606F000E61
:10047800616F000E626F000E636F6E51D8A447EF74
:1004880002F049EF02F04BEF02F0000E6C6F6EA124
:1004980050EF02F052EF02F055EF02F0628F56EF84
:1004A80002F0629FD8906E31636F6CAF5EEF02F01E
:1004B80060EF02F061EF02F0638F60C060F061C02E
:1004C80061F062C062F063C063F012000450800BF8
:1004D8000D6E045004240F6E03AE75EF02F077EF33
:1004E80002F078EF02F00F800F50D8B47EEF02F0E0
:1004F80080EF02F095EF02F00F28D8A486EF02F003
:1005080088EF02F090EF02F0000E016E000E026E0E
:10051800000E036E000E046E038E000E046E9DEF37
:1005280002F0000E016E000E026E000E036E000E49
:10053800046E0850800B0E6E0D500E18D8B4A7EF3D
:1005480002F0A9EF02F0AAEF02F00D8C085008247F
:100558000E6E07AEB2EF02F0B4EF02F0B5EF02F0A4
:100568000E800E50D8B4BBEF02F0BDEF02F0D2EF10
:1005780002F00E28D8A4C3EF02F0C5EF02F0CDEFC9
:1005880002F0000E056E000E066E000E076E000EDD
:10059800086E078E000E086EDAEF02F0000E056E88
:1005A800000E066E000E076E000E086E0F500E5CF1
:1005B800D8B0E1EF02F0E3EF02F00AEF03F00DAC80
:1005C800E8EF02F0EAEF02F0ECEF02F0800E0D1A0D
:1005D8000FC010F00EC00FF010C00EF001C010F0E8
:1005E80005C001F010C005F002C010F006C002F00E
:1005F80010C006F003C010F007C003F010C007F0E9
:1006080004C010F008C004F010C008F0000E106E0E
:100618000F500EC009F00A6A095E000E0A5A0ABE97
:100628001FEF03F00A5009E11A0E095CD8A01FEF6A
:1006380003F021EF03F058EF03F00150021003100C
:100648000410D8A42AEF03F02DEF03F0010E2EEFCB
:1006580003F0000E106E000E016E000E026E000E0A
:10066800036E000E046E0EC00FF061EF03F010A0D1
:1006780040EF03F042EF03F048EF03F0D89010305A
:100688000109106E4AEF03F0D890103201A04FEF25
:1006980003F051EF03F052EF03F0108E04340432EC
:1006A8000332023201320F2A0E500F5CD8A05FEFDE
:1006B80003F061EF03F03BEF03F00DBC66EF03F0CE
:1006C80068EF03F0A8EF03F00F50D8A46EEF03F023
:1006D80070EF03F07AEF03F0000E016E000E026E69
:1006E800000E036E000E046EC9EF04F005500126DB
:1006F80006500222075003220850042204A087EF64
:1007080003F089EF03F035EF04F010A08EEF03F04B
:1007180090EF03F096EF03F0D89010300109106EB7
:1007280098EF03F0D890103201A09DEF03F09FEFEF
:1007380003F0A0EF03F0108E0434043203320232C7
:1007480001320F2A35EF04F00550015C06500258BB
:10075800075003580450800A096E0850800A095847
:10076800D8B0B9EF03F0BBEF03F0E6EF03F00150A8
:10077800055C096E025006580A6E035007580B6E46
:10078800045008580C6EFF0E0924016EFF0E0A2053
:10079800026EFF0E0B20036EFF0E0C20046E800EFF
:1007A8000D1A106C1050D8A4DCEF03F0DEEF03F044
:1007B800EEEF03F0010E0126000E022203220422AE
:1007C800EEEF03F00550015E0650025A0750035A37
:1007D8000850045A0150021003100410D8A4F7EF6F
:1007E80003F0F9EF03F02EEF04F01050D8A4FFEF58
:1007F80003F001EF04F02EEF04F0000E016E000E7E
:10080800026E000E036E000E046EC9EF04F0D8905D
:10081800013602360336043610AE15EF04F017EF32
:1008280004F018EF04F0018010A01DEF04F01FEF92
:1008380004F023EF04F0D880103625EF04F0D890A8
:1008480010360F50D8B42BEF04F02DEF04F02EEF34
:1008580004F00F0603AE33EF04F035EF04F00BEFAE
:1008680004F0000E0E6E10AE3CEF04F03EEF04F004
:1008780056EF04F010C009F07F0E0916D8B447EF00
:1008880004F049EF04F04DEF04F0010E0E6E56EF40
:1008980004F001A052EF04F054EF04F056EF04F016
:1008A80049EF04F00E50D8B45CEF04F05EEF04F0AA
:1008B80089EF04F0010E0126000E02220322042211
:1008C80004A069EF04F06BEF04F089EF04F001C0B5
:1008D80009F002C00AF003C00BF004C00CF00C349D
:1008E8000C320B320A32093209C001F00AC002F098
:1008F8000BC003F00CC004F00F28D8B486EF04F046
:1009080088EF04F089EF04F00F2A0F28D8B48FEF8E
:1009180004F091EF04F099EF04F00F50D8A497EF8A
:1009280004F099EF04F0ABEF04F0000E016E000E36
:10093800026E000E036E000E046E0F50D8A4A7EFCF
:1009480004F0A9EF04F0ABEF04F0000E0D6E0FA059
:10095800B0EF04F0B2EF04F0B5EF04F0038EB6EF99
:1009680004F0039ED8900F30046E0DAEBEEF04F075
:10097800C0EF04F0C1EF04F0048E01C001F002C022
:1009880002F003C003F004C004F01200000171512A
:10099800800B7A6F71517125806F70AFD6EF04F0BC
:1009A800D8EF04F0D9EF04F080818051D8B4DFEF9C
:1009B80004F0E1EF04F0F4EF04F08029D8A4E7EFA5
:1009C80004F0E9EF04F0F1EF04F0000E6E6F000E92
:1009D8006F6F000E706F000E716F708FFCEF04F078
:1009E800000E6E6F000E6F6F000E706F000E716F4D
:1009F8007551800B7A1B755175257F6F74AF07EFA2
:100A080005F009EF05F00AEF05F07F817F51D8B4B2
:100A180010EF05F012EF05F025EF05F07F29D8A4B7
:100A280018EF05F01AEF05F022EF05F0000E726FCF
:100A3800000E736F000E746F000E756F748F2DEFBC
:100A480005F0000E726F000E736F000E746F000ECB
:100A5800756F7F51D8B433EF05F035EF05F03DEFF2
:100A680005F08051D8A43BEF05F03DEF05F047EFC6
:100A780005F0000E6E6F000E6F6F000E706F000EA7
:100A8800716FDFEF06F074516E03F3CF85F0F4CF8A
:100A980086F085517B6F7C6B7D6B7E6B8651816F99
:100AA800826B836B846B73516F03F3CF85F0F4CF44
:100AB80086F085517B27000E7C237D237E2386517B
:100AC8008127000E82238323842372517003F3CF7E
:100AD80085F0F4CF86F085517B27000E7C237D239B
:100AE8007E2386518127000E8223832384237DC0A1
:100AF8007EF07CC07DF07BC07CF07B6B72516F0315
:100B0800F3CF85F0F4CF86F085517B2786517C237F
:100B1800000E7D23000E7E2373516E03F3CF85F004
:100B2800F4CF86F085517B2786517C23000E7D23E8
:100B3800000E7E237DC07EF07CC07DF07BC07CF003
:100B48007B6B72516E03F3CF85F0F4CF86F085513D
:100B58007B2786517C23000E7D23000E7E23745153
:100B68006F03F3CF85F0F4CF86F085518127865146
:100B78008223000E8323000E842373517003F3CF66
:100B880085F0F4CF86F08551812786518223000EA7
:100B98008323000E842374517003F3CF85F0F4CFC0
:100BA80086F08551766F8651776F786B796B78C050
:100BB80079F077C078F076C077F0766B7651812738
:100BC8007751822378518323795184237BC076F02F
:100BD8007CC077F07DC078F07EC079F0190EFAEF0E
:100BE80005F0D8907933783377337633E82EF5EFFC
:100BF80005F07651812777518223785183237951E3
:100C080084237DC07EF07CC07DF07BC07CF07B6B54
:100C18007F5180C076F0776B7627000E7723820E9F
:100C28007625856FFF0E7721866F30EF06F0D89016
:100C380081378237833784377EAF25EF06F027EF79
:100C480006F028EF06F08181D8907B377C377D3716
:100C58007E378507D8A0860783AF35EF06F037EFD4
:100C680006F01BEF06F0000E7F6F7EAF3EEF06F03A
:100C780040EF06F064EF06F0FF0E7B15766FFF0E6F
:100C88007C15776FFF0E7D15786F7F0E7E15796F57
:100C98007651771178117911D8B455EF06F057EFDE
:100CA80006F05BEF06F0010E7F6F64EF06F081A19E
:100CB80060EF06F062EF06F064EF06F057EF06F01B
:100CC8007F51D8B46AEF06F06CEF06F090EF06F0AB
:100CD800010E8127000E82238323842384A177EFCA
:100CE80006F079EF06F090EF06F081C076F082C04A
:100CF80077F083C078F084C079F079357933783328
:100D08007733763376C081F077C082F078C083F08D
:100D180079C084F0854B862B86BF9BEF06F0865101
:100D280008E18529D8A09BEF06F09DEF06F0A7EF14
:100D380006F0000E816F000E826F800E836F7F0EAB
:100D4800846FD5EF06F086BFB4EF06F0865106E152
:100D58008505D8B0B2EF06F0B4EF06F0C0EF06F0A4
:100D6800000E816F000E826F000E836F000E846F7D
:100D7800000E7A6FD5EF06F085C080F0FF0E811760
:100D8800FF0E82177F0E8317000E841780A1CFEF06
:100D980006F0D1EF06F0D2EF06F0838FD8908031BD
:100DA800846F7A51841381C06EF082C06FF083C063
:100DB80070F084C071F012001250800B1B6E12503C
:100DC8001224216E11AEEBEF06F0EDEF06F0EEEF18
:100DD80006F021802150D8B4F4EF06F0F6EF06F0C3
:100DE80009EF07F02128D8A4FCEF06F0FEEF06F083
:100DF80006EF07F0000E0F6E000E106E000E116E5B
:100E0800000E126E118E11EF07F0000E0F6E000E1D
:100E1800106E000E116E000E126E1650800B1B1A0B
:100E280016501624206E15AE1CEF07F01EEF07F0C3
:100E38001FEF07F020802050D8B425EF07F027EFE8
:100E480007F03AEF07F02028D8A42DEF07F02FEF8E
:100E580007F037EF07F0000E136E000E146E000E49
:100E6800156E000E166E158E42EF07F0000E136E0B
:100E7800000E146E000E156E000E166E2050D8B4BB
:100E880048EF07F04AEF07F052EF07F02150D8A4D7
:100E980050EF07F052EF07F05CEF07F0000E0F6E0F
:100EA800000E106E000E116E000E126EF4EF08F0B8
:100EB80015500F02F3CF26F0F4CF27F026501C6E02
:100EC8001D6A1E6A1F6A2750226E236A246A256AD1
:100ED80014501002F3CF26F0F4CF27F026501C262A
:100EE800000E1D221E221F2227502226000E23221A
:100EF8002422252213501102F3CF26F0F4CF27F035
:100F080026501C26000E1D221E221F222750222694
:100F1800000E2322242225221EC01FF01DC01EF011
:100F28001CC01DF01C6A13501002F3CF26F0F4CF3A
:100F380027F026501C2627501D22000E1E22000EC8
:100F48001F2214500F02F3CF26F0F4CF27F02650BB
:100F58001C2627501D22000E1E22000E1F221EC016
:100F68001FF01DC01EF01CC01DF01C6A13500F029C
:100F7800F3CF26F0F4CF27F026501C2627501D2249
:100F8800000E1E22000E1F2215501002F3CF26F06D
:100F9800F4CF27F02650222627502322000E2422A1
:100FA800000E252214501102F3CF26F0F4CF27F0BB
:100FB8002650222627502322000E2422000E252206
:100FC80015501102F3CF26F0F4CF27F02650176EF4
:100FD8002750186E196A1A6A19C01AF018C019F041
:100FE80017C018F0176A17502226185023221950D4
:100FF80024221A5025221CC017F01DC018F01EC04C
:1010080019F01FC01AF0190E0FEF08F0D8901A3215
:10101800193218321732E82E0AEF08F01750222634
:1010280018502322195024221A5025221EC01FF0BE
:101038001DC01EF01CC01DF01C6A205021C017F0F6
:10104800186A1726000E1822820E1724266EFF0E25
:101058001820276E45EF08F0D8902236233624361C
:1010680025361FAE3AEF08F03CEF08F03DEF08F0E8
:101078002280D8901C361D361E361F362606D8A06C
:10108800270624AE4AEF08F04CEF08F030EF08F0DE
:10109800000E206E1FAE53EF08F055EF08F079EF01
:1010A80008F0FF0E1C14176EFF0E1D14186EFF0EAD
:1010B8001E14196E7F0E1F141A6E1750181019106F
:1010C8001A10D8B46AEF08F06CEF08F070EF08F067
:1010D800010E206E79EF08F022A075EF08F077EF87
:1010E80008F079EF08F06CEF08F02050D8B47FEFE3
:1010F80008F081EF08F0A5EF08F0010E2226000E97
:1011080023222422252225A08CEF08F08EEF08F058
:10111800A5EF08F022C017F023C018F024C019F07A
:1011280025C01AF01A341A3219321832173217C079
:1011380022F018C023F019C024F01AC025F0264A5E
:10114800272A27BEB0EF08F0275008E12628D8A0A4
:10115800B0EF08F0B2EF08F0BCEF08F0000E226E16
:10116800000E236E800E246E7F0E256EEAEF08F0C7
:1011780027BEC9EF08F0275006E12604D8B0C7EF0C
:1011880008F0C9EF08F0D5EF08F0000E226E000E47
:10119800236E000E246E000E256E000E1B6EEAEF05
:1011A80008F026C021F0FF0E2216FF0E23167F0E30
:1011B8002416000E251621A0E4EF08F0E6EF08F04B
:1011C800E7EF08F0248ED8902130256E1B502512A9
:1011D80022C00FF023C010F024C011F025C012F077
:1011E80012000600F3CF49F0F4CF4AF09EAAFFEFB1
:1011F80008F001EF09F0C3EF0AF0AECF4BF08CB660
:1012080008EF09F00AEF09F0C2EF0AF0410E4B1897
:10121800D8B411EF09F013EF09F01CEF09F0610ED3
:101228004B18D8A41AEF09F01CEF09F021EF09F0C8
:10123800000E0001B76F000EB66F420E4B18D8B4FF
:1012480028EF09F02AEF09F033EF09F0620E4B1886
:10125800D8A431EF09F033EF09F038EF09F0000EA8
:101268000001B76F190EB66F430E4B18D8B43FEF95
:1012780009F041EF09F04AEF09F0630E4B18D8A4C2
:1012880048EF09F04AEF09F04FEF09F0000E0001AE
:10129800B76F320EB66F440E4B18D8B456EF09F03C
:1012A80058EF09F061EF09F0640E4B18D8A45FEF0E
:1012B80009F061EF09F066EF09F0000E0001B76F61
:1012C8004B0EB66F450E4B18D8B46DEF09F06FEFA3
:1012D80009F078EF09F0650E4B18D8A476EF09F0FD
:1012E80078EF09F07DEF09F0000E0001B76F640E8A
:1012F800B66F460E4B18D8B484EF09F086EF09F0A4
:101308008FEF09F0660E4B18D8A48DEF09F08FEF18
:1013180009F094EF09F0000E0001B76F7D0EB66F6B
:10132800470E4B18D8B49BEF09F09DEF09F0A6EFD4
:1013380009F0670E4B18D8A4A4EF09F0A6EF09F03E
:10134800ABEF09F0000E0001B76F960EB66F480EAE
:101358004B18D8B4B2EF09F0B4EF09F0BDEF09F0BB
:10136800680E4B18D8A4BBEF09F0BDEF09F0C2EF27
:1013780009F0000E0001B76FAF0EB66F490E4B189B
:10138800D8B4C9EF09F0CBEF09F0D4EF09F0690E32
:101398004B18D8A4D2EF09F0D4EF09F0D9EF09F02F
:1013A800000E0001B76FC80EB66F4A0E4B18D8B4BE
:1013B800E0EF09F0E2EF09F0EBEF09F06A0E4B18E5
:1013C800D8A4E9EF09F0EBEF09F0F0EF09F0000E0F
:1013D8000001B76FE10EB66F4B0E4B18D8B4F7EF9C
:1013E80009F0F9EF09F002EF0AF06B0E4B18D8A4D8
:1013F80000EF0AF002EF0AF007EF0AF0000E000112
:10140800B76FFA0EB66F4C0E4B18D8B40EEF0AF041
:1014180010EF0AF019EF0AF06C0E4B18D8A417EF6A
:101428000AF019EF0AF01EEF0AF0000E0001B56F7E
:10143800010EB46F4D0E4B18D8B425EF0AF027EF04
:101448000AF030EF0AF06D0E4B18D8A42EEF0AF010
:1014580030EF0AF038EF0AF0D8900001B731476E44
:10146800B631B66F47C0B7F04E0E4B18D8B43FEF41
:101478000AF041EF0AF04AEF0AF06E0E4B18D8A4B2
:1014880048EF0AF04AEF0AF050EF0AF0D89000014E
:10149800B635B66FB735B76F570E4B18D8B457EF88
:1014A8000AF059EF0AF062EF0AF0770E4B18D8A449
:1014B80060EF0AF062EF0AF067EF0AF0000E000131
:1014C800B56F020EB46F580E4B18D8B46EEF0AF011
:1014D80070EF0AF079EF0AF0780E4B18D8A477EF7E
:1014E8000AF079EF0AF07EEF0AF0000E0001B56FFE
:1014F800030EB46F590E4B18D8B485EF0AF087EF76
:101508000AF090EF0AF0790E4B18D8A48EEF0AF083
:1015180090EF0AF095EF0AF0000E0001B96F040E83
:10152800B86F5A0E4B18D8B49CEF0AF09EEF0AF029
:10153800A7EF0AF07A0E4B18D8A4A5EF0AF0A7EF88
:101548000AF0ACEF0AF0000E0001B96F0A0EB86F8E
:101558000001B451B511D8A4B4EF0AF0B6EF0AF0FF
:10156800BAEF0AF0000EB56F040EB46F4B507CEC66
:1015780019F00001B451300F7CEC19F09E9AF2A2D8
:10158800C8EF0AF0CAEF0AF0EBEF0AF08CA6CFEF2B
:101598000AF0D2EF0AF08C86D3EF0AF08C96500E40
:1015A8007CEC19F0300E9DBA010F7CEC19F0000E9E
:1015B800426E000E416EB8C043F0B9C044F0B0ECC2
:1015C80011F0000E0001B56F000EB46FF292F2A494
:1015D800F0EF0AF0F2EF0AF000EF0BF08CA4F7EF4F
:1015E8000AF0FAEF0AF08C84FBEF0AF08C940B0EE9
:1015F800D76EDC0ED66EF2944AC0F4FF49C0F3FFF2
:101608004D92110000018A51800B976F8A518A25EB
:101618009E6F89AF12EF0BF014EF0BF015EF0BF084
:101628009E819E51D8B41BEF0BF01DEF0BF032EFEB
:101638000BF09E29D8A423EF0BF025EF0BF02DEF2C
:101648000BF0000E876F000E886F000E896F000E7A
:101658008A6F898F000E8A6F3AEF0BF0000E876F42
:10166800000E886F000E896F000E8A6F8E51800BF6
:10167800971B8E518E259F6F8DAF45EF0BF047EF6F
:101688000BF048EF0BF09F819F51D8B44EEF0BF051
:1016980050EF0BF065EF0BF09F29D8A456EF0BF035
:1016A80058EF0BF060EF0BF0000E8B6F000E8C6F95
:1016B800000E8D6F000E8E6F8D8F000E8E6F6DEF8A
:1016C8000BF0000E8B6F000E8C6F000E8D6F000EEE
:1016D8008E6F8B518C118D118E11D8A476EF0BF073
:1016E80078EF0BF090EF0BF0000E876F000E886F0D
:1016F800000E896F000E8A6F800E89137F0E8A1381
:1017080097518A1387C087F088C088F089C089F00C
:101718008AC08AF0D3EF0CF09E51D8A496EF0BF054
:1017280098EF0BF0A2EF0BF0000E876F000E886F9A
:10173800000E896F000E8A6FD3EF0CF09F519EC088
:101748008FF0906B8F5F000E905B7F0E8F25986FE8
:10175800000E9021996F87C093F088C094F089C0DB
:1017680095F08AC096F0000E876F000E886F000E05
:10177800896F000E8A6F000E9A6F000E9B6F000E25
:101788009C6F000E9D6F000E9F6F03EF0CF09F5132
:10179800D8B4D1EF0BF0D3EF0BF0EAEF0BF0D89001
:1017A8009337943795379637D8908737883789375E
:1017B8008A379DAFE2EF0BF0E4EF0BF0E5EF0BF0AB
:1017C8008781D8909A379B379C379D378B51935D8B
:1017D8008C5194598D5195598E519659D8A0F7EF3F
:1017E8000BF0F9EF0BF002EF0CF09D8D8B51935F2E
:1017F8008C51945B8D51955B8E51965B9F2B190E86
:101808009F6509EF0CF00BEF0CF0CBEF0BF0935149
:10181800941195119611D8B414EF0CF016EF0CF042
:101828002EEF0CF09A812EEF0CF0D890873788377E
:1018380089378A379DAF23EF0CF025EF0CF026EFA0
:101848000CF08781D8909A379B379C379D3798073B
:10185800D8A0990789AF33EF0CF035EF0CF019EFEA
:101868000CF0000E9F6F9DAF3CEF0CF03EEF0CF0BC
:1018780062EF0CF0FF0E9A158F6FFF0E9B15906F9D
:10188800FF0E9C15916F7F0E9D15926F8F519011D1
:1018980091119211D8B453EF0CF055EF0CF059EFA9
:1018A8000CF0010E9F6F62EF0CF087A15EEF0CF059
:1018B80060EF0CF062EF0CF055EF0CF09F51D8B4CC
:1018C80068EF0CF06AEF0CF08EEF0CF0010E872732
:1018D800000E882389238A238AA175EF0CF077EFFD
:1018E8000CF08EEF0CF087C08FF088C090F089C0A4
:1018F80091F08AC092F092359233913390338F33BE
:101908008FC087F090C088F091C089F092C08AF0AB
:10191800984B992B99BF99EF0CF0995108E19829A8
:10192800D8A099EF0CF09BEF0CF0A6EF0CF0000E8E
:10193800996F9869000E876F000E886F000E896F87
:10194800000E8A6F99BFB3EF0CF0995106E1980524
:10195800D8B0B1EF0CF0B3EF0CF0C1EF0CF0000E03
:10196800996F000E986F000E876F000E886F000E3B
:10197800896F000E8A6F000E976F98C09EF09EA127
:10198800C8EF0CF0CAEF0CF0CDEF0CF0898FCEEF5A
:101998000CF0899FD8909E318A6F84EF0BF012006B
:1019A8002B50800B386E2B502B243F6E2AAEDFEF66
:1019B8000CF0E1EF0CF0E2EF0CF03F803F50D8B4B0
:1019C800E8EF0CF0EAEF0CF0FFEF0CF03F28D8A49A
:1019D800F0EF0CF0F2EF0CF0FAEF0CF0000E286EBE
:1019E800000E296E000E2A6E000E2B6E2A8E000E37
:1019F8002B6E07EF0DF0000E286E000E296E000EFC
:101A08002A6E000E2B6E2F50800B381A2F502F2461
:101A1800406E2EAE12EF0DF014EF0DF015EF0DF035
:101A280040804050D8B41BEF0DF01DEF0DF032EFA1
:101A38000DF04028D8A423EF0DF025EF0DF02DEF81
:101A48000DF0000E2C6E000E2D6E000E2E6E000E88
:101A58002F6E2E8E000E2F6E3AEF0DF0000E2C6EAC
:101A6800000E2D6E000E2E6E000E2F6E2C502D10B7
:101A78002E102F10D8A443EF0DF045EF0DF05DEFB9
:101A88000DF0000E286E000E296E000E2A6E000E54
:101A98002B6E800E2A127F0E2B1238502B1228C064
:101AA80028F029C029F02AC02AF02BC02BF0A0EF7B
:101AB8000EF03F50D8A463EF0DF065EF0DF06FEF17
:101AC8000DF0000E286E000E296E000E2A6E000E14
:101AD8002B6EA0EF0EF040503FC030F0316A305E00
:101AE800000E315A7F0E3024396E000E31203A6EC6
:101AF80028C034F029C035F02AC036F02BC037F0A2
:101B0800000E286E000E296E000E2A6E000E2B6E37
:101B1800000E3B6E000E3C6E000E3D6E000E3E6EDB
:101B2800000E406ED0EF0DF04050D8B49EEF0DF08F
:101B3800A0EF0DF0B7EF0DF0D890343635363636C5
:101B48003736D890283629362A362B363EAEAFEFB0
:101B58000DF0B1EF0DF0B2EF0DF02880D8903B36C4
:101B68003C363D363E362C50345C2D5035582E5080
:101B780036582F503758D8A0C4EF0DF0C6EF0DF0E7
:101B8800CFEF0DF03E8C2C50345E2D50355A2E5030
:101B9800365A2F50375A402A190E4064D6EF0DF0A6
:101BA800D8EF0DF098EF0DF034503510361037108F
:101BB800D8B4E1EF0DF0E3EF0DF0FBEF0DF03B8053
:101BC800FBEF0DF0D890283629362A362B363EAE54
:101BD800F0EF0DF0F2EF0DF0F3EF0DF02880D89054
:101BE8003B363C363D363E363906D8A03A062AAE54
:101BF80000EF0EF002EF0EF0E6EF0DF0000E406E73
:101C08003EAE09EF0EF00BEF0EF02FEF0EF0FF0EC9
:101C18003B14306EFF0E3C14316EFF0E3D14326ED5
:101C28007F0E3E14336E3050311032103310D8B45A
:101C380020EF0EF022EF0EF026EF0EF0010E406EB0
:101C48002FEF0EF028A02BEF0EF02DEF0EF02FEF58
:101C58000EF022EF0EF04050D8B435EF0EF037EF0B
:101C68000EF05BEF0EF0010E2826000E29222A2224
:101C78002B222BA042EF0EF044EF0EF05BEF0EF09C
:101C880028C030F029C031F02AC032F02BC033F020
:101C98003334333232323132303230C028F031C04E
:101CA80029F032C02AF033C02BF0394A3A2A3ABE1A
:101CB80066EF0EF03A5008E13928D8A066EF0EF02A
:101CC80068EF0EF073EF0EF0000E3A6E3968000EF2
:101CD800286E000E296E000E2A6E000E2B6E3ABE7C
:101CE80080EF0EF03A5006E13904D8B07EEF0EF0DE
:101CF80080EF0EF08EEF0EF0000E3A6E000E396E89
:101D0800000E286E000E296E000E2A6E000E2B6E35
:101D1800000E386E39C03FF03FA095EF0EF097EFF8
:101D28000EF09AEF0EF02A8E9BEF0EF02A9ED890B6
:101D38003F302B6E51EF0DF0120094929494000EE8
:101D4800956E000E8C6E000E8D6E000E966E0F0E48
:101D5800C16E000ECC6EF90ECB6E000ECA6E000E70
:101D6800BE6E0C0EBD6E8D808D92CA84240EAC6E34
:101D7800900EAB6E080EB86E190EAF6EF18CF29223
:101D8800F2889F8A9E9A9D8A810ED56E0B0ED76E19
:101D9800DC0ED66EF294F28AF28E020E0001A96F62
:101DA800450EA86FA90EE82EFED7A82FFCD7A92F9D
:101DB800FAD700D0040E58EC19F028EC17F06F0E83
:101DC80070EC19F06B0E70EC19F00001B405B51148
:101DD800D8A4F1EF0EF0F3EF0EF018EF0FF0B6C045
:101DE800B2F0B7C0B3F0000EA16F000EA06FB8C07C
:101DF800A2F0B9C0A3F0B3EC0FF0B2C0A0F0B3C02A
:101E0800A1F0B8C0A2F0B9C0A3F0B2EC10F0000E77
:101E18000001B56F000EB46F87EC19F0030E0001D6
:101E28006E6FBE505FEC14F0020E0001B419B511CC
:101E3800D8A421EF0FF023EF0FF03DEF0FF08DA0A6
:101E480028EF0FF02AEF0FF030EF0FF0000EA76F1A
:101E5800000EA66FC1EC18F0000E0001B56F000E61
:101E6800B46F87EC19F0030E00016E6FBE505FEC83
:101E780014F0030E0001B419B511D8A446EF0FF001
:101E880048EF0FF062EF0FF08DA24DEF0FF04FEF1C
:101E98000FF055EF0FF0000EA76F010EA66FC1EC03
:101EA80018F0000E0001B56F000EB46F87EC19F042
:101EB800030E00016E6FBE505FEC14F0040E0001BB
:101EC800B419B511D8A46BEF0FF06DEF0FF0E9EF6F
:101ED8000EF0BE50A86FA96BB651A85DB751A959AD
:101EE800D8B079EF0FF07BEF0FF087EF0FF0B6C0A7
:101EF800A0F0B7C0A1F0B8C0A2F0B9C0A3F0B2EC8E
:101F080010F09CEF0FF0BE50B65D000EB759D8B078
:101F180090EF0FF092EF0FF09CEF0FF0B6C0A0F02B
:101F2800B7C0A1F0B8C0A2F0B9C0A3F0B3EC0FF0ED
:101F38006F0E70EC19F06B0E70EC19F0000E0001CA
:101F4800B56F000EB46F87EC19F0030E00016E6FC9
:101F5800BE505FEC14F0E9EF0EF007EF00F0640EEE
:101F680070EC19F0BD50D8A4BCEF0FF0BEEF0FF025
:101F7800C0EF0FF00C0EBD6E0001A1BFCFEF0FF048
:101F8800A15107E10B0EA05DD8B0CDEF0FF0CFEF58
:101F98000FF0D3EF0FF0000EA16F0A0EA06F000E26
:101FA800726F000E736F480E746F420E756FBE50DD
:101FB800A46FA56BA051A45FA151A55BA4C060F05C
:101FC800A5C061F0000E61BFFF0E626F636F010E66
:101FD800A9EC12F060C06EF061C06FF062C070F0E2
:101FE80063C071F0CAEC04F06EC087F06FC088F06F
:101FF80070C089F071C08AF0000E0001726F000E87
:10200800736F7A0E746F440E756FA2C060F0A3C030
:1020180061F0000E61BFFF0E626F636F010EA9ECE5
:1020280012F060C06EF061C06FF062C070F063C003
:1020380071F0CAEC04F06EC08BF06FC08CF070C009
:102048008DF071C08EF006EC0BF087C0AAF088C046
:10205800ABF089C0ACF08AC0ADF0BE500001606F33
:10206800616B626B636B000EA9EC12F060C0AEF09E
:1020780061C0AFF062C0B0F063C0B1F074EF10F0AF
:10208800AEC070F0AFC071F0B0C072F0B1C073F004
:10209800AAC074F0ABC075F0ACC076F0ADC077F0F4
:1020A800EEEC18F070C0AEF071C0AFF072C0B0F0D6
:1020B80073C0B1F0AEC060F0AFC061F0B0C062F004
:1020C800B1C063F01CEC15F000016051BE6E110E3A
:1020D8000001A46F3A0EE82EFED7A42FFCD700F01B
:1020E800A0C060F0A1C061F00001000E61BFFF0E4A
:1020F800626F636F010EA9EC12F060C06EF061C0F0
:102108006FF062C070F063C071F0AEC072F0AFC023
:1021180073F0B0C074F0B1C075F0A0EC15F0000118
:10212800D8A099EF10F09BEF10F044EF10F0A0C08A
:10213800BEFFA1BFABEF10F0A15107E10B0EA05DF0
:10214800D8B0A9EF10F0ABEF10F0AEEF10F0000E22
:10215800BD6E8B94BECFB6F0B76B1200610E70ECFB
:1021680019F0BD50D8A4BBEF10F0BDEF10F0BFEFD1
:1021780010F00C0EBD6E0001A1BFCCEF10F0A15104
:1021880009E1FA0EA05DD8A0CCEF10F0CEEF10F068
:10219800D2EF10F0000EA16FF90EA06F000E726F53
:1021A800000E736F480E746F420E756FBE50A05DBF
:1021B800A46F000EA159A56FA4C060F0A5C061F07E
:1021C800000E61BFFF0E626F636F010EA9EC12F083
:1021D80060C06EF061C06FF062C070F063C071F0F3
:1021E800CAEC04F06EC087F06FC088F070C089F048
:1021F80071C08AF0000E0001726F000E736F7A0EC4
:10220800746F440E756FA2C060F0A3C061F0000E39
:1022180061BFFF0E626F636F010EA9EC12F060C020
:102228006EF061C06FF062C070F063C071F0CAEC0C
:1022380004F06EC08BF06FC08CF070C08DF071C070
:102248008EF006EC0BF087C0AAF088C0ABF089C00E
:10225800ACF08AC0ADF0BE500001606F616B626B7C
:10226800636B000EA9EC12F060C0AEF061C0AFF075
:1022780062C0B0F063C0B1F072EF11F0AEC060F0B0
:10228800AFC061F0B0C062F0B1C063F0AAC064F042
:10229800ABC065F0ACC066F0ADC067F009EC00F00B
:1022A80060C0AEF061C0AFF062C0B0F063C0B1F022
:1022B800AEC060F0AFC061F0B0C062F0B1C063F012
:1022C8001CEC15F000016051BE6E110E0001A46FE8
:1022D8003A0EE82EFED7A42FFCD700F0AEC06EF061
:1022E800AFC06FF0B0C070F0B1C071F0A0C060F0C6
:1022F800A1C061F00001000E61BFFF0E626F636F45
:10230800010EA9EC12F060C072F061C073F062C0F7
:1023180074F063C075F0A0EC15F00001D8A097EF39
:1023280011F099EF11F042EF11F0A0C0BEFFA1BF6C
:10233800A7EF11F0A15109E1F90EA05DD8A0A7EF10
:1023480011F0A9EF11F0ACEF11F0000EBD6E8B8407
:10235800BECFB6F0B76B1200640E7CEC19F0BD501E
:10236800D8A4B9EF11F0BBEF11F0BDEF11F00C0ECE
:10237800BD6E42BECBEF11F0425007E10B0E415C3F
:10238800D8B0C9EF11F0CBEF11F0CFEF11F0000E7C
:10239800426E0A0E416E000E136E000E146E480E49
:1023A800156E420E166EBE50456E466A4150455E29
:1023B8004250465A45C001F046C002F0000E02BE27
:1023C800FF0E036E046E010E85EC13F001C00FF0D2
:1023D80002C010F003C011F004C012F0E0EC06F0E7
:1023E8000FC028F010C029F011C02AF012C02BF03D
:1023F800000E136E000E146E7A0E156E440E166ED5
:1024080043C001F044C002F0000E02BEFF0E036E8E
:10241800046E010E85EC13F001C00FF002C010F03D
:1024280003C011F004C012F0E0EC06F00FC02CF06D
:1024380010C02DF011C02EF012C02FF0D4EC0CF00B
:1024480028C0AAF029C0ABF02AC0ACF02BC0ADF070
:10245800BE50016E026A036A046A000E85EC13F02E
:1024680001C0AEF002C0AFF003C0B0F004C0B1F0DC
:102478006CEF12F0AEC011F0AFC012F0B0C013F0A4
:10248800B1C014F0AAC015F0ABC016F0ACC017F07C
:10249800ADC018F035EC19F011C0AEF012C0AFF0B5
:1024A80013C0B0F014C0B1F0AEC001F0AFC002F07C
:1024B800B0C003F0B1C004F023EC16F00150BE6EBA
:1024C800110E456E3A0EE82EFED7452EFCD700D0E9
:1024D80041C001F042C002F0000E02BEFF0E036EC2
:1024E800046E010E85EC13F001C00FF002C010F06D
:1024F80003C011F004C012F0AEC013F0AFC014F066
:10250800B0C015F0B1C016F0A6EC16F0D8A08FEF49
:1025180012F091EF12F03EEF12F041C0BEFF42BE42
:10252800A1EF12F0425007E10B0E415CD8B09FEFCB
:1025380012F0A1EF12F0A4EF12F0000EBD6E8B9412
:10254800BECFB6F00001B76B12000001686F000142
:102558006851D8B4B2EF12F0B4EF12F0D6EF12F01F
:1025680063BFBBEF12F0B9EF12F0D6EF12F060C004
:1025780064F061C065F062C066F063C067F0641F14
:10258800651F661F671F642B000E6523662367237C
:1025980064C06AF065C06BF066C06CF067C06DF02F
:1025A800DEEF12F060C06AF061C06BF062C06CF0E0
:1025B80063C06DF06051611162116311D8A4E7EF37
:1025C80012F0E9EF12F0F3EF12F0000E606F000E58
:1025D800616F000E626F000E636F84EF13F0960E4A
:1025E800696FFDEF12F0692BD8906D336C336B3344
:1025F8006A33000E6A15646F000E6B15656F000E66
:102608006C15666FFE0E6D15676F64516511661166
:102618006711D8A412EF13F014EF13F0F7EF12F0CC
:1026280022EF13F0692B010E6A27000E6B236C232F
:102638006D23D8906D336C336B336A33000E6A1593
:10264800646F000E6B15656F000E6C15666FFF0EDC
:102658006D15676F6451651166116711D8A437EF5E
:1026680013F039EF13F016EF13F041EF13F0690789
:10267800D8906A376B376C376D376CBF46EF13F0FD
:1026880048EF13F050EF13F0020E69614EEF13F0AC
:1026980050EF13F03BEF13F069B155EF13F057EF1C
:1026A80013F058EF13F06C9FD890693369C064F049
:1026B800656B666B676B64C067F0666B656B646BB4
:1026C80064516A1365516B1366516C1367516D132E
:1026D8006851D8B472EF13F074EF13F07CEF13F075
:1026E80063BF7BEF13F079EF13F07CEF13F06D8F7E
:1026F8006AC060F06BC061F06CC062F06DC063F0DE
:102708001200096E0950D8B48CEF13F08EEF13F055
:10271800B0EF13F004BE95EF13F093EF13F0B0EFA2
:1027280013F001C005F002C006F003C007F004C0B2
:1027380008F0051E061E071E081E052A000E0622A2
:102748000722082205C00BF006C00CF007C00DF0E8
:1027580008C00EF0B8EF13F001C00BF002C00CF087
:1027680003C00DF004C00EF0015002100310041055
:10277800D8A4C1EF13F0C3EF13F0CDEF13F0000EA0
:10278800016E000E026E000E036E000E046E5EEF08
:1027980014F0960E0A6ED7EF13F00A2AD8900E326C
:1027A8000D320C320B32000E0B14056E000E0C1499
:1027B800066E000E0D14076EFE0E0E14086E055000
:1027C800061007100810D8A4ECEF13F0EEEF13F082
:1027D800D1EF13F0FCEF13F00A2A010E0B26000EBE
:1027E8000C220D220E22D8900E320D320C320B32F2
:1027F800000E0B14056E000E0C14066E000E0D1460
:10280800076EFF0E0E14086E05500610071008100C
:10281800D8A411EF14F013EF14F0F0EF13F01BEF3E
:1028280014F00A06D8900B360C360D360E360DBE4F
:1028380020EF14F022EF14F02AEF14F0020E0A60D1
:1028480028EF14F02AEF14F015EF14F00AB02FEF68
:1028580014F031EF14F032EF14F00D9ED8900A32D4
:102868000AC005F0066A076A086A05C008F0076A20
:10287800066A056A05500B1206500C1207500D1215
:1028880008500E120950D8B44CEF14F04EEF14F063
:1028980056EF14F004BE55EF14F053EF14F056EF52
:1028A80014F00E8E0BC001F00CC002F00DC003F046
:1028B8000EC004F012000001746F8C8001EF15F057
:1028C80074C060F0616B000E636F0A0E626FF3EC08
:1028D80017F000016051736F7351300F90EC18F0CE
:1028E80091EC19F0040E4CEC18F01BEF15F0000EEB
:1028F800636F640E626F74C060F0616BF3EC17F085
:1029080060C066F061C067F0000E0001696F0A0ED2
:10291800686F90EC17F000016651726F74C060F038
:10292800616B000E636F0A0E626FF3EC17F0000123
:102938006051736F7251300F90EC18F091EC19F0F0
:10294800040E4CEC18F000017351300F90EC18F0A5
:1029580091EC19F0040E4CEC18F01BEF15F074C054
:1029680066F0676B000E696F640E686F90EC17F085
:1029780000016651716F000E636F640E626F74C060
:1029880060F0616BF3EC17F060C066F061C067F04F
:10299800000E0001696F0A0E686F90EC17F00001D5
:1029A8006651726F74C060F0616B000E636F0A0E3F
:1029B800626FF3EC17F000016051736F7151300FC3
:1029C80090EC18F091EC19F0040E4CEC18F00001A2
:1029D8007251300F90EC18F091EC19F0040E4CEC99
:1029E80018F000017351300F90EC18F091EC19F0C9
:1029F800040E4CEC18F01BEF15F000016E516F6FD0
:102A0800706B7051000AD8B40CEF15F01BEF15F07D
:102A18006F51010AD8B464EF14F0030AD8B47BEFFD
:102A280014F0010AD8B4B3EF14F01BEF15F012003C
:102A3800000162356335696F6951D8A426EF15F036
:102A480028EF15F032EF15F0000E606F000E616F81
:102A5800000E626F000E636F9FEF15F060C064F0A8
:102A680061C065F062C066F063C067F0200E42EF97
:102A780015F0D8906733663365336433E82E3DEF3D
:102A880015F06451686F628FFF0E6017FF0E6117B3
:102A9800FF0E6217000E6317960E695F69BF59EF44
:102AA80015F057EF15F06FEF15F06951800A970F81
:102AB800D8B061EF15F063EF15F065EF15F028EF6A
:102AC80015F0D8906333623361336033693F65EF43
:102AD80015F087EF15F01F0E696575EF15F077EFA4
:102AE80015F07FEF15F028EF15F0D89060376137B3
:102AF8006237633769076951D8A485EF15F087EF06
:102B080015F079EF15F06851D8B48DEF15F08FEF07
:102B180015F097EF15F0631F621F611F606D000EBF
:102B280061236223632360C060F061C061F062C00A
:102B380062F063C063F01200000E00016E15766F3C
:102B4800000E6F15776F800E7015786F7F0E7115F8
:102B5800796F7651771178117911D8A4B6EF15F0FD
:102B6800B8EF15F0C0EF15F0000E6E6F000E6F6F26
:102B7800000E706F000E716F000E7215766F000EEA
:102B88007315776F800E7415786F7F0E7515796FD2
:102B98007651771178117911D8A4D5EF15F0D7EFC0
:102BA80015F0DFEF15F0000E726F000E736F000E58
:102BB800746F000E756F71AFE4EF15F0E6EF15F066
:102BC800EFEF15F06E6D6F1FD8B06F2B701FD8B078
:102BD800702B800E715775AFF4EF15F0F6EF15F006
:102BE800FFEF15F0726D731FD8B0732B741FD8B038
:102BF800742B800E7557000E6E1B000E6F1B000E97
:102C0800701B800E711B000E721B000E731B000ED2
:102C1800741B800E751B72516E5D73516F59745120
:102C2800705975517159D8B01CEF16F01EEF16F097
:102C380021EF16F0D89022EF16F0D8801200033456
:102C480004340A6E0A50D8A42CEF16F02EEF16F0B2
:102C580038EF16F0000E016E000E026E000E036EC5
:102C6800000E046EA5EF16F001C005F002C006F0D4
:102C780003C007F004C008F0200E48EF16F0D89003
:102C88000832073206320532E82E43EF16F00550B7
:102C9800096E038EFF0E0116FF0E0216FF0E0316B5
:102CA800000E0416960E0A5E0ABE5FEF16F05DEF80
:102CB80016F075EF16F00A50800A970FD8B067EF34
:102CC80016F069EF16F06BEF16F02EEF16F0D890AD
:102CD80004320332023201320A3E6BEF16F08DEFF6
:102CE80016F01F0E0A647BEF16F07DEF16F085EFE5
:102CF80016F02EEF16F0D890013602360336043659
:102D08000A060A50D8A48BEF16F08DEF16F07FEF65
:102D180016F00950D8B493EF16F095EF16F09DEF22
:102D280016F0041E031E021E016C000E022203226E
:102D3800042201C001F002C002F003C003F004C085
:102D480004F01200000E0F14176E000E1014186E07
:102D5800800E1114196E7F0E12141A6E1750181067
:102D680019101A10D8A4BBEF16F0BDEF16F0C5EF76
:102D780016F0000E0F6E000E106E000E116E000E93
:102D8800126E000E1314176E000E1414186E800EB7
:102D98001514196E7F0E16141A6E17501810191084
:102DA8001A10D8A4DAEF16F0DCEF16F0E4EF16F0FC
:102DB800000E136E000E146E000E156E000E166EC9
:102DC80012AEE9EF16F0EBEF16F0F4EF16F00F6C19
:102DD800101ED8B0102A111ED8B0112A800E125613
:102DE80016AEF9EF16F0FBEF16F004EF17F0136CC0
:102DF800141ED8B0142A151ED8B0152A800E1656DF
:102E0800000E0F1A000E101A000E111A800E121A58
:102E1800000E131A000E141A000E151A800E161A38
:102E280013500F5C14501058155011581650125862
:102E3800D8B021EF17F023EF17F026EF17F0D8904E
:102E480027EF17F0D88012008C90040E4C18D8A4E5
:102E580030EF17F032EF17F038EF17F08C500F0BF8
:102E680030098C6E3AEF17F03F0E8C6E91EC19F02A
:102E7800010E4CEC18F0040E4C18D8A446EF17F0CD
:102E880048EF17F04EEF17F08C500F0B30098C6E8F
:102E980050EF17F03F0E8C6E91EC19F0030E4CECCE
:102EA80018F0040E4C18D8A45CEF17F05EEF17F07A
:102EB80064EF17F08C500F0B30098C6E66EF17F02B
:102EC8003F0E8C6E91EC19F0040E4CEC18F0040EC9
:102ED8004C18D8A472EF17F074EF17F085EF17F0BD
:102EE8008C500F0B20098C6E91EC19F0040E4CECF1
:102EF80018F02F0E90EC18F091EC19F0040E4CEC31
:102F080018F087EC19F00F0E90EC18F091EC19F00E
:102F1800040E4CEC18F01200000E00016B6F69BF34
:102F28009AEF17F098EF17F0A0EF17F0686D691F88
:102F3800D8B0692B010E6B6F67BFA7EF17F0A5EF2D
:102F480017F0ADEF17F0666D671FD8B0672B010E4D
:102F58006B1B000E6D6F000E6C6F68516911D8B451
:102F6800B8EF17F0BAEF17F0E2EF17F0010E6A6F3B
:102F7800C2EF17F0D890683769376A2B69AFC7EF87
:102F880017F0C9EF17F0BEEF17F0D8906C376D3710
:102F98006851665D69516759D8A0D5EF17F0D7EF2A
:102FA80017F0DCEF17F06851665F6951675B6C8159
:102FB800D890693368336A2FC9EF17F06B51D8B4CA
:102FC800E8EF17F0EAEF17F0EEEF17F06C6D6D1FF2
:102FD800D8B06D2B6CC066F06DC067F01200000EA3
:102FE8000001656F61BFFDEF17F0FBEF17F003EF0E
:102FF80018F0606D611FD8B0612B010E656F63BF5B
:103008000AEF18F008EF18F00EEF18F0626D631F62
:10301800D8B0632B62516311D8B415EF18F017EFCD
:1030280018F03BEF18F0010E646F1FEF18F0D890FE
:1030380062376337642B63AF24EF18F026EF18F07C
:103048001BEF18F06251605D63516159D8A02FEFF2
:1030580018F031EF18F035EF18F06251605F6351E6
:10306800615BD89063336233642F26EF18F06551A3
:10307800D8B441EF18F043EF18F047EF18F0606D3F
:10308800611FD8B0612B60C060F061C061F01200B0
:103098000001626F71EF18F0050E0001606FDD0E20
:1030A800E82EFED7602FFCD700D08FEF18F0530E14
:1030B800E82EFED700F0350EE82EFED700F08FEF91
:1030C80018F0080EE82EFED700F08FEF18F0030E68
:1030D800E82EFED700F08FEF18F000016251606F04
:1030E800616B6151000AD8B47CEF18F08FEF18F0CB
:1030F8006051010AD8B450EF18F0030AD8B45BEF56
:1031080018F0010AD8B465EF18F0070AD8B46BEFC5
:1031180018F08FEF18F012000001646F040E4C18BD
:10312800D8A499EF18F09BEF18F0B5EF18F064C029
:1031380063F0F00E000163178C500F0B63118C6E57
:1031480091EC19F0010E4CEC18F064C063F000012A
:10315800633BF00E63178C500F0B63118C6EC0EF3E
:1031680018F0080E4C18D8A4BCEF18F0BEEF18F0F1
:10317800C0EF18F064C08CFF1200430E70EC19F019
:10318800B6C0B2F0B7C0B3F0000E0001A16F000ED8
:10319800A06FB8C0A2F0B9C0A3F0B3EC0FF08D9047
:1031A8008D920001A605A711D8A4DDEF18F0DFEF76
:1031B80018F0E2EF18F08D80E3EF18F08D82B2C0BE
:1031C800A0F0B3C0A1F0B8C0A2F0B9C0A3F0B2ECAF
:1031D80010F01200000E0001741B000E751B000E8B
:1031E800761B800E771B70C060F071C061F072C0F2
:1031F80062F073C063F074C064F075C065F076C0A7
:1032080066F077C067F009EC00F060C070F061C04C
:1032180071F062C072F063C073F01200300EF66E87
:10322800330EF76E000EF86E0900F5CFB8F00900FE
:10323800F5CFB9F0320EF66E330EF76E000EF86E5B
:103248000900F5CF4CF000EEAAF00E0EEE6AE80683
:10325800FDE14B6A4D904D92000EF86E0001A1EF12
:103268000EF0000E151A000E161A000E171A800E10
:10327800181A11C001F012C002F013C003F014C0F4
:1032880004F015C005F016C006F017C007F018C006
:1032980008F06AEC02F001C011F002C012F003C09D
:1032A80013F004C014F012000001606F040E000156
:1032B8006019D8B462EF19F064EF19F06DEF19F0E6
:1032C800080E6019D8A46BEF19F06DEF19F06FEFC5
:1032D80019F060C04CF012000001606FACA277EFEB
:1032E80019F079EF19F072EF19F060C0ADFF120014
:1032F800016EACA282EF19F084EF19F07DEF19F09E
:1033080001C0ADFF12008C90010E90EC18F091EC0A
:1033180019F0020E4CEC18F012008C82030EE82E05
:0B332800FED700F08C92120004000899
:020000040020DA
:08000000FFFFFFFFFFFFFFFF00
:020000040030CA
:0E00000000091F1EFF8181FF0FC00FE00F409F
:00000001FF
