:020000040000FA
:10000000938093828C6AF00E956E060E026E010E3E
:10001000006E00C08CFF81B037EC00F081B23CEC88
:1000200000F023EC00F083B81CEF00F002500060F9
:10003000006A002A09EF00F0002E09EF00F002C06C
:1000400000F009EF00F0400E046E910E056E070EF1
:10005000066E042E29EF00F0400E046E052E29EFE7
:1000600000F0910E056E062E29EF00F01200006AD6
:10007000002A00C08CFF1200190E016E23EC00F064
:0A008000012E3EEF00F0F090120098
:020000040030CA
:0100000000FF
:010001000CF2
:010002001FDE
:010003001EDE
:010005008179
:010006008178
:010008000FE8
:01000900C036
:01000A000FE6
:01000B00E014
:01000C000FE4
:01000D0040B2
:00000001FF
