:020000040000FA
:0400000007EF00F016
:0A0008005E8215ED18F0C4EF1CF045
:10080000004C61622035002048554D3A0054656D1A
:10081000703A00204300204600204B002052002068
:1008200000250000540E3CEC1DF0650E3CEC1DF064
:100830006D0E3CEC1DF0700E3CEC1DF03A0E3CECE5
:100840001DF0200E3CEC1DF056505710D8A42BEF95
:1008500004F02DEF04F04FEF04F0ABC001F0026A9A
:10086000000E046E0A0E036E3AEC1AF00150300FBF
:100870003CEC1DF0ABC001F0026A000E046E0A0EE3
:10088000036EF5EC1AF00150300F3CEC1DF0200E19
:100890003CEC1DF0430E3CEC1DF0BAEF07F05604A3
:1008A0005710D8A456EF04F058EF04F07CEF05F091
:1008B000000E2C6E000E2D6E000E2E6E420E2F6E50
:1008C000660E136E660E146EE60E156E3F0E166EF5
:1008D0000001AB51016E026A036A046A010ED6EC94
:1008E00014F001C00FF002C010F003C011F004C0FA
:1008F00012F0C7EC0EF00FC028F010C029F011C0A4
:100900002AF012C02BF051EC0AF028C038F029C0B0
:1009100039F02AC03AF02BC03BF092EC17F038C007
:1009200042F039C043F03AC044F03BC045F0466A5B
:1009300045BE466846C047F046C048F046C049F04C
:1009400042C04EF043C04FF044C050F045C051F09B
:1009500046C052F047C053F048C054F049C055F06B
:100960004EC012F04FC013F050C014F051C015F03B
:1009700052C016F053C017F054C018F055C019F00B
:10098000640E1A6E000E1B6E000E1C6E000E1D6EA5
:10099000000E1E6E000E1F6E000E206E000E216EE9
:1009A0008FEC18F012C042F013C043F014C044F0B2
:1009B00015C045F016C046F017C047F018C048F003
:1009C00019C049F04250300F3CEC1DF0640E096E26
:1009D000000E0A6E000E0B6E000E0C6E000E0D6EF9
:1009E000000E0E6E000E0F6E000E106E4EC001F067
:1009F0004FC002F050C003F051C004F052C005F0E7
:100A000053C006F054C007F055C008F06FEC19F061
:100A100001C012F002C013F003C014F004C015F0BE
:100A200005C016F006C017F007C018F008C019F08E
:100A30000A0E1A6E000E1B6E000E1C6E000E1D6E4E
:100A4000000E1E6E000E1F6E000E206E000E216E38
:100A50008FEC18F012C042F013C043F014C044F001
:100A600015C045F016C046F017C047F018C048F052
:100A700019C049F04250300F3CEC1DF04EC001F05F
:100A80004FC002F050C003F051C004F052C005F056
:100A900053C006F054C007F055C008F00A0E096EA6
:100AA000000E0A6E000E0B6E000E0C6E000E0D6E28
:100AB000000E0E6E000E0F6E000E106E6FEC19F031
:100AC00001C042F002C043F003C044F004C045F04E
:100AD00005C046F006C047F007C048F008C049F01E
:100AE0004250300F3CEC1DF0200E3CEC1DF0460E49
:100AF0003CEC1DF0BAEF07F0020E56185710D8A4C0
:100B000084EF05F086EF05F098EF06F0330E2C6EBB
:100B1000930E2D6E880E2E6E430E2F6E0001AB517C
:100B2000016E026A036A046A010ED6EC14F001C079
:100B300028F002C029F003C02AF004C02BF051ECC9
:100B40000AF028C038F029C039F02AC03AF02BC08A
:100B50003BF092EC17F038C042F039C043F03AC095
:100B600044F03BC045F0466A45BE466846C047F083
:100B700046C048F046C049F042C04EF043C04FF076
:100B800044C050F045C051F046C052F047C053F049
:100B900048C054F049C055F04EC012F04FC013F099
:100BA00050C014F051C015F052C016F053C017F0E9
:100BB00054C018F055C019F0640E1A6E000E1B6E6A
:100BC000000E1C6E000E1D6E000E1E6E000E1F6EBF
:100BD000000E206E000E216E8FEC18F012C042F055
:100BE00013C043F014C044F015C045F016C046F0E1
:100BF00017C047F018C048F019C049F04250300FF4
:100C00003CEC1DF0640E096E000E0A6E000E0B6EB9
:100C1000000E0C6E000E0D6E000E0E6E000E0F6EAE
:100C2000000E106E4EC001F04FC002F050C003F035
:100C300051C004F052C005F053C006F054C007F094
:100C400055C008F06FEC19F001C012F002C013F0AB
:100C500003C014F004C015F005C016F006C017F06C
:100C600007C018F008C019F00A0E1A6E000E1B6EAD
:100C7000000E1C6E000E1D6E000E1E6E000E1F6E0E
:100C8000000E206E000E216E8FEC18F012C042F0A4
:100C900013C043F014C044F015C045F016C046F030
:100CA00017C047F018C048F019C049F04250300F43
:100CB0003CEC1DF04EC001F04FC002F050C003F0FC
:100CC00051C004F052C005F053C006F054C007F004
:100CD00055C008F00A0E096E000E0A6E000E0B6E6B
:100CE000000E0C6E000E0D6E000E0E6E000E0F6EDE
:100CF000000E106E6FEC19F001C042F002C043F01C
:100D000003C044F004C045F005C046F006C047F0FB
:100D100007C048F008C049F04250300F3CEC1DF0CD
:100D2000200E3CEC1DF04B0E3CEC1DF0BAEF07F032
:100D3000C30E2C6ED50E2D6EF50E2E6E430E2F6E3D
:100D4000660E136E660E146EE60E156E3F0E166E70
:100D50000001AB51016E026A036A046A010ED6EC0F
:100D600014F001C00FF002C010F003C011F004C075
:100D700012F0C7EC0EF00FC028F010C029F011C01F
:100D80002AF012C02BF051EC0AF028C038F029C02C
:100D900039F02AC03AF02BC03BF092EC17F038C083
:100DA00042F039C043F03AC044F03BC045F0466AD7
:100DB00045BE466846C047F046C048F046C049F0C8
:100DC00042C04EF043C04FF044C050F045C051F017
:100DD00046C052F047C053F048C054F049C055F0E7
:100DE0004EC012F04FC013F050C014F051C015F0B7
:100DF00052C016F053C017F054C018F055C019F087
:100E0000640E1A6E000E1B6E000E1C6E000E1D6E20
:100E1000000E1E6E000E1F6E000E206E000E216E64
:100E20008FEC18F012C042F013C043F014C044F02D
:100E300015C045F016C046F017C047F018C048F07E
:100E400019C049F04250300F3CEC1DF0640E096EA1
:100E5000000E0A6E000E0B6E000E0C6E000E0D6E74
:100E6000000E0E6E000E0F6E000E106E4EC001F0E2
:100E70004FC002F050C003F051C004F052C005F062
:100E800053C006F054C007F055C008F06FEC19F0DD
:100E900001C012F002C013F003C014F004C015F03A
:100EA00005C016F006C017F007C018F008C019F00A
:100EB0000A0E1A6E000E1B6E000E1C6E000E1D6ECA
:100EC000000E1E6E000E1F6E000E206E000E216EB4
:100ED0008FEC18F012C042F013C043F014C044F07D
:100EE00015C045F016C046F017C047F018C048F0CE
:100EF00019C049F04250300F3CEC1DF04EC001F0DB
:100F00004FC002F050C003F051C004F052C005F0D1
:100F100053C006F054C007F055C008F00A0E096E21
:100F2000000E0A6E000E0B6E000E0C6E000E0D6EA3
:100F3000000E0E6E000E0F6E000E106E6FEC19F0AC
:100F400001C042F002C043F003C044F004C045F0C9
:100F500005C046F006C047F007C048F008C049F099
:100F60004250300F3CEC1DF0200E3CEC1DF0520EB8
:100F70003CEC1DF00A0E3CEC1DF0480E3CEC1DF064
:100F8000750E3CEC1DF06D0E3CEC1DF03A0E3CEC89
:100F90001DF0200E3CEC1DF05CC001F0026A000E5A
:100FA000046E0A0E036E3AEC1AF00150300F3CEC5E
:100FB0001DF05CC001F0026A000E046E0A0E036EA2
:100FC000F5EC1AF00150300F3CEC1DF0200E3CEC1B
:100FD0001DF0250E3CEC1DF00A0E3CEC1DF012003D
:100FE00000018A51800B936F8A518A25956F89AFD2
:100FF000FCEF07F0FEEF07F0FFEF07F0958195514A
:10100000D8B405EF08F007EF08F01CEF08F09529B9
:10101000D8A40DEF08F00FEF08F017EF08F0000E5E
:10102000876F000E886F000E896F000E8A6F898FA0
:10103000000E8A6F24EF08F0000E876F000E886F95
:10104000000E896F000E8A6F8E51800B946F935142
:101050009419D8B42EEF08F030EF08F031EF08F013
:10106000938D8E518E25946F8DAF39EF08F03BEF45
:1010700008F03CEF08F094819451D8B442EF08F0A6
:1010800044EF08F059EF08F09429D8A44AEF08F08B
:101090004CEF08F054EF08F0000E8B6F000E8C6FD1
:1010A000000E8D6F000E8E6F8D8F000E8E6F61EFB4
:1010B00008F0000E8B6F000E8C6F000E8D6F000E0F
:1010C0008E6F9551945DD8B068EF08F06AEF08F024
:1010D00091EF08F093AD6FEF08F071EF08F073EF48
:1010E00008F0800E931B95C096F094C095F096C0C2
:1010F00094F087C096F08BC087F096C08BF088C0C4
:1011000096F08CC088F096C08CF089C096F08DC0A7
:1011100089F096C08DF08AC096F08EC08AF096C095
:101120008EF0000E966F955194C08FF0906B8F5F8C
:10113000000E905B90BFA6EF08F0905109E11A0EE7
:101140008F5DD8A0A6EF08F0A8EF08F0DFEF08F059
:101150008751881189118A11D8A4B1EF08F0B4EF32
:1011600008F0010EB5EF08F0000E966F000E876FC5
:10117000000E886F000E896F000E8A6F94C095F084
:10118000E8EF08F096A1C7EF08F0C9EF08F0CFEF3D
:1011900008F0D89096310109966FD1EF08F0D890F9
:1011A000963387A1D6EF08F0D8EF08F0D9EF08F012
:1011B000968F8A358A33893388338733952B9451B8
:1011C000955DD8A0E6EF08F0E8EF08F0C2EF08F070
:1011D00093BDEDEF08F0EFEF08F02FEF09F0955118
:1011E000D8A4F5EF08F0F7EF08F001EF09F0000ED2
:1011F000876F000E886F000E896F000E8A6F50EFA8
:101200000AF08B5187278C5188238D5189238E5169
:101210008A238AA10EEF09F010EF09F0BCEF09F064
:1012200096A115EF09F017EF09F01DEF09F0D8901E
:1012300096310109966F1FEF09F0D890963387A178
:1012400024EF09F026EF09F027EF09F0968F8A3591
:101250008A33893388338733952BBCEF09F08B5160
:10126000875D8C5188598D5189598A51800A8F6FB9
:101270008E51800A8F59D8B040EF09F042EF09F043
:101280006DEF09F087518B5D8F6F88518C59906F8E
:1012900089518D59916F8A518E59926FFF0E8F250A
:1012A000876FFF0E9021886FFF0E9121896FFF0ECF
:1012B00092218A6F800E931B966D9651D8A463EF8E
:1012C00009F065EF09F075EF09F0010E8727000EB0
:1012D000882389238A2375EF09F08B51875F8C510E
:1012E000885B8D51895B8E518A5B8751881189118A
:1012F0008A11D8A47EEF09F080EF09F0B5EF09F06C
:101300009651D8A486EF09F088EF09F0B5EF09F0FF
:10131000000E876F000E886F000E896F000E8A6FB7
:1013200050EF0AF0D8908737883789378A3796AFD9
:101330009CEF09F09EEF09F09FEF09F0878196A1DD
:10134000A4EF09F0A6EF09F0AAEF09F0D8809637CC
:10135000ACEF09F0D89096379551D8B4B2EF09F0B8
:10136000B4EF09F0B5EF09F0950789AFBAEF09F0CE
:10137000BCEF09F092EF09F0000E946F96AFC3EF47
:1013800009F0C5EF09F0DDEF09F096C08FF07F0E90
:101390008F17D8B4CEEF09F0D0EF09F0D4EF09F0F1
:1013A000010E946FDDEF09F087A1D9EF09F0DBEFB3
:1013B00009F0DDEF09F0D0EF09F09451D8B4E3EF74
:1013C00009F0E5EF09F010EF0AF0010E8727000E93
:1013D000882389238A238AA1F0EF09F0F2EF09F02C
:1013E00010EF0AF087C08FF088C090F089C091F0AC
:1013F0008AC092F092359233913390338F338FC0FD
:1014000087F090C088F091C089F092C08AF0952949
:10141000D8B40DEF0AF00FEF0AF010EF0AF0952B99
:101420009529D8B416EF0AF018EF0AF020EF0AF069
:101430009551D8A41EEF0AF020EF0AF032EF0AF01F
:10144000000E876F000E886F000E896F000E8A6F86
:101450009551D8A42EEF0AF030EF0AF032EF0AF0DF
:10146000000E936F95A137EF0AF039EF0AF03CEFC9
:101470000AF0898F3DEF0AF0899FD89095318A6FE5
:1014800093AF45EF0AF047EF0AF048EF0AF08A8F72
:1014900087C087F088C088F089C089F08AC08AF048
:1014A00012002B50800B346E2B502B24366E2AAE3C
:1014B0005CEF0AF05EEF0AF05FEF0AF0368036501C
:1014C000D8B465EF0AF067EF0AF07CEF0AF036282F
:1014D000D8A46DEF0AF06FEF0AF077EF0AF0000E74
:1014E000286E000E296E000E2A6E000E2B6E2A8EBC
:1014F000000E2B6E84EF0AF0000E286E000E296E8F
:10150000000E2A6E000E2B6E2F50800B356E34505D
:101510003518D8B48EEF0AF090EF0AF091EF0AF088
:10152000348C2F502F24356E2EAE99EF0AF09BEF9E
:101530000AF09CEF0AF035803550D8B4A2EF0AF0DB
:10154000A4EF0AF0B9EF0AF03528D8A4AAEF0AF000
:10155000ACEF0AF0B4EF0AF0000E2C6E000E2D6E08
:10156000000E2E6E000E2F6E2E8E000E2F6EC1EF0F
:101570000AF0000E2C6E000E2D6E000E2E6E000E68
:101580002F6E3650355CD8B0C8EF0AF0CAEF0AF0BB
:10159000F1EF0AF034ACCFEF0AF0D1EF0AF0D3EF5D
:1015A0000AF0800E341A36C037F035C036F037C036
:1015B00035F028C037F02CC028F037C02CF029C0F7
:1015C00037F02DC029F037C02DF02AC037F02EC0DB
:1015D0002AF037C02EF02BC037F02FC02BF037C0C9
:1015E0002FF0000E376E365035C030F0316A305E65
:1015F000000E315A31BE06EF0BF0315009E11A0EE0
:10160000305CD8A006EF0BF008EF0BF03FEF0BF0CB
:10161000285029102A102B10D8A411EF0BF014EF2A
:101620000BF0010E15EF0BF0000E376E000E286E5A
:10163000000E296E000E2A6E000E2B6E35C036F09D
:1016400048EF0BF037A027EF0BF029EF0BF02FEF4F
:101650000BF0D89037300109376E31EF0BF0D8908E
:10166000373228A036EF0BF038EF0BF039EF0BF0E4
:10167000378E2B342B322A3229322832362A3550F3
:10168000365CD8A046EF0BF048EF0BF022EF0BF0E2
:1016900034BC4DEF0BF04FEF0BF08FEF0BF03650EB
:1016A000D8A455EF0BF057EF0BF061EF0BF0000EE5
:1016B000286E000E296E000E2A6E000E2B6EB0EF03
:1016C0000CF02C5028262D5029222E502A222F5043
:1016D0002B222BA06EEF0BF070EF0BF01CEF0CF039
:1016E00037A075EF0BF077EF0BF07DEF0BF0D89094
:1016F00037300109376E7FEF0BF0D890373228A0D2
:1017000084EF0BF086EF0BF087EF0BF0378E2B3466
:101710002B322A3229322832362A1CEF0CF02C5078
:10172000285C2D5029582E502A582B50800A306E94
:101730002F50800A3058D8B0A0EF0BF0A2EF0BF07A
:10174000CDEF0BF028502C5C306E29502D58316EA7
:101750002A502E58326E2B502F58336EFF0E3024E5
:10176000286EFF0E3120296EFF0E32202A6EFF0EEA
:1017700033202B6E800E341A376C3750D8A4C3EF49
:101780000BF0C5EF0BF0D5EF0BF0010E2826000E85
:1017900029222A222B22D5EF0BF02C50285E2D5027
:1017A000295A2E502A5A2F502B5A285029102A10C5
:1017B0002B10D8A4DEEF0BF0E0EF0BF015EF0CF0E0
:1017C0003750D8A4E6EF0BF0E8EF0BF015EF0CF074
:1017D000000E286E000E296E000E2A6E000E2B6E73
:1017E000B0EF0CF0D890283629362A362B3637AE93
:1017F000FCEF0BF0FEEF0BF0FFEF0BF0288037A0B3
:1018000004EF0CF006EF0CF00AEF0CF0D88037363E
:101810000CEF0CF0D89037363650D8B412EF0CF0ED
:1018200014EF0CF015EF0CF036062AAE1AEF0CF0A0
:101830001CEF0CF0F2EF0BF0000E356E37AE23EF1D
:101840000CF025EF0CF03DEF0CF037C030F07F0EC0
:101850003016D8B42EEF0CF030EF0CF034EF0CF063
:10186000010E356E3DEF0CF028A039EF0CF03BEF88
:101870000CF03DEF0CF030EF0CF03550D8B443EFE6
:101880000CF045EF0CF070EF0CF0010E2826000E66
:1018900029222A222B222BA050EF0CF052EF0CF021
:1018A00070EF0CF028C030F029C031F02AC032F0BF
:1018B0002BC033F03334333232323132303230C035
:1018C00028F031C029F032C02AF033C02BF036287E
:1018D000D8B46DEF0CF06FEF0CF070EF0CF0362A0F
:1018E0003628D8B476EF0CF078EF0CF080EF0CF0DF
:1018F0003650D8A47EEF0CF080EF0CF092EF0CF095
:10190000000E286E000E296E000E2A6E000E2B6E41
:101910003650D8A48EEF0CF090EF0CF092EF0CF054
:10192000000E346E36A097EF0CF099EF0CF09CEFA0
:101930000CF02A8E9DEF0CF02A9ED89036302B6E3C
:1019400034AEA5EF0CF0A7EF0CF0A8EF0CF02B8E47
:1019500028C028F029C029F02AC02AF02BC02BF07B
:10196000120000017151800B7A6F71517125806FE7
:1019700070AFBDEF0CF0BFEF0CF0C0EF0CF080814A
:101980008051D8B4C6EF0CF0C8EF0CF0DBEF0CF0D0
:101990008029D8A4CEEF0CF0D0EF0CF0D8EF0CF0EB
:1019A000000E6E6F000E6F6F000E706F000E716F85
:1019B000708FE3EF0CF0000E6E6F000E6F6F000E75
:1019C000706F000E716F7551800B7A1B7551752504
:1019D0007F6F74AFEEEF0CF0F0EF0CF0F1EF0CF066
:1019E0007F817F51D8B4F7EF0CF0F9EF0CF00CEFDA
:1019F0000DF07F29D8A4FFEF0CF001EF0DF009EFF7
:101A00000DF0000E726F000E736F000E746F000EFB
:101A1000756F748F14EF0DF0000E726F000E736F00
:101A2000000E746F000E756F7F51D8B41AEF0DF071
:101A30001CEF0DF024EF0DF08051D8A422EF0DF033
:101A400024EF0DF02EEF0DF0000E6E6F000E6F6F95
:101A5000000E706F000E716FC6EF0EF074516E03C2
:101A6000F3CF85F0F4CF86F085517B6F7C6B7D6B77
:101A70007E6B8651816F826B836B846B73516F03B6
:101A8000F3CF85F0F4CF86F085517B27000E7C23C1
:101A90007D237E2386518127000E82238323842386
:101AA00072517003F3CF85F0F4CF86F085517B2718
:101AB000000E7C237D237E2386518127000E822306
:101AC000832384237DC07EF07CC07DF07BC07CF0CE
:101AD0007B6B72516F03F3CF85F0F4CF86F08551A5
:101AE0007B2786517C23000E7D23000E7E237351BD
:101AF0006E03F3CF85F0F4CF86F085517B278651B6
:101B00007C23000E7D23000E7E237DC07EF07CC0F2
:101B10007DF07BC07CF07B6B72516E03F3CF85F060
:101B2000F4CF86F085517B2786517C23000E7D23E0
:101B3000000E7E2374516F03F3CF85F0F4CF86F04F
:101B40008551812786518223000E8323000E842332
:101B500073517003F3CF85F0F4CF86F08551812760
:101B600086518223000E8323000E84237451700358
:101B7000F3CF85F0F4CF86F08551766F8651776F7D
:101B8000786B796B78C079F077C078F076C077F0B1
:101B9000766B76518127775182237851832379514F
:101BA00084237BC076F07CC077F07DC078F07EC067
:101BB00079F0190EE1EF0DF0D8907933783377335F
:101BC0007633E82EDCEF0DF07651812777518223B2
:101BD00078518323795184237DC07EF07CC07DF0D1
:101BE0007BC07CF07B6B7F5180C076F0776B762773
:101BF000000E7723820E7625856FFF0E7721866F84
:101C000017EF0EF0D89081378237833784377EAF55
:101C10000CEF0EF00EEF0EF00FEF0EF08181D8906A
:101C20007B377C377D377E378507D8A0860783AF23
:101C30001CEF0EF01EEF0EF002EF0EF0000E7F6FA5
:101C40007EAF25EF0EF027EF0EF04BEF0EF0FF0EFC
:101C50007B15766FFF0E7C15776FFF0E7D15786F05
:101C60007F0E7E15796F7651771178117911D8B47E
:101C70003CEF0EF03EEF0EF042EF0EF0010E7F6FE4
:101C80004BEF0EF081A147EF0EF049EF0EF04BEF56
:101C90000EF03EEF0EF07F51D8B451EF0EF053EF3F
:101CA0000EF077EF0EF0010E8127000E82238323C2
:101CB000842384A15EEF0EF060EF0EF077EF0EF05C
:101CC00081C076F082C077F083C078F084C079F06C
:101CD0007935793378337733763376C081F077C0CE
:101CE00082F078C083F079C084F0854B862B86BF64
:101CF00082EF0EF0865108E18529D8A082EF0EF020
:101D000084EF0EF08EEF0EF0000E816F000E826FEA
:101D1000800E836F7F0E846FBCEF0EF086BF9BEF4B
:101D20000EF0865106E18505D8B099EF0EF09BEFD5
:101D30000EF0A7EF0EF0000E816F000E826F000E06
:101D4000836F000E846F000E7A6FBCEF0EF085C0BB
:101D500080F0FF0E8117FF0E82177F0E8317000E93
:101D6000841780A1B6EF0EF0B8EF0EF0B9EF0EF0C9
:101D7000838FD8908031846F7A51841381C06EF044
:101D800082C06FF083C070F084C071F012001250F6
:101D9000800B1B6E12501224216E11AED2EF0EF08A
:101DA000D4EF0EF0D5EF0EF021802150D8B4DBEF48
:101DB0000EF0DDEF0EF0F0EF0EF02128D8A4E3EFE7
:101DC0000EF0E5EF0EF0EDEF0EF0000E0F6E000ED0
:101DD000106E000E116E000E126E118EF8EF0EF0E6
:101DE000000E0F6E000E106E000E116E000E126EC1
:101DF0001650800B1B1A16501624206E15AE03EFDA
:101E00000FF005EF0FF006EF0FF020802050D8B450
:101E10000CEF0FF00EEF0FF021EF0FF02028D8A4F9
:101E200014EF0FF016EF0FF01EEF0FF0000E136E11
:101E3000000E146E000E156E000E166E158E29EF34
:101E40000FF0000E136E000E146E000E156E000ED5
:101E5000166E2050D8B42FEF0FF031EF0FF039EF9E
:101E60000FF02150D8A437EF0FF039EF0FF043EF08
:101E70000FF0000E0F6E000E106E000E116E000EB1
:101E8000126EDBEF10F015500F02F3CF26F0F4CFF7
:101E900027F026501C6E1D6A1E6A1F6A2750226E8C
:101EA000236A246A256A14501002F3CF26F0F4CF77
:101EB00027F026501C26000E1D221E221F2227500E
:101EC0002226000E23222422252213501102F3CFB2
:101ED00026F0F4CF27F026501C26000E1D221E22CD
:101EE0001F2227502226000E2322242225221EC034
:101EF0001FF01DC01EF01CC01DF01C6A1350100204
:101F0000F3CF26F0F4CF27F026501C2627501D22B1
:101F1000000E1E22000E1F2214500F02F3CF26F0D7
:101F2000F4CF27F026501C2627501D22000E1E221B
:101F3000000E1F221EC01FF01DC01EF01CC01DF091
:101F40001C6A13500F02F3CF26F0F4CF27F026506F
:101F50001C2627501D22000E1E22000E1F22155087
:101F60001002F3CF26F0F4CF27F026502226275078
:101F70002322000E2422000E252214501102F3CF3A
:101F800026F0F4CF27F02650222627502322000ED9
:101F90002422000E252215501102F3CF26F0F4CF93
:101FA00027F02650176E2750186E196A1A6A19C042
:101FB0001AF018C019F017C018F0176A1750222627
:101FC00018502322195024221A5025221CC017F021
:101FD0001DC018F01EC019F01FC01AF0190EF6EF40
:101FE0000FF0D8901A32193218321732E82EF1EF6A
:101FF0000FF01750222618502322195024221A506D
:1020000025221EC01FF01DC01EF01CC01DF01C6A42
:10201000205021C017F0186A1726000E1822820ED1
:102020001724266EFF0E1820276E2CEF10F0D89084
:1020300022362336243625361FAE21EF10F023EF4B
:1020400010F024EF10F02280D8901C361D361E367A
:102050001F362606D8A0270624AE31EF10F033EF46
:1020600010F017EF10F0000E206E1FAE3AEF10F0D8
:102070003CEF10F060EF10F0FF0E1C14176EFF0E17
:102080001D14186EFF0E1E14196E7F0E1F141A6E8B
:102090001750181019101A10D8B451EF10F053EF50
:1020A00010F057EF10F0010E206E60EF10F022A03C
:1020B0005CEF10F05EEF10F060EF10F053EF10F0F7
:1020C0002050D8B466EF10F068EF10F08CEF10F0ED
:1020D000010E2226000E23222422252225A073EFA2
:1020E00010F075EF10F08CEF10F022C017F023C045
:1020F00018F024C019F025C01AF01A341A32193217
:102100001832173217C022F018C023F019C024F07B
:102110001AC025F0264A272A27BE97EF10F027502D
:1021200008E12628D8A097EF10F099EF10F0A3EF60
:1021300010F0000E226E000E236E800E246E7F0EB5
:10214000256ED1EF10F027BEB0EF10F0275006E15A
:102150002604D8B0AEEF10F0B0EF10F0BCEF10F0E6
:10216000000E226E000E236E000E246E000E256EF1
:10217000000E1B6ED1EF10F026C021F0FF0E2216CC
:10218000FF0E23167F0E2416000E251621A0CBEF7E
:1021900010F0CDEF10F0CEEF10F0248ED89021305B
:1021A000256E1B50251222C00FF023C010F024C052
:1021B00011F025C012F012008C805DEF12F06CC09F
:1021C00060F06DC061F0000E636F0A0E626F14EC78
:1021D0001CF000016051766F7651300F22EC1DF03B
:1021E0007FEF12F0000E636F640E626F6CC060F0E0
:1021F0006DC061F014EC1CF060C065F061C066F069
:10220000000E0001686F0A0E676FD9EC1BF0000129
:102210006551756F6CC060F06DC061F0000E636F4A
:102220000A0E626F14EC1CF000016051766F75515C
:10223000300F22EC1DF000017651300F22EC1DF022
:102240007FEF12F0030E636FE80E626F6CC060F0F8
:102250006DC061F014EC1CF060C065F061C066F008
:10226000000E0001686F640E676FD9EC1BF065C04B
:1022700073F066C074F0000E0001636F640E626F4D
:102280006CC060F06DC061F014EC1CF060C065F0D3
:1022900061C066F0000E0001686F0A0E676FD9EC2E
:1022A0001BF000016551756F6CC060F06DC061F08E
:1022B000000E636F0A0E626F14EC1CF00001605197
:1022C000766F7351300F22EC1DF000017551300F05
:1022D00022EC1DF000017651300F22EC1DF07FEF53
:1022E00012F0270E636F100E626F6CC060F06DC04D
:1022F00061F014EC1CF060C065F061C066F0030E84
:102300000001686FE80E676FD9EC1BF065C071F0D3
:1023100066C072F0030E0001636FE80E626F6CC05E
:1023200060F06DC061F014EC1CF060C065F061C03D
:1023300066F0000E0001686F640E676FD9EC1BF049
:1023400065C073F066C074F0000E0001636F640E28
:10235000626F6CC060F06DC061F014EC1CF060C086
:1023600065F061C066F0000E0001686F0A0E676FCD
:10237000D9EC1BF000016551756F6CC060F06DC049
:1023800061F0000E636F0A0E626F14EC1CF0000126
:102390006051766F7151300F22EC1DF000017351C6
:1023A000300F22EC1DF000017551300F22EC1DF0B2
:1023B00000017651300F22EC1DF07FEF12F06CC05F
:1023C00065F06DC066F0270E686F100E676FD9EC70
:1023D0001BF000016551300F22EC1DF0270E0001AB
:1023E000636F100E626F6CC060F06DC061F014EC32
:1023F0001CF060C065F061C066F0030E0001686FFC
:10240000E80E676FD9EC1BF065C071F066C072F022
:10241000030E0001636FE80E626F6CC060F06DC068
:1024200061F014EC1CF060C065F061C066F0000E55
:102430000001686F640E676FD9EC1BF065C073F024
:1024400066C074F0000E0001636F640E626F6CC0B2
:1024500060F06DC061F014EC1CF060C065F061C00C
:1024600066F0000E0001686F0A0E676FD9EC1BF072
:1024700000016551756F6CC060F06DC061F0000EB9
:10248000636F0A0E626F14EC1CF000016051766FEE
:102490007151300F22EC1DF000017351300F22EC0E
:1024A0001DF000017551300F22EC1DF00001765136
:1024B000300F22EC1DF07FEF12F000016E516F6FB4
:1024C000706B7051000AD8B468EF12F07FEF12F011
:1024D0006F51010AD8B4DFEF10F0030AD8B4F2EF5D
:1024E00010F0010AD8B422EF11F0070AD8B471EF46
:1024F00011F0010AD8B4DFEF11F07FEF12F01200F3
:10250000800E2FEC1DF00D0E0001666F080E676F38
:10251000A4EC1CF056505710D8A491EF12F093EF92
:1025200012F0A5EF12F01F0E22EC1DF0020E0001BA
:102530006E6FAB51B0EC15F0130E0001666F080E14
:10254000676FA4EC1CF0E2EF13F056045710D8A408
:10255000ACEF12F0AEEF12F018EF13F0000E000126
:102560008B6F000E8C6F000E8D6F420E8E6F660E9D
:10257000726F660E736FE60E746F3F0E756FAB5120
:10258000606F616B626B636B010EFAEC13F060C0FD
:102590006EF061C06FF062C070F063C071F0B1ECBA
:1025A0000CF06EC087F06FC088F070C089F071C009
:1025B0008AF0F0EC07F087C097F088C098F089C0E7
:1025C00099F08AC09AF00EEC17F0000197C0A1F0C4
:1025D00098C0A2F099C0A3F09AC0A4F0A56BA4BFC4
:1025E000A569A5C0A6F0A5C0A7F0A5C0A8F0A1C088
:1025F0004EF0A2C04FF0A3C050F0A4C051F0A5C04F
:1026000052F0A6C053F0A7C054F0A8C055F04EC079
:102610006CF04FC06DF0030E6E6FDCEC10F0160E18
:102620000001666F080E676FA4EC1CF0E2EF13F078
:10263000020E56185710D8A420EF13F022EF13F013
:102640007AEF13F0330E00018B6F930E8C6F880EB0
:102650008D6F430E8E6FAB51606F616B626B636BFE
:10266000010EFAEC13F060C087F061C088F062C020
:1026700089F063C08AF0F0EC07F087C097F088C05B
:1026800098F089C099F08AC09AF00EEC17F000011A
:1026900097C0A1F098C0A2F099C0A3F09AC0A4F08E
:1026A000A56BA4BFA569A5C0A6F0A5C0A7F0A5C04D
:1026B000A8F0A1C04EF0A2C04FF0A3C050F0A4C03B
:1026C00051F0A5C052F0A6C053F0A7C054F0A8C066
:1026D00055F04EC06CF04FC06DF0030E6E6FDCEC29
:1026E00010F0190E0001666F080E676FA4EC1CF065
:1026F000E2EF13F0C30E00018B6FD50E8C6FF50E59
:102700008D6F430E8E6F660E726F660E736FE60EE0
:10271000746F3F0E756FAB51606F616B626B636B73
:10272000010EFAEC13F060C06EF061C06FF062C091
:1027300070F063C071F0B1EC0CF06EC087F06FC048
:1027400088F070C089F071C08AF0F0EC07F087C0A3
:1027500097F088C098F089C099F08AC09AF00EEC82
:1027600017F0000197C0A1F098C0A2F099C0A3F0A3
:102770009AC0A4F0A56BA4BFA569A5C0A6F0A5C08A
:10278000A7F0A5C0A8F0A1C04EF0A2C04FF0A3C012
:1027900050F0A4C051F0A5C052F0A6C053F0A7C09D
:1027A00054F0A8C055F04EC06CF04FC06DF0030E51
:1027B0006E6FDCEC10F01C0E0001666F080E676F88
:1027C000A4EC1CF0C00E2FEC1DF0070E0001666F8C
:1027D000080E676FA4EC1CF0020E00016E6F5C50D7
:1027E000B0EC15F0210E0001666F080E676FA4ECC7
:1027F0001CF012000001686F00016851D8B403EFAB
:1028000014F005EF14F027EF14F063BF0CEF14F091
:102810000AEF14F027EF14F060C064F061C065F0B7
:1028200062C066F063C067F0641F651F661F671FA4
:10283000642B000E65236623672364C06AF065C0BD
:102840006BF066C06CF067C06DF02FEF14F060C0E5
:102850006AF061C06BF062C06CF063C06DF06051F3
:10286000611162116311D8A438EF14F03AEF14F03B
:1028700044EF14F0000E606F000E616F000E626F87
:10288000000E636FD5EF14F0960E696F4EEF14F0E3
:10289000692BD8906D336C336B336A33000E6A1535
:1028A000646F000E6B15656F000E6C15666FFE0E83
:1028B0006D15676F6451651166116711D8A463EFD8
:1028C00014F065EF14F048EF14F073EF14F0692B77
:1028D000010E6A27000E6B236C236D23D8906D3395
:1028E0006C336B336A33000E6A15646F000E6B1520
:1028F000656F000E6C15666FFF0E6D15676F645186
:10290000651166116711D8A488EF14F08AEF14F0EE
:1029100067EF14F092EF14F06907D8906A376B37BD
:102920006C376D376CBF97EF14F099EF14F0A1EF8F
:1029300014F0020E69619FEF14F0A1EF14F08CEF18
:1029400014F069B1A6EF14F0A8EF14F0A9EF14F099
:102950006C9FD890693369C064F0656B666B676B78
:1029600064C067F0666B656B646B64516A13655194
:102970006B1366516C1367516D136851D8B4C3EF74
:1029800014F0C5EF14F0CDEF14F063BFCCEF14F0EA
:10299000CAEF14F0CDEF14F06D8F6AC060F06BC019
:1029A00061F06CC062F06DC063F01200096E0950F6
:1029B000D8B4DDEF14F0DFEF14F001EF15F004BE32
:1029C000E6EF14F0E4EF14F001EF15F001C005F0AC
:1029D00002C006F003C007F004C008F0051E061E82
:1029E000071E081E052A000E06220722082205C01F
:1029F0000BF006C00CF007C00DF008C00EF009EF98
:102A000015F001C00BF002C00CF003C00DF004C0C3
:102A10000EF00150021003100410D8A412EF15F0AC
:102A200014EF15F01EEF15F0000E016E000E026E91
:102A3000000E036E000E046EAFEF15F0960E0A6ED8
:102A400028EF15F00A2AD8900E320D320C320B32D4
:102A5000000E0B14056E000E0C14066E000E0D1405
:102A6000076EFE0E0E14086E0550061007100810B3
:102A7000D8A43DEF15F03FEF15F022EF15F04DEF24
:102A800015F00A2A010E0B26000E0C220D220E2232
:102A9000D8900E320D320C320B32000E0B14056E34
:102AA000000E0C14066E000E0D14076EFF0E0E14B1
:102AB000086E0550061007100810D8A462EF15F034
:102AC00064EF15F041EF15F06CEF15F00A06D890A1
:102AD0000B360C360D360E360DBE71EF15F073EF5A
:102AE00015F07BEF15F0020E0A6079EF15F07BEF21
:102AF00015F066EF15F00AB080EF15F082EF15F0D3
:102B000083EF15F00D9ED8900A320AC005F0066AD0
:102B1000076A086A05C008F0076A066A056A055070
:102B20000B1206500C1207500D1208500E120950CD
:102B3000D8B49DEF15F09FEF15F0A7EF15F004BE88
:102B4000A6EF15F0A4EF15F0A7EF15F00E8E0BC051
:102B500001F00CC002F00DC003F00EC004F0120032
:102B60000001746F8C8052EF16F074C060F0616BDE
:102B7000000E636F0A0E626F9CEC1AF00001605148
:102B8000736F7351300F47EC1CF051EC1DF0040EC5
:102B90004DEC1BF06CEF16F0000E636F640E626F6D
:102BA00074C060F0616B9CEC1AF060C066F061C0AC
:102BB00067F0000E0001696F0A0E686FD7EC19F01C
:102BC00000016651726F74C060F0616B000E636F3C
:102BD0000A0E626F9CEC1AF000016051736F725123
:102BE000300F47EC1CF051EC1DF0040E4DEC1BF0C7
:102BF00000017351300F47EC1CF051EC1DF0040E36
:102C00004DEC1BF06CEF16F074C066F0676B000EB5
:102C1000696F640E686FD7EC19F000016651716F2F
:102C2000000E636F640E626F74C060F0616B9CECA9
:102C30001AF060C066F061C067F0000E0001696FB5
:102C40000A0E686FD7EC19F000016651726F74C0FC
:102C500060F0616B000E636F0A0E626F9CEC1AF0FD
:102C600000016051736F7151300F47EC1CF051EC53
:102C70001DF0040E4DEC1BF000017251300F47ECBB
:102C80001CF051EC1DF0040E4DEC1BF000017351D3
:102C9000300F47EC1CF051EC1DF0040E4DEC1BF016
:102CA0006CEF16F000016E516F6F706B7051000A7F
:102CB000D8B45DEF16F06CEF16F06F51010AD8B47E
:102CC000B5EF15F0030AD8B4CCEF15F0010AD8B46B
:102CD00004EF16F06CEF16F01200010EC26E0E0E2D
:102CE000C16E890EC06E000E8D6E000E966E000EC7
:102CF000896E000E926E700ED36EF19E000E956E70
:102D0000000E8C6E0B0E0001AA6F260EA96F5D0ED1
:102D1000E82EFED7A92FFCD7AA2FFAD700D0040E91
:102D2000DCEC1CF007EC19F0010E0001666F080ED8
:102D3000676FA4EC1CF047EC1DF0200EAC6E900EFB
:102D4000AB6E000EB86E0C0EAF6E840ED56E0B0E11
:102D5000D76EDC0ED66EF294F28A9F8A9E9A9D8A76
:102D6000F28E80EC12F0140E0001AB61BAEF16F097
:102D7000BCEF16F0C0EF16F0000E8D6EB1EF16F03E
:102D8000170EAB61C6EF16F0C8EF16F0CCEF16F0D9
:102D9000050E8D6EB1EF16F01A0EAB61D2EF16F084
:102DA000D4EF16F0D8EF16F0010E8D6EB1EF16F0DD
:102DB0001D0EAB61DEEF16F0E0EF16F0E4EF16F05B
:102DC000030E8D6EB1EF16F0200EAB61EAEF16F038
:102DD000ECEF16F0F0EF16F0020E8D6EB1EF16F07C
:102DE000230EAB61F6EF16F0F8EF16F0FCEF16F0DD
:102DF000060E8D6EB1EF16F0260EAB6102EF17F0E6
:102E000004EF17F008EF17F0040E8D6EB1EF16F017
:102E1000070E8D6EB1EF16F007EF00F00001993547
:102E20009A35A06FA051D8A418EF17F01AEF17F039
:102E300024EF17F0000E976F000E986F000E996F39
:102E4000000E9A6F91EF17F097C09BF098C09CF01E
:102E500099C09DF09AC09EF0200E34EF17F0D890E4
:102E60009E339D339C339B33E82E2FEF17F09B51FD
:102E70009F6F998FFF0E9717FF0E9817FF0E9917E8
:102E8000000E9A17960EA05FA0BF4BEF17F049EF08
:102E900017F061EF17F0A051800A970FD8B053EFE9
:102EA00017F055EF17F057EF17F01AEF17F0D8900B
:102EB0009A33993398339733A03F57EF17F079EF50
:102EC00017F01F0EA06567EF17F069EF17F071EFAD
:102ED00017F01AEF17F0D8909737983799379A3735
:102EE000A007A051D8A477EF17F079EF17F06BEF98
:102EF00017F09F51D8B47FEF17F081EF17F089EFEB
:102F000017F09A1F991F981F976D000E9823992309
:102F10009A2397C097F098C098F099C099F09AC0FA
:102F20009AF012003A343B34416E4150D8A49BEFE2
:102F300017F09DEF17F0A7EF17F0000E386E000E98
:102F4000396E000E3A6E000E3B6E14EF18F038C06A
:102F50003CF039C03DF03AC03EF03BC03FF0200E9F
:102F6000B7EF17F0D8903F323E323D323C32E82E78
:102F7000B2EF17F03C50406E3A8EFF0E3816FF0E3F
:102F80003916FF0E3A16000E3B16960E415E41BEF4
:102F9000CEEF17F0CCEF17F0E4EF17F04150800AB6
:102FA000970FD8B0D6EF17F0D8EF17F0DAEF17F089
:102FB0009DEF17F0D8903B323A3239323832413EE9
:102FC000DAEF17F0FCEF17F01F0E4164EAEF17F08D
:102FD000ECEF17F0F4EF17F09DEF17F0D8903836BC
:102FE00039363A363B3641064150D8A4FAEF17F04D
:102FF000FCEF17F0EEEF17F04050D8B402EF18F0E6
:1030000004EF18F00CEF18F03B1E3A1E391E386C16
:10301000000E39223A223B2238C038F039C039F04C
:103020003AC03AF03BC03BF012000600D9CF4AF05C
:10303000DACF4BF0F3CF4CF0F4CF4DF09EAA23EF54
:1030400018F025EF18F05CEF18F0AECF5AF0430EF1
:103050005A18D8A42EEF18F030EF18F034EF18F00B
:10306000000E576E000E566E460E5A18D8A43BEF4F
:1030700018F03DEF18F041EF18F0000E576E010EFA
:10308000566E4B0E5A18D8A448EF18F04AEF18F0B5
:103090004EEF18F0000E576E020E566E520E5A1872
:1030A000D8A455EF18F057EF18F05BEF18F0000EAA
:1030B000576E030E566E9E9AF2A461EF18F063EFFE
:1030C00018F085EF18F0F2948CA469EF18F06CEF0B
:1030D00018F08C846DEF18F08C9499EC1BF0000EB6
:1030E000F4EC1CF0020E025CD8B079EF18F07BEF24
:1030F00018F07EEF18F08C967FEF18F08C860B0E90
:10310000D76EDC0ED66E12EC04F04DC0F4FF4CC04E
:10311000F3FF4BC0DAFF4AC0D9FF5E92110020EEE8
:1031200022F0070EDE6AE806FDE21A501B101C10A2
:103130001D101E101F1020102110D8B4A2EF18F07F
:10314000A4EF18F0F6EF18F0010E2A6EB2EF18F0A7
:10315000D8901A361B361C361D361E361F362036C2
:1031600021362A2A21AEB7EF18F0B9EF18F0A8EFF0
:1031700018F0D890223623362436253626362736C0
:10318000283629361A50125C1B5013581C501458FC
:103190001D5015581E5016581F50175820501858BB
:1031A00021501958D8A0D7EF18F0D9EF18F0EAEF4E
:1031B00018F01A50125E1B50135A1C50145A1D500E
:1031C000155A1E50165A1F50175A2050185A21507F
:1031D000195A2280D890213220321F321E321D32DD
:1031E0001C321B321A322A2EB9EF18F022C012F00C
:1031F00023C013F024C014F025C015F026C016F02B
:1032000027C017F028C018F029C019F012008C90C0
:10321000040E5D18D8A40FEF19F011EF19F017EF95
:1032200019F08C500F0B30098C6E19EF19F03F0E0E
:103230008C6E51EC1DF0010E4DEC1BF0040E5D1870
:10324000D8A425EF19F027EF19F02DEF19F08C50C5
:103250000F0B30098C6E2FEF19F03F0E8C6E51EC76
:103260001DF0030E4DEC1BF0040E5D18D8A43BEFCF
:1032700019F03DEF19F043EF19F08C500F0B3009A6
:103280008C6E45EF19F03F0E8C6E51EC1DF0040E64
:103290004DEC1BF0040E5D18D8A451EF19F053EF5C
:1032A00019F064EF19F08C500F0B20098C6E51EC63
:1032B0001DF0040E4DEC1BF02F0E47EC1CF051ECF2
:1032C0001DF0040E4DEC1BF047EC1DF00F0E47EC0B
:1032D0001CF051EC1DF0040E4DEC1BF012000950D7
:1032E0000A100B100C100D100E100F101010D8B487
:1032F0007CEF19F07EEF19F0C6EF19F0010E116E98
:103300008CEF19F0D89009360A360B360C360D368C
:103310000E360F361036112A10AE91EF19F093EFDA
:1033200019F082EF19F00950015C0A5002580B5055
:1033300003580C5004580D5005580E5006580F50A5
:10334000075810500858D8A0A8EF19F0AAEF19F0A4
:10335000BAEF19F00950015E0A50025A0B50035A95
:103360000C50045A0D50055A0E50065A0F50075A69
:103370001050085AD89010320F320E320D320C32E3
:103380000B320A320932112E93EF19F001C001F00D
:1033900002C002F003C003F004C004F005C005F051
:1033A00006C006F007C007F008C008F01200000EC3
:1033B00000016B6F69BFE1EF19F0DFEF19F0E7EF84
:1033C00019F0686D691FD8B0692B010E6B6F67BF6C
:1033D000EEEF19F0ECEF19F0F4EF19F0666D671FDE
:1033E000D8B0672B010E6B1B000E6D6F000E6C6F5B
:1033F00068516911D8B4FFEF19F001EF1AF029EF05
:103400001AF0010E6A6F09EF1AF0D8906837693721
:103410006A2B69AF0EEF1AF010EF1AF005EF1AF0F1
:10342000D8906C376D376851665D69516759D8A07F
:103430001CEF1AF01EEF1AF023EF1AF06851665FC6
:103440006951675B6C81D890693368336A2F10EFDC
:103450001AF06B51D8B42FEF1AF031EF1AF035EFA4
:103460001AF06C6D6D1FD8B06D2B6CC066F06DC01E
:1034700067F01200000E066E04BE43EF1AF041EF33
:103480001AF049EF1AF0036C041ED8B0042A010E9A
:10349000066E02BE50EF1AF04EEF1AF056EF1AF019
:1034A000016C021ED8B0022A010E061A000E086E28
:1034B000000E076E03500410D8B461EF1AF063EFEA
:1034C0001AF08BEF1AF0010E056E6BEF1AF0D89020
:1034D00003360436052A04AE70EF1AF072EF1AF0C4
:1034E00067EF1AF0D890073608360350015C045095
:1034F0000258D8A07EEF1AF080EF1AF085EF1AF08C
:103500000350015E0450025A0780D89004320332FF
:10351000052E72EF1AF00650D8B491EF1AF093EF1F
:103520001AF097EF1AF0076C081ED8B0082A07C0E7
:1035300001F008C002F01200000E0001656F61BFCB
:10354000A6EF1AF0A4EF1AF0ACEF1AF0606D611F4D
:10355000D8B0612B010E656F63BFB3EF1AF0B1EF06
:103560001AF0B7EF1AF0626D631FD8B0632B625187
:103570006311D8B4BEEF1AF0C0EF1AF0E4EF1AF0FE
:10358000010E646FC8EF1AF0D89062376337642B6E
:1035900063AFCDEF1AF0CFEF1AF0C4EF1AF062511B
:1035A000605D63516159D8A0D8EF1AF0DAEF1AF0D4
:1035B000DEEF1AF06251605F6351615BD890633354
:1035C0006233642FCFEF1AF06551D8B4EAEF1AF0E6
:1035D000ECEF1AF0F0EF1AF0606D611FD8B0612BBC
:1035E00060C060F061C061F01200000E066E02BEA5
:1035F000FEEF1AF0FCEF1AF004EF1BF0016C021E54
:10360000D8B0022A010E066E04BE0BEF1BF009EFC4
:103610001BF00FEF1BF0036C041ED8B0042A0350FC
:103620000410D8B416EF1BF018EF1BF03CEF1BF0A2
:10363000010E056E20EF1BF0D89003360436052AE4
:1036400004AE25EF1BF027EF1BF01CEF1BF003501F
:10365000015C04500258D8A030EF1BF032EF1BF091
:1036600036EF1BF00350015E0450025AD89004322A
:103670000332052E27EF1BF00650D8B442EF1BF0A3
:1036800044EF1BF048EF1BF0016C021ED8B0022A79
:1036900001C001F002C002F012000001626F7AEF77
:1036A0001BF0270E0001606FF50EE82EFED7602F8D
:1036B000FCD798EF1BF0030E0001606F970EE82E09
:1036C000FED7602FFCD700D0B60E00D000D0E82E79
:1036D000FCD700D000D000D098EF1BF0420EE82EAF
:1036E000FED700D098EF1BF01A0EE82EFED700D0C0
:1036F00098EF1BF000016251606F616B6151000A2D
:10370000D8B485EF1BF098EF1BF06051010AD8B4D4
:1037100051EF1BF0030AD8B45BEF1BF0010AD8B4D9
:103720006EEF1BF0070AD8B474EF1BF098EF1BF094
:103730001200000E066E94942F0E056EC00EE82E39
:10374000FED7052EFCD7948482B4A9EF1BF0ABEF13
:103750001BF0A4EF1BF01A0EE82EFED700D082B4A7
:10376000B4EF1BF0B6EF1BF0B7EF1BF0062A350ED7
:10377000E82EFED700F082A4C0EF1BF0C2EF1BF0D2
:10378000C3EF1BF0062A82B4C8EF1BF0CAEF1BF090
:10379000C3EF1BF00CEC1DF05C6E0CEC1DF00CECA0
:1037A0001DF00001AB6F0CEC1DF00CEC1DF05B6E1E
:1037B0001200000E00016A6F000E696F67516811F8
:1037C000D8B4E5EF1BF0E7EF1BF00FEF1CF0010E94
:1037D0006B6FEFEF1BF0D890673768376B2B68AFD4
:1037E000F4EF1BF0F6EF1BF0EBEF1BF0D89069370E
:1037F0006A376751655D68516659D8A002EF1CF0C1
:1038000004EF1CF009EF1CF06751655F6851665BBF
:103810006981D890683367336B2FF6EF1BF069C06E
:1038200065F06AC066F01200000162516311D8B4FD
:103830001CEF1CF01EEF1CF042EF1CF0010E646F39
:1038400026EF1CF0D89062376337642B63AF2BEF01
:103850001CF02DEF1CF022EF1CF06251605D6351F3
:103860006159D8A036EF1CF038EF1CF03CEF1CF08B
:103870006251605F6351615BD89063336233642F40
:103880002DEF1CF060C060F061C061F0120000011B
:10389000646F040E5D18D8A450EF1CF052EF1CF0BA
:1038A0006CEF1CF064C063F0F00E000163178C50E5
:1038B0000F0B63118C6E51EC1DF0010E4DEC1BF0E3
:1038C00064C063F00001633BF00E63178C500F0B74
:1038D00063118C6E77EF1CF0080E5D18D8A473EF9F
:1038E0001CF075EF1CF077EF1CF064C08CFF120029
:1038F000000E016E82A47FEF1CF081EF1CF07AEFC6
:103900001CF0080EE82EFED700D082A48AEF1CF02F
:103910008CEF1CF08EEF1CF0000E016E0E0EE82EE8
:10392000FED700D082A497EF1CF099EF1CF0A2EF15
:103930001CF0010E016E82B4A0EF1CF0A2EF1CF08F
:103940009BEF1CF00150120066C068F067C069F080
:10395000B5EF1CF068C0F6FF69C0F7FF0800F5502E
:1039600022EC1DF00001684B692B68C0F6FF69C0AE
:10397000F7FF0800F5500009D8A4C1EF1CF0C3EF11
:103980001CF0AAEF1CF01200B00EF66E3A0EF76EA5
:10399000000EF86E0900F5CF5DF00001AB6B00EE94
:1039A0004EF00F0EEE6AE806FDE15E905E92000EAC
:1039B000F86E00016DEF16F00001606F040E00015B
:1039C0006019D8B4E6EF1CF0E8EF1CF0F1EF1CF042
:1039D000080E6019D8A4EFEF1CF0F1EF1CF0F3EF24
:1039E0001CF060C05DF01200046E04C003F0D890BB
:1039F0000336D8900336C250030B0310C26EC28246
:103A0000C2B205EF1DF007EF1DF000EF1DF0C3CFB0
:103A100001F0C4CF02F01200000E036E080E046E17
:103A200078EC1CF0026E035003240210036E0406AF
:103A30000450D8A41EEF1DF020EF1DF010EF1DF074
:103A4000035012000001656F8C800001655147EC46
:103A50001CF051EC1DF0040E4DEC1BF012000001A7
:103A6000656F8C900001655147EC1CF051EC1DF026
:103A7000040E4DEC1BF01200016EACA242EF1DF0E3
:103A800044EF1DF03DEF1DF001C0ADFF12008C9022
:103A9000010E47EC1CF051EC1DF0020E4DEC1BF03A
:103AA00012008C821A0EE82EFED700D08C921200E3
:013AB000080D
:020000040020DA
:08000000FFFFFFFFFFFFFFFF00
:020000040030CA
:0E00000000091F1EFF8181FF0FC00FE00F409F
:00000001FF
