:020000040000FA
:0400000007EF00F016
:0A0008005882F5ED2EF0D7EF3CF022
:100800000000000000DCCFD1350000000000C01562
:100810003F6042A20D70A5EC363BAAB83F4F387638
:100820003F3CAA38338CBEBF350072313F1872315D
:100830003F4CBB31330EEADDB555B38A38610B3618
:10084000BBABAA2A3E42F1533E55326C3E05A38B08
:100850003EABAAAA3EB76DDB3E9A99193F6042A211
:100860000DCAF249710000804B0000803F0000C0BB
:100870003F00AAB83FC623F6B80040763F52206535
:100880006E65726769610052204D434C52004C61A5
:0F08900062203400494E44454600494E46000060
:1008A00084C0B8F185C0B9F186C0BAF187C0BBF188
:1008B000B8C160F1B9C161F1BAC162F1BBC163F104
:1008C00088C0B8F189C0B9F18AC0BAF18BC0BBF158
:1008D000B8C17CF1B9C17DF1BAC17EF1BBC17FF174
:1008E000FF0E01016015A86FFF0E6115A96FFF0EC5
:1008F0006215AA6F7F0E6315AB6FFF0E7C15906FAC
:10090000FF0E7D15916FFF0E7E15926F7F0E7F1586
:10091000936F9051911192119311D8A492EF04F01A
:1009200094EF04F09FEF04F0000E0001846F000EBE
:10093000856F800E866F3F0E876FCBEF18F0800EAD
:10094000621909E13F0E631960116111D8A4ABEF80
:1009500004F0ADEF04F0B8EF04F0000E0001846F76
:10096000000E856F800E866F3F0E876FCBEF18F0FD
:10097000ABBFC9EF04F0A805000EA959800EAA5913
:100980007F0EAB59D8B0C7EF04F0C9EF04F0DAEF2F
:1009900004F093BFD8EF04F09005000E9159800E3B
:1009A00092597F0E9359D8A0D8EF04F0DAEF04F0F3
:1009B000F6EF04F084C001F085C002F086C003F0B9
:1009C00087C004F088C005F089C006F08AC007F02F
:1009D0008BC008F095EC2CF001C084F002C085F0CB
:1009E00003C086F004C087F0CBEF18F0000E506F04
:1009F000000E516F000E526F000E536F63BF05EF74
:100A000005F003EF05F0B0EF05F093BF11EF05F02F
:100A1000800E925D4B0E9359D8A011EF05F013EFA5
:100A200005F01DEF05F0020E506F000E516F000E25
:100A3000526F000E536FB0EF05F093BF29EF05F032
:100A4000800E925D3F0E9359D8A029EF05F02BEF51
:100A500005F0B0EF05F0170E4F6E90C150F091C148
:100A600051F092C152F093C153F04F663AEF05F046
:100A700042EF05F0533453325232513250324F2E3E
:100A800035EF05F0810E50240101A06FFF0E5120BB
:100A9000A16FFF0E5220A26FFF0E5320A36FA05133
:100AA00017084F6E90C150F091C151F092C152F0B1
:100AB00093C153F04F665FEF05F067EF05F05334D5
:100AC00053325232513250324F2E5AEF05F050C04D
:100AD000ACF151C0ADF152C0AEF153C0AFF1010164
:100AE000A05117084F6EACC150F0ADC151F0AEC16E
:100AF00052F0AFC153F04F2A83EF05F0D890503633
:100B00005136523653364F2E7EEF05F09051501825
:100B10000DE1915151180AE19251521807E1935198
:100B20005318D8A496EF05F098EF05F0B0EF05F054
:100B3000010EAC154F6E000EAD15506E000EAE15C9
:100B4000516E000EAF15526E4F500208506F000EDE
:100B50005054516F000E5154526F000E5254536F47
:100B6000800E921909E17F0E931990119111D8A46A
:100B7000BCEF05F0BEEF05F02AEF06F0800EAA19D3
:100B800009E13F0EAB19A811A911D8A4CAEF05F0CD
:100B9000CCEF05F0D7EF05F0000E0001846F000EDA
:100BA000856F800E866F3F0E876FCBEF18F0ABBF5F
:100BB000E6EF05F0A805000EA959800EAA593F0ED0
:100BC000AB59D8A0E6EF05F0E8EF05F004EF06F02A
:100BD0007FBFEFEF05F0EDEF05F0FAEF05F0000E47
:100BE0000001846F000E856F000E866F000E876F08
:100BF000CBEF18F088C084F089C085F08AC086F0F9
:100C00008BC087F0CBEF18F07FBF0BEF06F009EF3A
:100C100006F01FEF06F088C001F089C002F08AC01C
:100C200003F08BC004F08EEC3DF001C084F002C0F4
:100C300085F003C086F004C087F0CBEF18F0000EFB
:100C40000001846F000E856F000E866F000E876FA7
:100C5000CBEF18F0800E921909E13F0E9319901115
:100C60009111D8A436EF06F038EF06F065EF06F0E4
:100C70007FBF3FEF06F03DEF06F05BEF06F0000EA2
:100C8000366E000E376E800E386E3F0E396E84C0A1
:100C90003AF085C03BF086C03CF087C03DF066EC82
:100CA00033F036C084F037C085F038C086F039C0E4
:100CB00087F0CBEF18F084C084F085C085F086C043
:100CC00086F087C087F0CBEF18F0400E7F197C11BB
:100CD0007D117E11D8A46FEF06F071EF06F08DEF55
:100CE00006F084C015F085C016F086C017F087C0E6
:100CF00018F084C019F085C01AF086C01BF087C0B8
:100D00001CF051EC31F015C084F016C085F017C00E
:100D100086F018C087F0CBEF18F03F0E7F197C11DA
:100D20007D117E11D8A497EF06F099EF06F0B4EF8D
:100D300006F063BF9EEF06F0A0EF06F0B4EF06F0FA
:100D400084C042F085C043F086C044F087C045F0BF
:100D500035EC2AF042C084F043C085F044C086F0F0
:100D600045C087F0CBEF18F084C001F085C002F0D9
:100D700086C003F087C004F0AAEC3DF001C070F11A
:100D800002C071F103C072F104C073F1800E010161
:100D9000AA190BE17F0EAB19A811A911D8B4D3EF92
:100DA00006F0D5EF06F0EEEF06F0A851A911AA1152
:100DB000AB11D8B4DEEF06F0E0EF06F0EEEF06F090
:100DC000800EAA1909E13F0EAB19A811A911D8A4E8
:100DD000ECEF06F0EEEF06F0AEEF07F070C1B4F105
:100DE00071C1B5F172C1B6F173C1B7F17FBFFDEF4B
:100DF00006F0FBEF06F017EF07F0000E366E000E60
:100E0000376E800E386E3F0E396EB4C13AF0B5C100
:100E10003BF0B6C13CF0B7C13DF066EC33F036C0F4
:100E2000B4F137C0B5F138C0B6F139C0B7F101013E
:100E300063BF1FEF07F01DEF07F0A4EF07F0000EF0
:100E4000A8254F6E000EA921506E800EAA21516E6A
:100E5000C00EAB21526E50514F10536E5151501075
:100E6000546E52515110556E53515210566E53508C
:100E7000541055105610D8A440EF07F042EF07F079
:100E800087EF07F0000E0001B86F210EB76FB4C1F5
:100E900032F0B5C133F0B6C134F0B7C135F0B4C1EA
:100EA0002EF0B5C12FF0B6C130F0B7C131F02CEC47
:100EB0003DF02EC036F02FC037F030C038F031C0D2
:100EC00039F0B4C132F0B5C133F0B6C134F0B7C1B6
:100ED00035F0B4C12EF0B5C12FF0B6C130F0B7C1B6
:100EE00031F02CEC3DF02EC03AF02FC03BF030C07A
:100EF0003CF031C03DF066EC33F036C0B4F137C0A1
:100F0000B5F138C0B6F139C0B7F1A4EF07F050051C
:100F1000511152115311D8A490EF07F092EF07F03E
:100F2000A4EF07F0B4C101F0B5C102F0B6C103F0FF
:100F3000B7C104F08EEC3DF001C0B4F102C0B5F1D0
:100F400003C0B6F104C0B7F1B4C184F0B5C185F0F7
:100F5000B6C186F0B7C187F0CBEF18F0000E846FF2
:100F6000000E856F800E866F3F0E876F63BFBDEFEB
:100F700007F0BBEF07F020EF08F05051511152116C
:100F80005311D8A4C6EF07F0C8EF07F00DEF08F033
:100F9000000E0001B86F210EB76F84C032F085C01B
:100FA00033F086C034F087C035F084C02EF085C0A1
:100FB0002FF086C030F087C031F02CEC3DF02EC011
:100FC00036F02FC037F030C038F031C039F084C06F
:100FD00032F085C033F086C034F087C035F084C06D
:100FE0002EF085C02FF086C030F087C031F02CEC99
:100FF0003DF02EC03AF02FC03BF030C03CF031C085
:101000003DF066EC33F036C084F037C085F038C070
:1010100086F039C087F0CBEF18F05005511152110E
:101020005311D8A416EF08F018EF08F020EF08F0DD
:10103000000E846F000E856F800E866FBF0E876F67
:1010400093BF2FEF08F09005000E9159000E9259B2
:101050004D0E9359D8A02FEF08F031EF08F0B6EFFE
:101060000AF0ABBF43EF08F0F80EA85DFF0EA959D8
:101070007F0EAA593F0EAB59D8B041EF08F043EFAD
:1010800008F0B6EF08F07FBF48EF08F04AEF08F02D
:1010900080EF08F0600E196E420E1A6EA20E1B6EE3
:1010A0000D0E1C6E84C115F085C116F086C117F0B7
:1010B00087C118F051EC31F015C0A4F116C0A5F1AC
:1010C00017C0A6F118C0A7F1A4C115F0A5C116F06C
:1010D000A6C117F0A7C118F0600E196E420E1A6E65
:1010E000A20E1B6E0D0E1C6E51EC31F015C084F07B
:1010F00016C085F017C086F018C087F0CBEF18F047
:10110000CA0E196EF20E1A6E490E1B6E710E1C6E0F
:1011100084C115F085C116F086C117F087C118F09B
:1011200051EC31F015C0A4F116C0A5F117C0A6F11D
:1011300018C0A7F1A4C115F0A5C116F0A6C117F0FB
:10114000A7C118F0CA0E196EF20E1A6E490E1B6E68
:10115000710E1C6E51EC31F015C084F016C085F094
:1011600017C086F018C087F0CBEF18F0ABBFC6EF02
:1011700008F0080EA85D000EA959800EAA593F0E6E
:10118000AB59D8A0C6EF08F0C8EF08F043EF09F05C
:101190007FBFD7EF08F07F517E117D1106E17C05FE
:1011A000D8B0D5EF08F0D7EF08F00DEF09F0600EDA
:1011B000196E420E1A6EA20E1B6E0D0E1C6E84C1AD
:1011C00015F085C116F086C117F087C118F051ECF3
:1011D00031F015C0A4F116C0A5F117C0A6F118C0D2
:1011E000A7F1A4C115F0A5C116F0A6C117F0A7C1BB
:1011F00018F0600E196E420E1A6EA20E1B6E0D0EC6
:101200001C6E51EC31F015C084F016C085F017C08B
:1012100086F018C087F0CBEF18F0CA0E196EF20EE8
:101220001A6E490E1B6E710E1C6E84C115F085C1BD
:1012300016F086C117F087C118F051EC31F015C0D7
:10124000A4F116C0A5F117C0A6F118C0A7F1A4C15A
:1012500015F0A5C116F0A6C117F0A7C118F0CA0E67
:10126000196EF20E1A6E490E1B6E710E1C6E51EC49
:1012700031F015C084F016C085F017C086F018C094
:1012800087F0CBEF18F070C101F071C102F072C1AC
:1012900003F073C104F0000E056E000E066E800EA2
:1012A000076EBF0E086E95EC2CF001C0B0F102C0C5
:1012B000B1F103C0B2F104C0B3F1000E196E000E1B
:1012C0001A6E800E1B6E3E0E1C6EB0C115F0B1C1C1
:1012D00016F0B2C117F0B3C118F051EC31F015C0DF
:1012E00032F016C033F017C034F018C035F0AB0E32
:1012F0002E6EAA0E2F6EAA0E306E3E0E316E2CECA4
:101300003DF02EC0A4F12FC0A5F130C0A6F131C030
:10131000A7F1B0C119F0B1C11AF0B2C11BF0B3C14D
:101320001CF0B0C115F0B1C116F0B2C117F0B3C1D5
:1013300018F051EC31F015C058F116C059F117C032
:101340005AF118C05BF1B0C119F0B1C11AF0B2C1C5
:101350001BF0B3C11CF0A4C115F0A5C116F0A6C1C5
:1013600017F0A7C118F051EC31F015C032F016C0DB
:1013700033F017C034F018C035F0000E2E6E000E9A
:101380002F6E000E306E3F0E316E2CEC3DF02EC0F5
:1013900048F12FC049F130C04AF131C04BF158C17A
:1013A00015F059C116F05AC117F05BC118F048C1C9
:1013B00019F049C11AF04AC11BF04BC11CF051ECA5
:1013C00031F015C044F116C045F117C046F118C000
:1013D00047F1B0C115F0B1C116F0B2C117F0B3C1F9
:1013E00018F0000E196EAA0E1A6EB80E1B6E3F0E84
:1013F0001C6E51EC31F015C074F116C075F117C0B8
:1014000076F118C077F1700E196EA50E1A6EEC0EFB
:101410001B6E360E1C6EB0C115F0B1C116F0B2C114
:1014200017F0B3C118F051EC31F015C02EF016C012
:101430002FF017C030F018C031F03B0E196EAA0E15
:101440001A6EB80E1B6E3F0E1C6E44C115F045C1DE
:1014500016F046C117F047C118F051EC31F015C035
:1014600032F016C033F017C034F018C035F02CEC51
:101470003DF02EC078F12FC079F130C07AF131C043
:101480007BF174C101F075C102F076C103F077C140
:1014900004F078C105F079C106F07AC107F07BC18C
:1014A00008F095EC2CF001C080F102C081F103C07E
:1014B00082F104C083F180C1B8F181C1B9F182C168
:1014C000BAF183C1BBF1B8C194F1B9C195F1BAC108
:1014D00096F1BBC197F1000E01019415B86FF00EA3
:1014E0009515B96FFF0E9615BA6FFF0E9715BB6F66
:1014F000B8C180F1B9C181F1BAC182F1BBC183F138
:1015000074C132F075C133F076C134F077C135F073
:1015100080C12EF081C12FF082C130F083C131F043
:101520002CEC3DF02EC098F12FC099F130C09AF10B
:1015300031C09BF178C12EF079C12FF07AC130F023
:101540007BC131F098C132F099C133F09AC134F0C7
:101550009BC135F02CEC3DF02EC01CF12FC01DF1CD
:1015600030C01EF131C01FF1FEEF11F0000E886F88
:10157000000E896F000E8A6F000E8B6FABBFCCEF31
:101580000AF0AB5107E1800EAA5DD8B0CAEF0AF0AD
:10159000CCEF0AF0FFEF0AF070C115F071C116F040
:1015A00072C117F073C118F0000E196E000E1A6E9A
:1015B000800E1B6E4B0E1C6E51EC31F015C070F19D
:1015C00016C071F117C072F118C073F1E80E010175
:1015D0008827FF0E8923FF0E8A23FF0E8B2370C1FD
:1015E000B8F171C1B9F172C1BAF173C1BBF1B8C13F
:1015F000A8F1B9C1A9F1BAC1AAF1BBC1ABF1170EEB
:101600004F6EA8C150F0A9C151F0AAC152F0ABC1B0
:1016100053F04F660EEF0BF016EF0BF053345332CE
:101620005232513250324F2E09EF0BF0810E5024BE
:10163000546EFF0E5120556EFF0E5220566EFF0E57
:101640005320576E54500101882755508923565016
:101650008A2357508B23FF0EA815AC6FFF0EA915D8
:10166000AD6F7F0EAA15AE6F000EAB15AF6F000EFB
:10167000AC11A86F000EAD11A96F800EAE11AA6F4C
:101680003F0EAF11AB6FAFBF55EF0BF0AF510BE19A
:10169000720EAC5DC40EAD591C0EAE59D8B053EFEE
:1016A0000BF055EF0BF05FEF0BF0000EA06F000E8C
:1016B000A16F000EA26F000EA36F91EF0BF0AFBFF2
:1016C00071EF0BF0AF510BE1D70EAC5DB30EAD591E
:1016D0005D0EAE59D8B06FEF0BF071EF0BF07BEFF2
:1016E0000BF0010EA06F000EA16F000EA26F000E96
:1016F000A36F91EF0BF0000EA06F000EA16F000E14
:10170000A26F000EA36F010E8827000E89238A2383
:101710008B23000EA827000EA923800EAA23FF0EFC
:10172000AB23A8C1B8F1A9C1B9F1AAC1BAF1ABC143
:10173000BBF1B8C170F1B9C171F1BAC172F1BBC1ED
:1017400073F170C12EF071C12FF072C130F073C10E
:1017500031F0A0C14FF0A1C150F0D8904F365036B3
:10176000D8904F365036690E4F24F66E080E502032
:10177000F76E0900F5CF32F00900F5CF33F009001C
:10178000F5CF34F00A00F5CF35F02CEC3DF02EC04B
:1017900074F12FC075F130C076F131C077F1000ED1
:1017A000366E000E376E800E386E3F0E396E70C189
:1017B00005F071C106F072C107F073C108F0A0C155
:1017C0004FF0A1C150F0D8904F365036D8904F36D8
:1017D0005036690E4F24F66E080E5020F76E090041
:1017E000F5CF01F00900F5CF02F00900F5CF03F0C5
:1017F0000A00F5CF04F095EC2CF001C03AF002C0DD
:101800003BF003C03CF004C03DF066EC33F036C062
:1018100078F137C079F138C07AF139C07BF174C101
:1018200015F075C116F076C117F077C118F078C1C0
:1018300019F079C11AF07AC11BF07BC11CF051EC90
:1018400031F015C054F116C055F117C056F118C04B
:1018500057F154C16CF155C16DF156C16EF157C1CC
:101860006FF16CC1B8F16DC1B9F16EC1BAF16FC160
:10187000BBF1B8C194F1B9C195F1BAC196F1BBC140
:1018800097F1000E01019415B86FF00E9515B96F20
:10189000FF0E9615BA6FFF0E9715BB6FB8C16CF1AE
:1018A000B9C16DF1BAC16EF1BBC16FF1A8C14FF002
:1018B000A9C150F0AAC151F0ABC152F0523452321A
:1018C000513250324F32000E4F14536EF00E5014FE
:1018D000546EFF0E5114556EFF0E5214566E000ECC
:1018E0005310946F000E5410956F000E5510966FA4
:1018F000200E5610976FA0C14FF0A1C150F0A2C1A9
:1019000051F0A3C152F0150ED8904F3650365136D3
:101910005236E82E84EF0CF094514F24536E9551BB
:101920005020546E96515120556E97515220566E4C
:10193000000E5324B86F000E5420B96F400E55208E
:10194000BA6F000E5620BB6FB8C168F1B9C169F11A
:10195000BAC16AF1BBC16BF1A0C14FF0A1C150F097
:10196000D8904F365036D8904F365036690E4F24A7
:10197000F66E080E5020F76E0900F5CF32F0090020
:10198000F5CF33F00900F5CF34F00A00F5CF35F08C
:1019900068C12EF069C12FF06AC130F06BC131F01F
:1019A0002CEC3DF02EC098F12FC099F130C09AF187
:1019B00031C09BF170C12EF071C12FF072C130F0B7
:1019C00073C131F098C132F099C133F09AC134F04B
:1019D0009BC135F02CEC3DF02EC034F12FC035F119
:1019E00030C036F131C037F168C119F069C11AF061
:1019F0006AC11BF06BC11CF06CC115F06DC116F013
:101A00006EC117F06FC118F051EC31F015C032F013
:101A100016C033F017C034F018C035F074C12EF082
:101A200075C12FF076C130F077C131F02CEC3DF06C
:101A30002EC098F12FC099F130C09AF131C09BF1BE
:101A400034C119F035C11AF036C11BF037C11CF092
:101A50006CC115F06DC116F06EC117F06FC118F0B2
:101A600051EC31F015C032F016C033F017C034F02D
:101A700018C035F098C12EF099C12FF09AC130F0FE
:101A80009BC131F02CEC3DF02EC058F12FC059F124
:101A900030C05AF131C05BF158C115F059C116F090
:101AA0005AC117F05BC118F078C119F079C11AF06A
:101AB0007AC11BF07BC11CF051EC31F015C030F144
:101AC00016C031F117C032F118C033F154C115F00E
:101AD00055C116F056C117F057C118F054C119F08E
:101AE00055C11AF056C11BF057C11CF051EC31F032
:101AF00015C08CF116C08DF117C08EF118C08FF192
:101B0000550E056E320E066E6C0E076E3E0E086E9A
:101B1000420E196EF10E1A6E530E1B6E3E0E1C6EA7
:101B20008CC115F08DC116F08EC117F08FC118F061
:101B300051EC31F015C001F016C002F017C003F0EF
:101B400018C004F095EC2CF001C0A4F102C0A5F17E
:101B500003C0A6F104C0A7F1050E056EA30E066E24
:101B60008B0E076E3E0E086E8CC119F08DC11AF0F7
:101B70008EC11BF08FC11CF0A4C115F0A5C116F0D9
:101B8000A6C117F0A7C118F051EC31F015C001F053
:101B900016C002F017C003F018C004F095EC2CF04A
:101BA00001C058F102C059F103C05AF104C05BF101
:101BB000AB0E056EAA0E066EAA0E076E3E0E086EDE
:101BC0008CC119F08DC11AF08EC11BF08FC11CF0B1
:101BD00058C115F059C116F05AC117F05BC118F081
:101BE00051EC31F015C001F016C002F017C003F03F
:101BF00018C004F095EC2CF001C048F102C049F186
:101C000003C04AF104C04BF1B70E056E6D0E066EAF
:101C1000DB0E076E3E0E086E8CC119F08DC11AF0F6
:101C20008EC11BF08FC11CF048C115F049C116F0E0
:101C30004AC117F04BC118F051EC31F015C001F05A
:101C400016C002F017C003F018C004F095EC2CF099
:101C500001C038F102C039F103C03AF104C03BF1D0
:101C60009A0E056E990E066E190E076E3F0E086EDF
:101C70008CC119F08DC11AF08EC11BF08FC11CF000
:101C800038C115F039C116F03AC117F03BC118F050
:101C900051EC31F015C001F016C002F017C003F08E
:101CA00018C004F095EC2CF001C000F102C001F165
:101CB00003C002F104C003F18CC119F08DC11AF008
:101CC0008EC11BF08FC11CF08CC115F08DC116F0B8
:101CD0008EC117F08FC118F051EC31F015C004F12E
:101CE00016C005F117C006F118C007F100C115F0C4
:101CF00001C116F002C117F003C118F004C119F0B8
:101D000005C11AF006C11BF007C11CF051EC31F0FF
:101D100015C04CF116C04DF117C04EF118C04FF16F
:101D200030C119F031C11AF032C11BF033C11CF0BF
:101D300054C105F055C106F056C107F057C108F06F
:101D40006CC101F06DC102F06EC103F06FC104F00F
:101D500095EC2CF001C015F002C016F003C017F08E
:101D600004C018F051EC31F015C05CF116C05DF103
:101D700017C05EF118C05FF14CC101F04DC102F017
:101D80004EC103F04FC104F05CC105F05DC106F027
:101D90005EC107F05FC108F095EC2CF001C04CF17A
:101DA00002C04DF103C04EF104C04FF16CC115F0FB
:101DB0006DC116F06EC117F06FC118F06CC119F04B
:101DC0006DC11AF06EC11BF06FC11CF051EC31F007
:101DD00015C08CF116C08DF117C08EF118C08FF1AF
:101DE000000E056E000E066E400E076E400E086E69
:101DF0008CC101F08DC102F08EC103F08FC104F0DF
:101E000095EC2CF001C05CF102C05DF103C05EF105
:101E100004C05FF15CC101F05DC102F05EC103F07E
:101E20005FC104F04CC105F04DC106F04EC107F092
:101E30004FC108F095EC2CF001C068F102C069F1C7
:101E400003C06AF104C06BF168C1B8F169C1B9F1AE
:101E50006AC1BAF16BC1BBF1B8C194F1B9C195F1D6
:101E6000BAC196F1BBC197F1000E01019415B86F8C
:101E7000F00E9515B96FFF0E9615BA6FFF0E9715F8
:101E8000BB6FB8C168F1B9C169F1BAC16AF1BBC130
:101E90006BF1000E056E000E066E400E076EC00E52
:101EA000086E68C101F069C102F06AC103F06BC13C
:101EB00004F095EC2CF001C03CF102C03DF103C0F0
:101EC0003EF104C03FF18CC132F08DC133F08EC1C0
:101ED00034F08FC135F03CC12EF03DC12FF03EC132
:101EE00030F03FC131F02CEC3DF02EC040F12FC05E
:101EF00041F130C042F131C043F14CC12EF04DC12F
:101F00002FF04EC130F04FC131F040C132F041C12D
:101F100033F042C134F043C135F02CEC3DF02EC01B
:101F200034F12FC035F130C036F131C037F16CC11A
:101F300015F06DC116F06EC117F06FC118F068C1D1
:101F400019F069C11AF06AC11BF06BC11CF051ECA9
:101F500031F015C074F116C075F117C076F118C0D4
:101F600077F168C119F069C11AF06AC11BF06BC141
:101F70001CF030C115F031C116F032C117F033C179
:101F800018F051EC31F015C001F016C002F017C086
:101F900003F018C004F054C119F055C11AF056C12D
:101FA0001BF057C11CF034C115F035C116F036C115
:101FB00017F037C118F051EC31F015C005F016C01C
:101FC00006F017C007F018C008F095EC2CF001C01F
:101FD00078F102C079F103C07AF104C07BF174C1D9
:101FE00001F075C102F076C103F077C104F078C149
:101FF00005F079C106F07AC107F07BC108F095ECD5
:102000002CF001C09CF102C09DF103C09EF104C000
:102010009FF19CC1B8F19DC1B9F19EC1BAF19FC1B8
:10202000BBF1B8C194F1B9C195F1BAC196F1BBC188
:1020300097F1000E01019415B86FF00E9515B96F68
:10204000FF0E9615BA6FFF0E9715BB6FB8C19CF1C6
:10205000B9C19DF1BAC19EF1BBC19FF174C132F00B
:1020600075C133F076C134F077C135F09CC12EF0E4
:102070009DC12FF09EC130F09FC131F02CEC3DF09E
:102080002EC098F12FC099F130C09AF131C09BF168
:1020900078C12EF079C12FF07AC130F07BC131F0D8
:1020A00098C132F099C133F09AC134F09BC135F038
:1020B0002CEC3DF02EC064F12FC065F130C066F10C
:1020C00031C067F19CC115F09DC116F09EC117F09B
:1020D0009FC118F0000E196E400E1A6E760E1B6E20
:1020E0003F0E1C6E51EC31F015C020F116C021F1ED
:1020F00017C022F118C023F14F0E196E380E1A6E58
:10210000760E1B6E3F0E1C6E64C115F065C116F095
:1021100066C117F067C118F051EC31F015C005F039
:1021200016C006F017C007F018C008F0C60E196EEA
:10213000230E1A6EF60E1B6EB80E1C6E9CC115F0A7
:102140009DC116F09EC117F09FC118F051EC31F0FF
:1021500015C001F016C002F017C003F018C004F05B
:1021600095EC2CF001C05CF102C05DF103C05EF1A2
:1021700004C05FF15CC101F05DC102F05EC103F01B
:102180005FC104F0A0C14FF0A1C150F0D8904F360C
:102190005036D8904F365036010E4F24F66E080E4A
:1021A0005020F76E0900F5CF05F00900F5CF06F0D5
:1021B0000900F5CF07F00A00F5CF08F095EC2CF0F8
:1021C00001C024F102C025F103C026F104C027F1AB
:1021D00088C107F089C108F08AC109F08BC10AF0F3
:1021E000010E4DEC36F007C0B0F108C0B1F109C0E6
:1021F000B2F10AC0B3F124C105F025C106F026C131
:1022000007F027C108F020C101F021C102F022C16E
:1022100003F023C104F095EC2CF001C05CF102C086
:102220005DF103C05EF104C05FF1A0C14FF0A1C138
:1022300050F0D8904F365036D8904F365036090E61
:102240004F24F66E080E5020F76E0900F5CF05F00A
:102250000900F5CF06F00900F5CF07F00A00F5CF29
:1022600008F05CC101F05DC102F05EC103F05FC126
:1022700004F095EC2CF001C008F102C009F103C094
:102280000AF104C00BF108C101F009C102F00AC152
:1022900003F00BC104F0B0C105F0B1C106F0B2C14A
:1022A00007F0B3C108F095EC2CF001C080F102C03A
:1022B00081F103C082F104C083F180C1B8F181C112
:1022C000B9F182C1BAF183C1BBF1B8C194F1B9C10E
:1022D00095F1BAC196F1BBC197F1000E01019415B9
:1022E000B86FF00E9515B96FFF0E9615BA6FFF0E09
:1022F0009715BB6FB8C180F1B9C181F1BAC182F144
:10230000BBC183F1B0C132F0B1C133F0B2C134F01E
:10231000B3C135F080C12EF081C12FF082C130F001
:1023200083C131F02CEC3DF02EC098F12FC099F113
:1023300030C09AF131C09BF1A0C14FF0A1C150F063
:10234000D8904F365036D8904F365036090E4F241D
:10235000F66E080E5020F76E0900F5CF32F0090036
:10236000F5CF33F00900F5CF34F00A00F5CF35F0A2
:1023700098C12EF099C12FF09AC130F09BC131F075
:102380002CEC3DF02EC040F12FC041F130C042F1A5
:1023900031C043F120C132F021C133F022C134F009
:1023A00023C135F040C12EF041C12FF042C130F0C1
:1023B00043C131F02CEC3DF02EC00CF12FC00DF1DB
:1023C00030C00EF131C00FF124C12EF025C12FF025
:1023D00026C130F027C131F00CC132F00DC133F00D
:1023E0000EC134F00FC135F02CEC3DF02EC01CF1C5
:1023F0002FC01DF130C01EF131C01FF188C0B8F1EF
:1024000089C0B9F18AC0BAF18BC0BBF1B8C194F1EF
:10241000B9C195F1BAC196F1BBC197F1000E0101A6
:102420009415B86FF00E9515B96FFF0E9615BA6F2B
:10243000FF0E9715BB6FB8C128F1B9C129F1BAC118
:102440002AF1BBC12BF180C119F081C11AF082C100
:102450001BF083C11CF028C132F029C133F02AC11E
:1024600034F02BC135F088C02EF089C02FF08AC01F
:1024700030F08BC031F02CEC3DF02EC015F02FC0A9
:1024800016F030C017F031C018F051EC31F015C023
:1024900010F116C011F117C012F118C013F110C1DC
:1024A00001F011C102F012C103F013C104F01CC10C
:1024B00019F01DC11AF01EC11BF01FC11CF088C00D
:1024C00015F089C016F08AC017F08BC018F051ECD7
:1024D00031F015C005F016C006F017C007F018C09F
:1024E00008F095EC2CF001C064F102C065F103C066
:1024F00066F104C067F128C115F029C116F02AC1A0
:1025000017F02BC118F080C119F081C11AF082C1F7
:102510001BF083C11CF051EC31F015C09CF116C0CA
:102520009DF117C09EF118C09FF164C101F065C113
:1025300002F066C103F067C104F09CC105F09DC1C3
:1025400006F09EC107F09FC108F095EC2CF001C089
:10255000B4F102C0B5F103C0B6F104C0B7F1B4C123
:10256000B8F1B5C1B9F1B6C1BAF1B7C1BBF1B8C1E3
:10257000ACF1B9C1ADF1BAC1AEF1BBC1AFF101016E
:10258000AFBFCFEF12F0AC05000EAD59000EAE5943
:10259000430EAF59D8A0CFEF12F0D1EF12F007EFF2
:1025A00013F0CA0E196EF20E1A6E490E1B6E710EE2
:1025B0001C6E84C115F085C116F086C117F087C165
:1025C00018F051EC31F015C0A4F116C0A5F117C0F8
:1025D000A6F118C0A7F1A4C115F0A5C116F0A6C1B7
:1025E00017F0A7C118F0CA0E196EF20E1A6E490E36
:1025F0001B6E710E1C6E51EC31F015C084F016C0CC
:1026000085F017C086F018C087F0CBEF18F0430EA6
:10261000AF19AC11AD11AE11D8A411EF13F013EF37
:1026200013F086EF13F09CC132F09DC133F09EC1D0
:1026300034F09FC135F0B4C12EF0B5C12FF0B6C152
:1026400030F0B7C131F02CEC3DF02EC036F02FC089
:1026500037F030C038F031C039F03C0E056EAA0EAC
:10266000066E380E076E330E086E64C101F065C148
:1026700002F066C103F067C104F095EC2CF001C0D4
:102680003AF002C03BF003C03CF004C03DF00EEC59
:1026900039F0D8B04EEF13F050EF13F048EF14F0CC
:1026A000CA0E196EF20E1A6E490E1B6E710E1C6E5A
:1026B00084C115F085C116F086C117F087C118F0E6
:1026C00051EC31F015C0A4F116C0A5F117C0A6F168
:1026D00018C0A7F1A4C115F0A5C116F0A6C117F046
:1026E000A7C118F0CA0E196EF20E1A6E490E1B6EB3
:1026F000710E1C6E51EC31F015C084F016C085F0DF
:1027000017C086F018C087F0CBEF18F0FF0EAC159D
:102710004F6EFF0EAD15506EFF0EAE15516E7F0E53
:10272000AF15526E52BEA1EF13F04F04000E505879
:10273000160E5158430E5258D8A0A1EF13F0A3EF34
:1027400013F0D9EF13F0600E196E420E1A6EA20E3E
:102750001B6E0D0E1C6E84C115F085C116F086C16E
:1027600017F087C118F051EC31F015C0A4F116C074
:10277000A5F117C0A6F118C0A7F1A4C115F0A5C115
:1027800016F0A6C117F0A7C118F0600E196E420E20
:102790001A6EA20E1B6E0D0E1C6E51EC31F015C0A0
:1027A00084F016C085F017C086F018C087F0CBEF14
:1027B00018F0160EAE1909E1C30EAF19AC11AD1128
:1027C000D8A4E5EF13F0E7EF13F048EF14F09CC145
:1027D00032F09DC133F09EC134F09FC135F0B4C1D9
:1027E0002EF0B5C12FF0B6C130F0B7C131F02CECEE
:1027F0003DF02EC036F02FC037F030C038F031C079
:1028000039F064C13AF065C13BF066C13CF067C184
:102810003DF00EEC39F0D8A010EF14F012EF14F0E8
:1028200048EF14F0600E196E420E1A6EA20E1B6E67
:102830000D0E1C6E84C115F085C116F086C117F00F
:1028400087C118F051EC31F015C0A4F116C0A5F104
:1028500017C0A6F118C0A7F1A4C115F0A5C116F0C4
:10286000A6C117F0A7C118F0600E196E420E1A6EBD
:10287000A20E1B6E0D0E1C6E51EC31F015C084F0D3
:1028800016C085F017C086F018C087F0CBEF18F09F
:10289000FF0E0101AC152C6FFF0EAD152D6FFF0E55
:1028A000AE152E6F7F0EAF152F6F170E4F6E2CC10A
:1028B00050F02DC151F02EC152F02FC153F04F6690
:1028C00064EF14F06CEF14F053345332523251323F
:1028D00050324F2E5FEF14F0810E50240101A06F93
:1028E000FF0E5120A16FFF0E5220A26FFF0E53204A
:1028F000A36F000E886F000E896F000E8A6F000EA6
:102900008B6F2FBF90EF14F02C05000E2D59000E89
:102910002E593F0E2F59D8A090EF14F092EF14F0DB
:1029200072EF15F0A0C14FF0010E4F26000E506E51
:10293000000E516E800E526E000E536E4F66A3EF66
:1029400014F0ABEF14F05334533252325132503250
:102950004F2E9EEF14F00101AC515024886FAD5101
:102960005120896FAE5152208A6FAF5153208B6F27
:10297000810E4F6EFF0E506EFF0E516EFF0E526EA7
:10298000170E536E88C154F089C155F08AC156F0B4
:102990008BC157F05366CFEF14F0D7EF14F05734D4
:1029A0005732563255325432532ECAEF14F0545027
:1029B0004F240101A06F000E5020A16F000E512086
:1029C000A26F000E5220A36FA0C14FF0FF0E506EF9
:1029D000FF0E516E7F0E526E000E536E4F66F3EF78
:1029E00014F0FBEF14F05334533252325132503260
:1029F0004F2EEEEF14F0501C546E511C556E521CAD
:102A0000566E531C576E010188515414B86F89518A
:102A10005514B96F8A515614BA6F8B515714BB6F46
:102A2000B8C1B0F1B9C1B1F1BAC1B2F1BBC1B3F132
:102A3000A05117084F6EFF0E8815506EFF0E8915B6
:102A4000516E7F0E8A15526E000E8B15536E000E5E
:102A50005010546E000E5110556E800E5210566E6E
:102A6000000E5310576E4F6638EF15F040EF15F01B
:102A7000573457325632553254324F2E33EF15F009
:102A800054C088F155C089F156C08AF157C08BF106
:102A90000101AFBF50EF15F04EEF15F058EF15F0F4
:102AA0008B1F8A1F891F886D000E89238A238B2321
:102AB0009CC12EF09DC12FF09EC130F09FC131F01E
:102AC000B0C132F0B1C133F0B2C134F0B3C135F0AE
:102AD0002CEC3DF02EC09CF12FC09DF130C09EF13A
:102AE00031C09FF164C101F065C102F066C103F01D
:102AF00067C104F09CC105F09DC106F09EC107F0BE
:102B00009FC108F095EC2CF001C0B0F102C0B1F10A
:102B100003C0B2F104C0B3F1B0C1B8F1B1C1B9F1B1
:102B2000B2C1BAF1B3C1BBF1B8C194F1B9C195F169
:102B3000BAC196F1BBC197F1000E01019415B86FAF
:102B4000800E9515B96FFF0E9615BA6FFF0E97158B
:102B5000BB6FB8C1B0F1B9C1B1F1BAC1B2F1BBC17B
:102B6000B3F1B0C115F0B1C116F0B2C117F0B3C1E5
:102B700018F0000E196E720E1A6E310E1B6E3F0E9B
:102B80001C6E51EC31F015C074F116C075F117C010
:102B900076F118C077F19CC132F09DC133F09EC12F
:102BA00034F09FC135F0B0C12EF0B1C12FF0B2C1E9
:102BB00030F0B3C131F02CEC3DF02EC098F12FC0B5
:102BC00099F130C09AF131C09BF1180E196E720E56
:102BD0001A6E310E1B6E3F0E1C6E98C132F099C1F9
:102BE00033F09AC134F09BC135F064C12EF065C159
:102BF0002FF066C130F067C131F02CEC3DF02EC0F3
:102C000015F02FC016F030C017F031C018F051EC9D
:102C100031F015C014F116C015F117C016F118C027
:102C200017F114C101F015C102F016C103F017C16C
:102C300004F08C0E196EBE0E1A6EBF0E1B6E350E92
:102C40001C6EB0C115F0B1C116F0B2C117F0B3C11E
:102C500018F051EC31F015C005F016C006F017C0A1
:102C600007F018C008F095EC2CF001C078F102C014
:102C700079F103C07AF104C07BF174C101F075C130
:102C800002F076C103F077C104F078C105F079C194
:102C900006F07AC107F07BC108F095EC2CF001C07A
:102CA000B4F102C0B5F103C0B6F104C0B7F174C10C
:102CB00032F075C133F076C134F077C135F0B4C16C
:102CC0002EF0B5C12FF0B6C130F0B7C131F02CEC09
:102CD0003DF02EC098F12FC099F130C09AF131C06B
:102CE0009BF178C12EF079C12FF07AC130F07BC111
:102CF00031F098C132F099C133F09AC134F09BC1E0
:102D000035F02CEC3DF02EC044F12FC045F130C021
:102D100046F131C047F1B4C115F0B5C116F0B6C1E6
:102D200017F0B7C118F0B4C119F0B5C11AF0B6C1A7
:102D30001BF0B7C11CF051EC31F015C0B0F116C05A
:102D4000B1F117C0B2F118C0B3F10E0E056EEA0E64
:102D5000066EDD0E076EB50E086E4C0E196EBB0EBC
:102D60001A6E310E1B6E330E1C6EB0C115F0B1C160
:102D700016F0B2C117F0B3C118F051EC31F015C024
:102D800001F016C002F017C003F018C004F095EC73
:102D90002CF001C0A4F102C0A5F103C0A6F104C04B
:102DA000A7F1550E056EB30E066E8A0E076E380E2D
:102DB000086EB0C119F0B1C11AF0B2C11BF0B3C1B5
:102DC0001CF0A4C115F0A5C116F0A6C117F0A7C14B
:102DD00018F051EC31F015C001F016C002F017C028
:102DE00003F018C004F095EC2CF001C058F102C0BB
:102DF00059F103C05AF104C05BF1610E056E0B0E70
:102E0000066E360E076EBB0E086EB0C119F0B1C16A
:102E10001AF0B2C11BF0B3C11CF058C115F059C172
:102E200016F05AC117F05BC118F051EC31F015C023
:102E300001F016C002F017C003F018C004F095ECC2
:102E40002CF001C048F102C049F103C04AF104C0AE
:102E50004BF1AB0E056EAA0E066E2A0E076E3E0EE5
:102E6000086EB0C119F0B1C11AF0B2C11BF0B3C104
:102E70001CF048C115F049C116F04AC117F04BC10A
:102E800018F051EC31F015C001F016C002F017C077
:102E900003F018C004F095EC2CF001C038F102C02A
:102EA00039F103C03AF104C03BF1B4C12EF0B5C111
:102EB0002FF0B6C130F0B7C131F0B0C119F0B1C1D7
:102EC0001AF0B2C11BF0B3C11CF038C115F039C102
:102ED00016F03AC117F03BC118F051EC31F015C0B3
:102EE00032F016C033F017C034F018C035F02CECB7
:102EF0003DF02EC080F12FC081F130C082F131C091
:102F000083F1000E056E000E066E000E076EC00EF9
:102F1000086E80C101F081C102F082C103F083C15B
:102F200004F095EC2CF001C03AF002C03BF003C075
:102F30003CF004C03DF080C119F081C11AF082C19B
:102F40001BF083C11CF0B4C115F0B5C116F0B6C1B9
:102F500017F0B7C118F051EC31F015C036F016C0BB
:102F600037F017C038F018C039F066EC33F036C0CF
:102F70003CF137C03DF138C03EF139C03FF144C1AA
:102F800005F045C106F046C107F047C108F044C14D
:102F900019F045C11AF046C11BF047C11CF0B4C17D
:102FA00015F0B5C116F0B6C117F0B7C118F051EC65
:102FB00031F015C001F016C002F017C003F018C0C0
:102FC00004F095EC2CF001C018F102C019F103C017
:102FD0001AF104C01BF13CC12EF03DC12FF03EC1DF
:102FE00030F03FC131F018C132F019C133F01AC1CD
:102FF00034F01BC135F02CEC3DF02EC04CF12FC04D
:103000004DF130C04EF131C04FF1B4C132F0B5C115
:1030100033F0B6C134F0B7C135F04CC12EF04DC11C
:103020002FF04EC130F04FC131F02CEC3DF02EC0EE
:1030300098F12FC099F130C09AF131C09BF1000E88
:103040002E6E000E2F6E800E306E3F0E316E98C1C8
:1030500032F099C133F09AC134F09BC135F02CECB9
:103060003DF02EC0B4F12FC0B5F130C0B6F131C083
:10307000B7F1B4C1B8F1B5C1B9F1B6C1BAF1B7C1D0
:10308000BBF1B8C1ACF1B9C1ADF1BAC1AEF1BBC1D0
:10309000AFF188C14FF089C150F08AC151F08BC1A6
:1030A00052F0170ED8904F36503651365236E82E21
:1030B00052EF18F04F500101AC275050AD23515042
:1030C000AE235250AF23170E4F6EACC150F0ADC1BE
:1030D00051F0AEC152F0AFC153F04F6672EF18F02D
:1030E0007AEF18F0533453325232513250324F2E5D
:1030F0006DEF18F053BE89EF18F053505210511075
:1031000006E15004D8B087EF18F089EF18F0A1EF6E
:1031100018F0B4C12EF0B5C12FF0B6C130F0B7C170
:1031200031F088C132F089C133F033EC35F02EC074
:10313000B4F12FC0B5F130C0B6F131C0B7F1B1EF85
:1031400018F0ACC1B8F1ADC1B9F1AEC1BAF1AFC1BF
:10315000BBF1B8C1B4F1B9C1B5F1BAC1B6F1BBC1E7
:10316000B7F184C115F085C116F086C117F087C18B
:1031700018F0B4C119F0B5C11AF0B6C11BF0B7C14F
:103180001CF051EC31F015C084F016C085F017C06A
:1031900086F018C087F012008C807EEF27F02BC0DD
:1031A00001F02CC002F02DC003F02EC004F02FC09F
:1031B00005F030C006F031C007F032C008F00A0E4A
:1031C000096E000E0A6E000E0B6E000E0C6E000EE5
:1031D0000D6E000E0E6E000E0F6E000E106E74EC73
:1031E0003AF001C034F002C035F003C036F004C03C
:1031F00037F005C038F006C039F007C03AF008C013
:103200003BF034500001996F9951300F1AEC3EF0A9
:10321000AFEF27F0640E096E000E0A6E000E0B6E03
:10322000000E0C6E000E0D6E000E0E6E000E0F6E78
:10323000000E106E2BC001F02CC002F02DC003F068
:103240002EC004F02FC005F030C006F031C007F0EA
:1032500032C008F074EC3AF001C012F002C013F072
:1032600003C014F004C015F005C016F006C017F036
:1032700007C018F008C019F00A0E1A6E000E1B6E77
:10328000000E1C6E000E1D6E000E1E6E000E1F6ED8
:10329000000E206E000E216E90EC39F012C034F05A
:1032A00013C035F014C036F015C037F016C038F032
:1032B00017C039F018C03AF019C03BF03450000183
:1032C000986F2BC001F02CC002F02DC003F02EC06F
:1032D00004F02FC005F030C006F031C007F032C056
:1032E00008F00A0E096E000E0A6E000E0B6E000E3C
:1032F0000C6E000E0D6E000E0E6E000E0F6E000EA8
:10330000106E74EC3AF001C034F002C035F003C026
:1033100036F004C037F005C038F006C039F007C0F9
:103320003AF008C03BF034500001996F9851300FCB
:103330001AEC3EF000019951300F1AEC3EF0AFEF5D
:1033400027F0E80E096E030E0A6E000E0B6E000EDB
:103350000C6E000E0D6E000E0E6E000E0F6E000E47
:10336000106E2BC001F02CC002F02DC003F02EC057
:1033700004F02FC005F030C006F031C007F032C0B5
:1033800008F074EC3AF001C012F002C013F003C070
:1033900014F004C015F005C016F006C017F007C001
:1033A00018F008C019F0640E1A6E000E1B6E000EA5
:1033B0001C6E000E1D6E000E1E6E000E1F6E000EA7
:1033C000206E000E216E90EC39F012C090F013C008
:1033D00091F014C092F015C093F016C094F017C08D
:1033E00095F018C096F019C097F0640E096E000EA3
:1033F0000A6E000E0B6E000E0C6E000E0D6E000EAF
:103400000E6E000E0F6E000E106E2BC001F02CC061
:1034100002F02DC003F02EC004F02FC005F030C024
:1034200006F031C007F032C008F074EC3AF001C089
:1034300012F002C013F003C014F004C015F005C070
:1034400016F006C017F007C018F008C019F00A0EF1
:103450001A6E000E1B6E000E1C6E000E1D6E000E0E
:103460001E6E000E1F6E000E206E000E216E90EC80
:1034700039F012C034F013C035F014C036F015C066
:1034800037F016C038F017C039F018C03AF019C03C
:103490003BF034500001986F2BC001F02CC002F0BB
:1034A0002DC003F02EC004F02FC005F030C006F090
:1034B00031C007F032C008F00A0E096E000E0A6E25
:1034C000000E0B6E000E0C6E000E0D6E000E0E6EDA
:1034D000000E0F6E000E106E74EC3AF001C034F066
:1034E00002C035F003C036F004C037F005C038F034
:1034F00006C039F007C03AF008C03BF03450000174
:10350000996F9051300F1AEC3EF000019851300F36
:103510001AEC3EF000019951300F1AEC3EF0AFEF7B
:1035200027F0100E096E270E0A6E000E0B6E000EAD
:103530000C6E000E0D6E000E0E6E000E0F6E000E65
:10354000106E2BC001F02CC002F02DC003F02EC075
:1035500004F02FC005F030C006F031C007F032C0D3
:1035600008F074EC3AF001C012F002C013F003C08E
:1035700014F004C015F005C016F006C017F007C01F
:1035800018F008C019F0E80E1A6E030E1B6E000E3C
:103590001C6E000E1D6E000E1E6E000E1F6E000EC5
:1035A000206E000E216E90EC39F012C088F013C02E
:1035B00089F014C08AF015C08BF016C08CF017C0CB
:1035C0008DF018C08EF019C08FF0E80E096E030E52
:1035D0000A6E000E0B6E000E0C6E000E0D6E000ECD
:1035E0000E6E000E0F6E000E106E2BC001F02CC080
:1035F00002F02DC003F02EC004F02FC005F030C043
:1036000006F031C007F032C008F074EC3AF001C0A7
:1036100012F002C013F003C014F004C015F005C08E
:1036200016F006C017F007C018F008C019F0640EB5
:103630001A6E000E1B6E000E1C6E000E1D6E000E2C
:103640001E6E000E1F6E000E206E000E216E90EC9E
:1036500039F012C090F013C091F014C092F015C070
:1036600093F016C094F017C095F018C096F019C0EA
:1036700097F0640E096E000E0A6E000E0B6E000EBF
:103680000C6E000E0D6E000E0E6E000E0F6E000E14
:10369000106E2BC001F02CC002F02DC003F02EC024
:1036A00004F02FC005F030C006F031C007F032C082
:1036B00008F074EC3AF001C012F002C013F003C03D
:1036C00014F004C015F005C016F006C017F007C0CE
:1036D00018F008C019F00A0E1A6E000E1B6E000ECC
:1036E0001C6E000E1D6E000E1E6E000E1F6E000E74
:1036F000206E000E216E90EC39F012C034F013C031
:1037000035F014C036F015C037F016C038F017C0C9
:1037100039F018C03AF019C03BF034500001986FEE
:103720002BC001F02CC002F02DC003F02EC004F01D
:103730002FC005F030C006F031C007F032C008F0ED
:103740000A0E096E000E0A6E000E0B6E000E0C6E55
:10375000000E0D6E000E0E6E000E0F6E000E106E3F
:1037600074EC3AF001C034F002C035F003C036F01A
:1037700004C037F005C038F006C039F007C03AF091
:1037800008C03BF034500001996F8851300F1AEC9B
:103790003EF000019051300F1AEC3EF000019851BC
:1037A000300F1AEC3EF000019951300F1AEC3EF048
:1037B000AFEF27F0A00E096E860E0A6E010E0B6E9B
:1037C000000E0C6E000E0D6E000E0E6E000E0F6ED3
:1037D000000E106E2BC001F02CC002F02DC003F0C3
:1037E0002EC004F02FC005F030C006F031C007F045
:1037F00032C008F074EC3AF001C012F002C013F0CD
:1038000003C014F004C015F005C016F006C017F090
:1038100007C018F008C019F0100E1A6E270E1B6EA4
:10382000000E1C6E000E1D6E000E1E6E000E1F6E32
:10383000000E206E000E216E90EC39F012C080F068
:1038400013C081F014C082F015C083F016C084F05C
:1038500017C085F018C086F019C087F0100E096EE9
:10386000270E0A6E000E0B6E000E0C6E000E0D6E13
:10387000000E0E6E000E0F6E000E106E2BC001F0CB
:103880002CC002F02DC003F02EC004F02FC005F0B4
:1038900030C006F031C007F032C008F074EC3AF0E6
:1038A00001C012F002C013F003C014F004C015F000
:1038B00005C016F006C017F007C018F008C019F0D0
:1038C000E80E1A6E030E1B6E000E1C6E000E1D6EAF
:1038D000000E1E6E000E1F6E000E206E000E216E7A
:1038E00090EC39F012C088F013C089F014C08AF04F
:1038F00015C08BF016C08CF017C08DF018C08EF07C
:1039000019C08FF0E80E096E030E0A6E000E0B6EE2
:10391000000E0C6E000E0D6E000E0E6E000E0F6E81
:10392000000E106E2BC001F02CC002F02DC003F071
:103930002EC004F02FC005F030C006F031C007F0F3
:1039400032C008F074EC3AF001C012F002C013F07B
:1039500003C014F004C015F005C016F006C017F03F
:1039600007C018F008C019F0640E1A6E000E1B6E26
:10397000000E1C6E000E1D6E000E1E6E000E1F6EE1
:10398000000E206E000E216E90EC39F012C090F007
:1039900013C091F014C092F015C093F016C094F0CB
:1039A00017C095F018C096F019C097F0640E096E14
:1039B000000E0A6E000E0B6E000E0C6E000E0D6EE9
:1039C000000E0E6E000E0F6E000E106E2BC001F07A
:1039D0002CC002F02DC003F02EC004F02FC005F063
:1039E00030C006F031C007F032C008F074EC3AF095
:1039F00001C012F002C013F003C014F004C015F0AF
:103A000005C016F006C017F007C018F008C019F07E
:103A10000A0E1A6E000E1B6E000E1C6E000E1D6E3E
:103A2000000E1E6E000E1F6E000E206E000E216E28
:103A300090EC39F012C034F013C035F014C036F0F9
:103A400015C037F016C038F017C039F018C03AF07A
:103A500019C03BF034500001986F2BC001F02CC00E
:103A600002F02DC003F02EC004F02FC005F030C0CE
:103A700006F031C007F032C008F00A0E096E000EE1
:103A80000A6E000E0B6E000E0C6E000E0D6E000E18
:103A90000E6E000E0F6E000E106E74EC3AF001C048
:103AA00034F002C035F003C036F004C037F005C072
:103AB00038F006C039F007C03AF008C03BF0345087
:103AC0000001996F8051300F1AEC3EF000018851CF
:103AD000300F1AEC3EF000019051300F1AEC3EF01E
:103AE00000019851300F1AEC3EF000019951300F4F
:103AF0001AEC3EF0AFEF27F0400E096E420E0A6E50
:103B00000F0E0B6E000E0C6E000E0D6E000E0E6E84
:103B1000000E0F6E000E106E2BC001F02CC002F0D4
:103B20002DC003F02EC004F02FC005F030C006F009
:103B300031C007F032C008F074EC3AF001C012F066
:103B400002C013F003C014F004C015F005C016F055
:103B500006C017F007C018F008C019F0A00E1A6EC2
:103B6000860E1B6E010E1C6E000E1D6E000E1E6E6C
:103B7000000E1F6E000E206E000E216E90EC39F0CC
:103B800012C078F013C079F014C07AF015C07BF041
:103B900016C07CF017C07DF018C07EF019C07FF011
:103BA000A00E096E860E0A6E010E0B6E000E0C6ED4
:103BB000000E0D6E000E0E6E000E0F6E000E106EDB
:103BC0002BC001F02CC002F02DC003F02EC004F079
:103BD0002FC005F030C006F031C007F032C008F049
:103BE00074EC3AF001C012F002C013F003C014F0FC
:103BF00004C015F005C016F006C017F007C018F095
:103C000008C019F0100E1A6E270E1B6E000E1C6EE7
:103C1000000E1D6E000E1E6E000E1F6E000E206E3A
:103C2000000E216E90EC39F012C080F013C081F0CC
:103C300014C082F015C083F016C084F017C085F060
:103C400018C086F019C087F0100E096E270E0A6E94
:103C5000000E0B6E000E0C6E000E0D6E000E0E6E42
:103C6000000E0F6E000E106E2BC001F02CC002F083
:103C70002DC003F02EC004F02FC005F030C006F0B8
:103C800031C007F032C008F074EC3AF001C012F015
:103C900002C013F003C014F004C015F005C016F004
:103CA00006C017F007C018F008C019F0E80E1A6E29
:103CB000030E1B6E000E1C6E000E1D6E000E1E6E9F
:103CC000000E1F6E000E206E000E216E90EC39F07B
:103CD00012C088F013C089F014C08AF015C08BF0B0
:103CE00016C08CF017C08DF018C08EF019C08FF080
:103CF000E80E096E030E0A6E000E0B6E000E0C6EBF
:103D0000000E0D6E000E0E6E000E0F6E000E106E89
:103D10002BC001F02CC002F02DC003F02EC004F027
:103D20002FC005F030C006F031C007F032C008F0F7
:103D300074EC3AF001C012F002C013F003C014F0AA
:103D400004C015F005C016F006C017F007C018F043
:103D500008C019F0640E1A6E000E1B6E000E1C6E69
:103D6000000E1D6E000E1E6E000E1F6E000E206EE9
:103D7000000E216E90EC39F012C090F013C091F05B
:103D800014C092F015C093F016C094F017C095F0CF
:103D900018C096F019C097F0640E096E000E0A6EF6
:103DA000000E0B6E000E0C6E000E0D6E000E0E6EF1
:103DB000000E0F6E000E106E2BC001F02CC002F032
:103DC0002DC003F02EC004F02FC005F030C006F067
:103DD00031C007F032C008F074EC3AF001C012F0C4
:103DE00002C013F003C014F004C015F005C016F0B3
:103DF00006C017F007C018F008C019F00A0E1A6EB6
:103E0000000E1B6E000E1C6E000E1D6E000E1E6E50
:103E1000000E1F6E000E206E000E216E90EC39F029
:103E200012C034F013C035F014C036F015C037F0AE
:103E300016C038F017C039F018C03AF019C03BF07E
:103E400034500001986F2BC001F02CC002F02DC03F
:103E500003F02EC004F02FC005F030C006F031C0D2
:103E600007F032C008F00A0E096E000E0A6E000E4E
:103E70000B6E000E0C6E000E0D6E000E0E6E000E20
:103E80000F6E000E106E74EC3AF001C034F002C0F8
:103E900035F003C036F004C037F005C038F006C076
:103EA00039F007C03AF008C03BF034500001996F78
:103EB0007851300F1AEC3EF000018051300F1AECAF
:103EC0003EF000018851300F1AEC3EF00001905195
:103ED000300F1AEC3EF000019851300F1AEC3EF012
:103EE00000019951300F1AEC3EF0AFEF27F0800E31
:103EF000096E960E0A6E980E0B6E000E0C6E000E7A
:103F00000D6E000E0E6E000E0F6E000E106E2BC0AA
:103F100001F02CC002F02DC003F02EC004F02FC021
:103F200005F030C006F031C007F032C008F074EC84
:103F30003AF001C012F002C013F003C014F004C044
:103F400015F005C016F006C017F007C018F008C03D
:103F500019F0400E1A6E420E1B6E0F0E1C6E000EF4
:103F60001D6E000E1E6E000E1F6E000E206E000EE7
:103F7000216E90EC39F012C070F013C071F014C0D3
:103F800072F015C073F016C074F017C075F018C049
:103F900076F019C077F0400E096E420E0A6E0F0ED1
:103FA0000B6E000E0C6E000E0D6E000E0E6E000EEF
:103FB0000F6E000E106E2BC001F02CC002F02DC051
:103FC00003F02EC004F02FC005F030C006F031C061
:103FD00007F032C008F074EC3AF001C012F002C0F1
:103FE00013F003C014F004C015F005C016F006C0AD
:103FF00017F007C018F008C019F0A00E1A6E860E50
:104000001B6E010E1C6E000E1D6E000E1E6E000E4D
:104010001F6E000E206E000E216E90EC39F012C063
:1040200078F013C079F014C07AF015C07BF016C098
:104030007CF017C07DF018C07EF019C07FF0A00E94
:10404000096E860E0A6E010E0B6E000E0C6E000ECF
:104050000D6E000E0E6E000E0F6E000E106E2BC059
:1040600001F02CC002F02DC003F02EC004F02FC0D0
:1040700005F030C006F031C007F032C008F074EC33
:104080003AF001C012F002C013F003C014F004C0F3
:1040900015F005C016F006C017F007C018F008C0EC
:1040A00019F0100E1A6E270E1B6E000E1C6E000EFD
:1040B0001D6E000E1E6E000E1F6E000E206E000E96
:1040C000216E90EC39F012C080F013C081F014C062
:1040D00082F015C083F016C084F017C085F018C0B8
:1040E00086F019C087F0100E096E270E0A6E000EBA
:1040F0000B6E000E0C6E000E0D6E000E0E6E000E9E
:104100000F6E000E106E2BC001F02CC002F02DC0FF
:1041100003F02EC004F02FC005F030C006F031C00F
:1041200007F032C008F074EC3AF001C012F002C09F
:1041300013F003C014F004C015F005C016F006C05B
:1041400017F007C018F008C019F0E80E1A6E030E39
:104150001B6E000E1C6E000E1D6E000E1E6E000EFD
:104160001F6E000E206E000E216E90EC39F012C012
:1041700088F013C089F014C08AF015C08BF016C007
:104180008CF017C08DF018C08EF019C08FF0E80EBB
:10419000096E030E0A6E000E0B6E000E0C6E000E02
:1041A0000D6E000E0E6E000E0F6E000E106E2BC008
:1041B00001F02CC002F02DC003F02EC004F02FC07F
:1041C00005F030C006F031C007F032C008F074ECE2
:1041D0003AF001C012F002C013F003C014F004C0A2
:1041E00015F005C016F006C017F007C018F008C09B
:1041F00019F0640E1A6E000E1B6E000E1C6E000E7F
:104200001D6E000E1E6E000E1F6E000E206E000E44
:10421000216E90EC39F012C090F013C091F014C0F0
:1042200092F015C093F016C094F017C095F018C026
:1042300096F019C097F0640E096E000E0A6E000E1B
:104240000B6E000E0C6E000E0D6E000E0E6E000E4C
:104250000F6E000E106E2BC001F02CC002F02DC0AE
:1042600003F02EC004F02FC005F030C006F031C0BE
:1042700007F032C008F074EC3AF001C012F002C04E
:1042800013F003C014F004C015F005C016F006C00A
:1042900017F007C018F008C019F00A0E1A6E000EC9
:1042A0001B6E000E1C6E000E1D6E000E1E6E000EAC
:1042B0001F6E000E206E000E216E90EC39F012C0C1
:1042C00034F013C035F014C036F015C037F016C006
:1042D00038F017C039F018C03AF019C03BF034502C
:1042E0000001986F2BC001F02CC002F02DC003F02C
:1042F0002EC004F02FC005F030C006F031C007F02A
:1043000032C008F00A0E096E000E0A6E000E0B6E27
:10431000000E0C6E000E0D6E000E0E6E000E0F6E77
:10432000000E106E74EC3AF001C034F002C035F0AB
:1043300003C036F004C037F005C038F006C039F0CD
:1043400007C03AF008C03BF034500001996F70513B
:10435000300F1AEC3EF000017851300F1AEC3EF0AD
:1043600000018051300F1AEC3EF000018851300FEF
:104370001AEC3EF000019051300F1AEC3EF00001B3
:104380009851300F1AEC3EF000019951300F1AECA1
:104390003EF0AFEF27F0000E096EE10E0A6EF50E4B
:1043A0000B6E050E0C6E000E0D6E000E0E6E000EE6
:1043B0000F6E000E106E2BC001F02CC002F02DC04D
:1043C00003F02EC004F02FC005F030C006F031C05D
:1043D00007F032C008F074EC3AF001C012F002C0ED
:1043E00013F003C014F004C015F005C016F006C0A9
:1043F00017F007C018F008C019F0800E1A6E960E5C
:104400001B6E980E1C6E000E1D6E000E1E6E000EB2
:104410001F6E000E206E000E216E90EC39F012C05F
:1044200068F013C069F014C06AF015C06BF016C0D4
:104430006CF017C06DF018C06EF019C06FF0800EF0
:10444000096E960E0A6E980E0B6E000E0C6E000E24
:104450000D6E000E0E6E000E0F6E000E106E2BC055
:1044600001F02CC002F02DC003F02EC004F02FC0CC
:1044700005F030C006F031C007F032C008F074EC2F
:104480003AF001C012F002C013F003C014F004C0EF
:1044900015F005C016F006C017F007C018F008C0E8
:1044A00019F0400E1A6E420E1B6E0F0E1C6E000E9F
:1044B0001D6E000E1E6E000E1F6E000E206E000E92
:1044C000216E90EC39F012C070F013C071F014C07E
:1044D00072F015C073F016C074F017C075F018C0F4
:1044E00076F019C077F0400E096E420E0A6E0F0E7C
:1044F0000B6E000E0C6E000E0D6E000E0E6E000E9A
:104500000F6E000E106E2BC001F02CC002F02DC0FB
:1045100003F02EC004F02FC005F030C006F031C00B
:1045200007F032C008F074EC3AF001C012F002C09B
:1045300013F003C014F004C015F005C016F006C057
:1045400017F007C018F008C019F0A00E1A6E860EFA
:104550001B6E010E1C6E000E1D6E000E1E6E000EF8
:104560001F6E000E206E000E216E90EC39F012C00E
:1045700078F013C079F014C07AF015C07BF016C043
:104580007CF017C07DF018C07EF019C07FF0A00E3F
:10459000096E860E0A6E010E0B6E000E0C6E000E7A
:1045A0000D6E000E0E6E000E0F6E000E106E2BC004
:1045B00001F02CC002F02DC003F02EC004F02FC07B
:1045C00005F030C006F031C007F032C008F074ECDE
:1045D0003AF001C012F002C013F003C014F004C09E
:1045E00015F005C016F006C017F007C018F008C097
:1045F00019F0100E1A6E270E1B6E000E1C6E000EA8
:104600001D6E000E1E6E000E1F6E000E206E000E40
:10461000216E90EC39F012C080F013C081F014C00C
:1046200082F015C083F016C084F017C085F018C062
:1046300086F019C087F0100E096E270E0A6E000E64
:104640000B6E000E0C6E000E0D6E000E0E6E000E48
:104650000F6E000E106E2BC001F02CC002F02DC0AA
:1046600003F02EC004F02FC005F030C006F031C0BA
:1046700007F032C008F074EC3AF001C012F002C04A
:1046800013F003C014F004C015F005C016F006C006
:1046900017F007C018F008C019F0E80E1A6E030EE4
:1046A0001B6E000E1C6E000E1D6E000E1E6E000EA8
:1046B0001F6E000E206E000E216E90EC39F012C0BD
:1046C00088F013C089F014C08AF015C08BF016C0B2
:1046D0008CF017C08DF018C08EF019C08FF0E80E66
:1046E000096E030E0A6E000E0B6E000E0C6E000EAD
:1046F0000D6E000E0E6E000E0F6E000E106E2BC0B3
:1047000001F02CC002F02DC003F02EC004F02FC029
:1047100005F030C006F031C007F032C008F074EC8C
:104720003AF001C012F002C013F003C014F004C04C
:1047300015F005C016F006C017F007C018F008C045
:1047400019F0640E1A6E000E1B6E000E1C6E000E29
:104750001D6E000E1E6E000E1F6E000E206E000EEF
:10476000216E90EC39F012C090F013C091F014C09B
:1047700092F015C093F016C094F017C095F018C0D1
:1047800096F019C097F0640E096E000E0A6E000EC6
:104790000B6E000E0C6E000E0D6E000E0E6E000EF7
:1047A0000F6E000E106E2BC001F02CC002F02DC059
:1047B00003F02EC004F02FC005F030C006F031C069
:1047C00007F032C008F074EC3AF001C012F002C0F9
:1047D00013F003C014F004C015F005C016F006C0B5
:1047E00017F007C018F008C019F00A0E1A6E000E74
:1047F0001B6E000E1C6E000E1D6E000E1E6E000E57
:104800001F6E000E206E000E216E90EC39F012C06B
:1048100034F013C035F014C036F015C037F016C0B0
:1048200038F017C039F018C03AF019C03BF03450D6
:104830000001986F2BC001F02CC002F02DC003F0D6
:104840002EC004F02FC005F030C006F031C007F0D4
:1048500032C008F00A0E096E000E0A6E000E0B6ED2
:10486000000E0C6E000E0D6E000E0E6E000E0F6E22
:10487000000E106E74EC3AF001C034F002C035F056
:1048800003C036F004C037F005C038F006C039F078
:1048900007C03AF008C03BF034500001996F6851EE
:1048A000300F1AEC3EF000017051300F1AEC3EF060
:1048B00000017851300F1AEC3EF000018051300FAA
:1048C0001AEC3EF000018851300F1AEC3EF0000166
:1048D0009051300F1AEC3EF000019851300F1AEC55
:1048E0003EF000019951300F1AEC3EF0AFEF27F087
:1048F000000E096ECA0E0A6E9A0E0B6E3B0E0C6EFF
:10490000000E0D6E000E0E6E000E0F6E000E106E7D
:104910002BC001F02CC002F02DC003F02EC004F01B
:104920002FC005F030C006F031C007F032C008F0EB
:1049300074EC3AF001C012F002C013F003C014F09E
:1049400004C015F005C016F006C017F007C018F037
:1049500008C019F0000E1A6EE10E1B6EF50E1C6EEB
:10496000050E1D6E000E1E6E000E1F6E000E206ED8
:10497000000E216E90EC39F012C060F013C061F0AF
:1049800014C062F015C063F016C064F017C065F083
:1049900018C066F019C067F0000E096EE10E0A6ECD
:1049A000F50E0B6E050E0C6E000E0D6E000E0E6EEB
:1049B000000E0F6E000E106E2BC001F02CC002F026
:1049C0002DC003F02EC004F02FC005F030C006F05B
:1049D00031C007F032C008F074EC3AF001C012F0B8
:1049E00002C013F003C014F004C015F005C016F0A7
:1049F00006C017F007C018F008C019F0800E1A6E34
:104A0000960E1B6E980E1C6E000E1D6E000E1E6E16
:104A1000000E1F6E000E206E000E216E90EC39F01D
:104A200012C068F013C069F014C06AF015C06BF0D2
:104A300016C06CF017C06DF018C06EF019C06FF0A2
:104A4000800E096E960E0A6E980E0B6E000E0C6E9E
:104A5000000E0D6E000E0E6E000E0F6E000E106E2C
:104A60002BC001F02CC002F02DC003F02EC004F0CA
:104A70002FC005F030C006F031C007F032C008F09A
:104A800074EC3AF001C012F002C013F003C014F04D
:104A900004C015F005C016F006C017F007C018F0E6
:104AA00008C019F0400E1A6E420E1B6E0F0E1C6EDF
:104AB000000E1D6E000E1E6E000E1F6E000E206E8C
:104AC000000E216E90EC39F012C070F013C071F03E
:104AD00014C072F015C073F016C074F017C075F0F2
:104AE00018C076F019C077F0400E096E420E0A6EBB
:104AF0000F0E0B6E000E0C6E000E0D6E000E0E6E85
:104B0000000E0F6E000E106E2BC001F02CC002F0D4
:104B10002DC003F02EC004F02FC005F030C006F009
:104B200031C007F032C008F074EC3AF001C012F066
:104B300002C013F003C014F004C015F005C016F055
:104B400006C017F007C018F008C019F0A00E1A6EC2
:104B5000860E1B6E010E1C6E000E1D6E000E1E6E6C
:104B6000000E1F6E000E206E000E216E90EC39F0CC
:104B700012C078F013C079F014C07AF015C07BF041
:104B800016C07CF017C07DF018C07EF019C07FF011
:104B9000A00E096E860E0A6E010E0B6E000E0C6ED4
:104BA000000E0D6E000E0E6E000E0F6E000E106EDB
:104BB0002BC001F02CC002F02DC003F02EC004F079
:104BC0002FC005F030C006F031C007F032C008F049
:104BD00074EC3AF001C012F002C013F003C014F0FC
:104BE00004C015F005C016F006C017F007C018F095
:104BF00008C019F0100E1A6E270E1B6E000E1C6EE8
:104C0000000E1D6E000E1E6E000E1F6E000E206E3A
:104C1000000E216E90EC39F012C080F013C081F0CC
:104C200014C082F015C083F016C084F017C085F060
:104C300018C086F019C087F0100E096E270E0A6E94
:104C4000000E0B6E000E0C6E000E0D6E000E0E6E42
:104C5000000E0F6E000E106E2BC001F02CC002F083
:104C60002DC003F02EC004F02FC005F030C006F0B8
:104C700031C007F032C008F074EC3AF001C012F015
:104C800002C013F003C014F004C015F005C016F004
:104C900006C017F007C018F008C019F0E80E1A6E29
:104CA000030E1B6E000E1C6E000E1D6E000E1E6E9F
:104CB000000E1F6E000E206E000E216E90EC39F07B
:104CC00012C088F013C089F014C08AF015C08BF0B0
:104CD00016C08CF017C08DF018C08EF019C08FF080
:104CE000E80E096E030E0A6E000E0B6E000E0C6EBF
:104CF000000E0D6E000E0E6E000E0F6E000E106E8A
:104D00002BC001F02CC002F02DC003F02EC004F027
:104D10002FC005F030C006F031C007F032C008F0F7
:104D200074EC3AF001C012F002C013F003C014F0AA
:104D300004C015F005C016F006C017F007C018F043
:104D400008C019F0640E1A6E000E1B6E000E1C6E69
:104D5000000E1D6E000E1E6E000E1F6E000E206EE9
:104D6000000E216E90EC39F012C090F013C091F05B
:104D700014C092F015C093F016C094F017C095F0CF
:104D800018C096F019C097F0640E096E000E0A6EF6
:104D9000000E0B6E000E0C6E000E0D6E000E0E6EF1
:104DA000000E0F6E000E106E2BC001F02CC002F032
:104DB0002DC003F02EC004F02FC005F030C006F067
:104DC00031C007F032C008F074EC3AF001C012F0C4
:104DD00002C013F003C014F004C015F005C016F0B3
:104DE00006C017F007C018F008C019F00A0E1A6EB6
:104DF000000E1B6E000E1C6E000E1D6E000E1E6E51
:104E0000000E1F6E000E206E000E216E90EC39F029
:104E100012C034F013C035F014C036F015C037F0AE
:104E200016C038F017C039F018C03AF019C03BF07E
:104E300034500001986F2BC001F02CC002F02DC03F
:104E400003F02EC004F02FC005F030C006F031C0D2
:104E500007F032C008F00A0E096E000E0A6E000E4E
:104E60000B6E000E0C6E000E0D6E000E0E6E000E20
:104E70000F6E000E106E74EC3AF001C034F002C0F8
:104E800035F003C036F004C037F005C038F006C076
:104E900039F007C03AF008C03BF034500001996F78
:104EA0006051300F1AEC3EF000016851300F1AECDF
:104EB0003EF000017051300F1AEC3EF000017851C5
:104EC000300F1AEC3EF000018051300F1AEC3EF02A
:104ED00000018851300F1AEC3EF000019051300F64
:104EE0001AEC3EF000019851300F1AEC3EF0000130
:104EF0009951300F1AEC3EF0AFEF27F03350346E7B
:104F0000356A3550000AD8B488EF27F0AFEF27F0A4
:104F10003450010AD8B4CFEF18F0030AD8B40AEF1E
:104F200019F0010AD8B4A1EF19F0070AD8B491EF2B
:104F30001AF0010AD8B4DAEF1BF0030AD8B47CEFF8
:104F40001DF0010AD8B477EF1FF00F0AD8B4CBEFE9
:104F500021F0010AD8B478EF24F0AFEF27F0120067
:104F60002B0E0001BD19BE11D8A4B9EF27F0BBEF7D
:104F700027F0E6EF27F0BF51C7259A6FC051C8212F
:104F80009B6F9AC007F09BC008F0000E08BEFF0E92
:104F9000096E0A6E010E4DEC36F007C0C3F008C072
:104FA000C4F009C0C5F00AC0C6F0020E0F6EC3C03F
:104FB00001F0C4C002F0C5C003F0C6C004F08BEC21
:104FC00038F00150DBEC37F034EF2AF02D0EBD192C
:104FD000BE11D8A4EEEF27F0F0EF27F040EF28F055
:104FE000BF51C75D9A6FC051C8599B6F9AC007F0F7
:104FF0009BC008F0000E08BEFF0E096E0A6E010E7F
:105000004DEC36F007C0C3F008C0C4F009C0C5F0CD
:105010000AC0C6F00001C6BF12EF28F010EF28F05A
:105020002FEF28F02D0E1AEC3EF0C3C015F0C4C0CF
:1050300016F0C5C017F0C6C018F0000E196E000EAD
:105040001A6E800E1B6EBF0E1C6E51EC31F015C037
:10505000C3F016C0C4F017C0C5F018C0C6F0020EE9
:105060000F6EC3C001F0C4C002F0C5C003F0C6C0DB
:1050700004F08BEC38F00150DBEC37F034EF2AF021
:105080002A0EBD19BE11D8A448EF28F04AEF28F027
:1050900079EF28F0C7C001F0C8C002F0BFC003F02C
:1050A000C0C004F0DCEC3DF001C007F002C008F025
:1050B000000E08BEFF0E096E0A6E010E4DEC36F0B2
:1050C00007C0C3F008C0C4F009C0C5F00AC0C6F0EC
:1050D000020E0F6EC3C001F0C4C002F0C5C003F0E1
:1050E000C6C004F08BEC38F00150DBEC37F034EF45
:1050F0002AF02F0EBD19BE11D8A481EF28F083EF3E
:1051000028F06EEF29F0BF51C011D8A48AEF28F023
:105110008CEF28F0A7EF28F0C751C811D8A493EF5F
:1051200028F095EF28F09DEF28F0940E076E080EFA
:10513000086E6FEC3DF034EF2AF09A0E076E080E01
:10514000086E6FEC3DF034EF2AF034EF2AF0000ED9
:10515000196E000E1A6E800E1B6E3F0E1C6EC7C0BD
:1051600007F0C8C008F0000E08BEFF0E096E0A6EF8
:10517000010E4DEC36F007C015F008C016F009C05E
:1051800017F00AC018F051EC31F015C036F016C017
:1051900037F017C038F018C039F0000E196E000E45
:1051A0001A6E800E1B6E3F0E1C6EBFC007F0C0C093
:1051B00008F0000E08BEFF0E096E0A6E010E4DECDF
:1051C00036F007C015F008C016F009C017F00AC085
:1051D00018F051EC31F015C03AF016C03BF017C092
:1051E0003CF018C03DF066EC33F036C0C3F037C079
:1051F000C4F038C0C5F039C0C6F0010E0F6EC3C090
:1052000001F0C4C002F0C5C003F0C6C004F08BECCE
:1052100038F00150DBEC37F02E0E1AEC3EF0000EA9
:10522000196E000E1A6EC80E1B6E420E1C6EBFC0A9
:1052300003F0C0C004F0C7C001F0C8C002F09AEC8F
:105240003BF001C007F002C008F0000E08BEFF0EE0
:10525000096E0A6E010E4DEC36F007C015F008C05D
:1052600016F009C017F00AC018F051EC31F015C063
:1052700036F016C037F017C038F018C039F0BFC08C
:1052800007F0C0C008F0000E08BEFF0E096E0A6EDF
:10529000010E4DEC36F007C03AF008C03BF009C0F3
:1052A0003CF00AC03DF066EC33F036C0C3F037C0C6
:1052B000C4F038C0C5F039C0C6F0020E0F6EC3C0CE
:1052C00001F0C4C002F0C5C003F0C6C004F08BEC0E
:1052D00038F00150DBEC37F034EF2AF05E0EBD19E8
:1052E000BE11D8A476EF29F078EF29F0ECEF29F081
:1052F000C7C007F0C8C008F0000E08BEFF0E096E58
:105300000A6E010E4DEC36F007C0A2F008C0A3F003
:1053100009C0A4F00AC0A5F0BFC007F0C0C008F0E3
:10532000000E08BEFF0E096E0A6E010E4DEC36F03F
:1053300007C0A6F008C0A7F009C0A8F00AC0A9F0ED
:10534000A2C084F0A3C085F0A4C086F0A5C087F0F9
:10535000A6C088F0A7C089F0A8C08AF0A9C08BF0C9
:1053600050EC04F084C0C3F085C0C4F086C0C5F022
:1053700087C0C6F0C3C001F0C4C002F0C5C003F0CE
:10538000C6C004F08BEC38F001C09AF002C09BF06C
:1053900003C09CF004C09DF000019E6B9DBF9E6900
:1053A0009EC09FF09EC0A0F09EC0A1F09AC02BF0BE
:1053B0009BC02CF09CC02DF09DC02EF09EC02FF005
:1053C0009FC030F0A0C031F0A1C032F0090E336EA2
:1053D000CCEC18F034EF2AF0210EBD19BE11D8A480
:1053E000F4EF29F0F6EF29F0A5EF28F0C7C02EF072
:1053F000C8C02FF03EEC3BF02EC0C3F02FC0C4F06D
:1054000030C0C5F031C0C6F0C3C001F0C4C002F066
:10541000C5C003F0C6C004F08BEC38F001C09AF0B0
:1054200002C09BF003C09CF004C09DF000019E6B85
:105430009DBF9E699EC09FF09EC0A0F09EC0A1F03F
:105440009AC02BF09BC02CF09CC02DF09DC02EF07C
:105450009EC02FF09FC030F0A0C031F0A1C032F04C
:10546000060E336ECCEC18F0120042C068F043C058
:1054700069F044C06AF045C06BF068C080F069C054
:1054800081F06AC082F06BC083F0000E00018015CD
:10549000466E000E8115476E800E8215486E7F0E97
:1054A0008315496E800E481809E17F0E4918461091
:1054B0004710D8A45EEF2AF060EF2AF08EEF2AF0B2
:1054C00042C019F043C01AF044C01BF045C01CF0A4
:1054D00042C015F043C016F044C017F045C018F0A4
:1054E00051EC31F015C001F016C002F017C003F006
:1054F00018C004F042C005F043C006F044C007F0F5
:1055000045C008F095EC2CF001C042F002C043F019
:1055100003C044F004C045F094EF2CF083BF9DEF2E
:105520002AF083518211811106E18005D8B09BEFEA
:105530002AF09DEF2AF0D9EF2AF0FF0E8015466E73
:10554000FF0E8115476EFF0E8215486E7F0E831584
:10555000496E4650471048104910D8A4B2EF2AF0BF
:10556000B4EF2AF0BEEF2AF042C042F043C043F04D
:1055700044C044F045C045F094EF2CF083BFC5EF24
:105580002AF0C3EF2AF0D9EF2AF0000EB86F210EEF
:10559000B76F930E016E080E026EEFEC3DF001C086
:1055A00042F002C043F003C044F004C045F094EF61
:1055B0002CF0170E466E80C047F081C048F082C0C4
:1055C00049F083C04AF04666E8EF2AF0F0EF2AF08F
:1055D0004A344A32493248324732462EE3EF2AF003
:1055E00047C078F048C079F049C07AF04AC07BF0F3
:1055F0000001785179117A117B11D8A402EF2BF0B8
:1056000004EF2BF034EF2BF0000E646F000E656F8B
:10561000000E666F000E676F19EF2BF0D890803781
:10562000813782378337010E6427000E6523662396
:10563000672382AF1EEF2BF020EF2BF00EEF2BF045
:10564000FF0E6425466EFF0E6521476EFF0E662134
:10565000486EFF0E6721496E4650785F4750795B70
:1056600048507A5B49507B5B810E7827FF0E792387
:10567000FF0E7A23FF0E7B23FF0E8015466EFF0E72
:105680008115476E7F0E8215486E000E8315496E98
:10569000000E4610806F000E4710816F800E48107C
:1056A000826F000E4910836F78A159EF2BF05BEFEA
:1056B0002BF063EF2BF080518027815181238251A1
:1056C0008223835183237B357B337A337933783359
:1056D00080518027815181238251822383518323EA
:1056E000000E606F000E616F000E626F000E636F40
:1056F00060C06CF061C06DF062C06EF063C06FF0AE
:10570000000E7C6F000E7D6F000E7E6F010E7F6FAE
:10571000D2EF2BF060517C25706F61517D21716F4C
:1057200062517E21726F63517F21736F7051805D72
:1057300071518159725182598351800A466E735159
:10574000800A4658D8A0A7EF2BF0A9EF2BF0C5EFA1
:105750002BF070517C25606F71517D21616F72510A
:105760007E21626F73517F21636F7051805F715131
:10577000815B7251825B7351835B7C516C277D51DD
:105780006D237E516E237F516F238051802781517D
:1057900081238251822383518323D8907F337E33A8
:1057A0007D337C337C517D117E117F11D8A4DBEFDA
:1057B0002BF0DDEF2BF08AEF2BF08051811182115D
:1057C0008311D8B4E6EF2BF0E8EF2BF049EF2CF083
:1057D000000E746F000E756F800E766F3F0E776F40
:1057E00074C036F075C037F076C038F077C039F045
:1057F000000E3A6E000E3B6E800E3C6E3F0E3D6E0C
:105800000EEC39F0D8A007EF2CF009EF2CF049EF9F
:105810002CF0000E0001746F000E756F800E766F15
:105820003F0E776F000E366E000E376E800E386EAC
:105830003F0E396E74C03AF075C03BF076C03CF054
:1058400077C03DF00EEC39F0D8B029EF2CF02BEFFB
:105850002CF034EF2CF0020E00016C27000E6D23AB
:105860006E236F2349EF2CF0010E00016C15466E7C
:10587000000E6D15476E000E6E15486E000E6F150A
:10588000496E46506C2747506D2348506E2349504F
:105890006F236CC046F06DC047F06EC048F06FC01B
:1058A00049F049344932483247324632000E4624E4
:1058B0000001806F000E4720816F000E4820826F2C
:1058C0003F0E4920836F78C046F079C047F07AC018
:1058D00048F07BC049F0170ED89046364736483618
:1058E0004936E82E6CEF2CF0465080274750812334
:1058F000485082234950832380C068F081C069F0FA
:1059000082C06AF083C06BF068C074F069C075F043
:105910006AC076F06BC077F074C042F075C043F097
:1059200076C044F077C045F012000450800B0D6E35
:10593000045004240F6E03AEA0EF2CF0A2EF2CF065
:10594000A3EF2CF00F800F50D8B4A9EF2CF0ABEFE1
:105950002CF0C0EF2CF00F28D8A4B1EF2CF0B3EF4F
:105960002CF0BBEF2CF0000E016E000E026E000E4C
:10597000036E000E046E038E000E046EC8EF2CF052
:10598000000E016E000E026E000E036E000E046E1D
:105990000850800B0E6E0D500E18D8B4D2EF2CF0BC
:1059A000D4EF2CF0D5EF2CF00D8C085008240E6E9F
:1059B00007AEDDEF2CF0DFEF2CF0E0EF2CF00E80E7
:1059C0000E50D8B4E6EF2CF0E8EF2CF0FDEF2CF001
:1059D0000E28D8A4EEEF2CF0F0EF2CF0F8EF2CF01E
:1059E000000E056E000E066E000E076E000E086EAD
:1059F000078E000E086E05EF2DF0000E056E000EEE
:105A0000066E000E076E000E086E0F500E5CD8B0CA
:105A10000CEF2DF00EEF2DF035EF2DF00DAC13EF58
:105A20002DF015EF2DF017EF2DF0800E0D1A0FC091
:105A300010F00EC00FF010C00EF001C010F005C045
:105A400001F010C005F002C010F006C002F010C056
:105A500006F003C010F007C003F010C007F004C048
:105A600010F008C004F010C008F0000E106E0F50C7
:105A70000EC009F00A6A095E000E0A5A0ABE4AEF11
:105A80002DF00A5009E11A0E095CD8A04AEF2DF05A
:105A90004CEF2DF083EF2DF0015002100310041095
:105AA000D8A455EF2DF058EF2DF0010E59EF2DF041
:105AB000000E106E000E016E000E026E000E036EE0
:105AC000000E046E0EC00FF08CEF2DF010A06BEFE7
:105AD0002DF06DEF2DF073EF2DF0D89010300109FF
:105AE000106E75EF2DF0D890103201A07AEF2DF0E6
:105AF0007CEF2DF07DEF2DF0108E04340432033254
:105B0000023201320F2A0E500F5CD8A08AEF2DF01E
:105B10008CEF2DF066EF2DF00DBC91EF2DF093EF93
:105B20002DF0D3EF2DF00F50D8A499EF2DF09BEF6F
:105B30002DF0A5EF2DF0000E016E000E026E000E8E
:105B4000036E000E046EF4EF2EF005500126065091
:105B50000222075003220850042204A0B2EF2DF0C5
:105B6000B4EF2DF060EF2EF010A0B9EF2DF0BBEFE9
:105B70002DF0C1EF2DF0D89010300109106EC3EF59
:105B80002DF0D890103201A0C8EF2DF0CAEF2DF003
:105B9000CBEF2DF0108E0434043203320232013286
:105BA0000F2A60EF2EF00550015C06500258075096
:105BB00003580450800A096E0850800A0958D8B06A
:105BC000E4EF2DF0E6EF2DF011EF2EF00150055C23
:105BD000096E025006580A6E035007580B6E0450A7
:105BE00008580C6EFF0E0924016EFF0E0A20026E8B
:105BF000FF0E0B20036EFF0E0C20046E800E0D1A9C
:105C0000106C1050D8A407EF2EF009EF2EF019EF0A
:105C10002EF0010E0126000E02220322042219EFAB
:105C20002EF00550015E0650025A0750035A0850E4
:105C3000045A0150021003100410D8A422EF2EF0D1
:105C400024EF2EF059EF2EF01050D8A42AEF2EF0AA
:105C50002CEF2EF059EF2EF0000E016E000E026EAA
:105C6000000E036E000E046EF4EF2EF0D890013695
:105C700002360336043610AE40EF2EF042EF2EF01F
:105C800043EF2EF0018010A048EF2EF04AEF2EF0E7
:105C90004EEF2EF0D880103650EF2EF0D890103600
:105CA0000F50D8B456EF2EF058EF2EF059EF2EF0DB
:105CB0000F0603AE5EEF2EF060EF2EF036EF2EF003
:105CC000000E0E6E10AE67EF2EF069EF2EF081EF32
:105CD0002EF010C009F07F0E0916D8B472EF2EF026
:105CE00074EF2EF078EF2EF0010E0E6E81EF2EF095
:105CF00001A07DEF2EF07FEF2EF081EF2EF074EFFC
:105D00002EF00E50D8B487EF2EF089EF2EF0B4EFBE
:105D10002EF0010E0126000E02220322042204A00E
:105D200094EF2EF096EF2EF0B4EF2EF001C009F0B4
:105D300002C00AF003C00BF004C00CF00C340C32AB
:105D40000B320A32093209C001F00AC002F00BC05E
:105D500003F00CC004F00F28D8B4B1EF2EF0B3EF6D
:105D60002EF0B4EF2EF00F2A0F28D8B4BAEF2EF091
:105D7000BCEF2EF0C4EF2EF00F50D8A4C2EF2EF0DF
:105D8000C4EF2EF0D6EF2EF0000E016E000E026E64
:105D9000000E036E000E046E0F50D8A4D2EF2EF04A
:105DA000D4EF2EF0D6EF2EF0000E0D6E0FA0DBEF2D
:105DB0002EF0DDEF2EF0E0EF2EF0038EE1EF2EF06F
:105DC000039ED8900F30046E0DAEE9EF2EF0EBEF8E
:105DD0002EF0ECEF2EF0048E01C001F002C002F0B4
:105DE00003C003F004C004F012000600D9CFABF0EA
:105DF000DACFACF0F3CFADF0F4CFAEF0F6CFAFF03A
:105E0000F7CFB0F0F8CFB1F0F5CFB2F0F2A00BEFD2
:105E10002FF00DEF2FF016EF31F0000E0001BC6FE8
:105E2000000EBB6FF00E8118D8B419EF2FF01BEFE6
:105E30002FF00DEF30F0B94BBA2BB9C08BFF070E26
:105E4000B915B96FBA6B000ECA6F0A0EC96F4E0E44
:105E5000CB6FFE0E8A6E81B830EF2FF032EF2FF04D
:105E600038EF2FF0000ECA6F010EC96F0BEF30F044
:105E700081BA3DEF2FF03FEF2FF045EF2FF0000EEE
:105E8000CA6F020EC96F0BEF30F081BC4AEF2FF0E2
:105E90004CEF2FF052EF2FF0000ECA6F030EC96FB8
:105EA0000BEF30F081BE57EF2FF059EF2FF06AEF74
:105EB0002FF084B05EEF2FF060EF2FF064EF2FF043
:105EC0002B0ECB6F0BEF30F05E0ECB6F0BEF30F085
:105ED0000BEF30F0FD0E8A6E81B871EF2FF073EF8B
:105EE0002FF079EF2FF0000ECA6F040EC96F0BEF81
:105EF00030F081BA7EEF2FF080EF2FF086EF2FF099
:105F0000000ECA6F050EC96F0BEF30F081BC8BEF2E
:105F10002FF08DEF2FF093EF2FF0000ECA6F060ECB
:105F2000C96F0BEF30F081BE98EF2FF09AEF2FF092
:105F3000A9EF2FF084B09FEF2FF0A1EF2FF0A5EF86
:105F40002FF02D0ECB6F0BEF30F0210ECB6F0BEF40
:105F500030F0FB0E8A6E81B8B0EF2FF0B2EF2FF069
:105F6000B8EF2FF0000ECA6F070EC96F0BEF30F0BD
:105F700081BABDEF2FF0BFEF2FF0C5EF2FF0000E6D
:105F8000CA6F080EC96F0BEF30F081BCCAEF2FF05B
:105F9000CCEF2FF0D2EF2FF0000ECA6F090EC96FB1
:105FA0000BEF30F081BED7EF2FF0D9EF2FF0DDEF00
:105FB0002FF02A0ECB6F0BEF30F0F70E8A6E81B800
:105FC000E4EF2FF0E6EF2FF0EAEF2FF0420ECB6F69
:105FD0000BEF30F081BAEFEF2FF0F1EF2FF0F7EF8A
:105FE0002FF0000ECA6F000EC96F0BEF30F081BCAE
:105FF000FCEF2FF0FEEF2FF002EF30F03D0ECB6FF5
:106000000BEF30F081BE07EF30F009EF30F068EFB2
:106010002FF02F0ECB6FF00E8A6EC151C211D8B483
:1060200014EF30F016EF30F020EF30F0040EC1190D
:10603000C211D8A41EEF30F020EF30F04DEF30F059
:106040000A0EC919CA11D8B428EF30F02AEF30F07F
:106050004DEF30F0040EC119C211D8A432EF30F068
:1060600034EF30F03BEF30F043EC3EF0000E000137
:10607000C26F000EC16FC9C0C7F0CAC0C8F0010E20
:106080000F6EC751DBEC37F0000E0001CA6F0A0E2D
:10609000C96FC14BC22B0CEF31F0420ECB19D8A403
:1060A00054EF30F056EF30F099EF30F0C2BF61EFAF
:1060B00030F0C25108E1C105D8A061EF30F063EFC4
:1060C00030F099EF30F0040EC119C211D8A46BEF73
:1060D00030F06DEF30F076EF30F043EC3EF0000E34
:1060E0000001C26F000EC16F0CEF31F0210EBD191F
:1060F000BE11D8A47EEF30F080EF30F087EF30F0A3
:10610000C107D8A0C207000EBE6F4E0EBD6FC107FB
:10611000D8A0C207000ECA6F0A0EC96F4E0ECB6F11
:1061200039EC3EF0200E1AEC3EF039EC3EF00CEF6C
:1061300031F0C105C211D8A4A0EF30F0A2EF30F0C9
:10614000CBEF30F04E0ECB19D8B4A9EF30F0ABEF57
:1061500030F0CBEF30F03D0ECB19D8B4B2EF30F0C9
:10616000B4EF30F0CBEF30F0CBC0BDF0BE6BBD5123
:106170001AEC3EF04E0E0001CB6FC14BC22B210E2C
:10618000BD19BE11D8A4C7EF30F0C9EF30F00CEF45
:1061900031F049EF30F0020EC119C211D8A4D3EF8B
:1061A00030F0D5EF30F0EFEF30F00A0EC919CA1118
:1061B000D8B4DDEF30F0DFEF30F0EFEF30F0C9C0F2
:1061C000BFF0CAC0C0F0010E0F6EBF51DBEC37F05C
:1061D000000E0001CA6F0A0EC96F49EF30F0030EBE
:1061E000C119C211D8A4F7EF30F0F9EF30F00CEF7D
:1061F00031F03D0ECB19D8A400EF31F002EF31F0B1
:106200000CEF31F03D0E1AEC3EF0B0EC27F04E0EE4
:106210000001CB6F49EF30F0210E0001AA6F760E1E
:10622000E82EFED7AA2FFCD700F0F290F2A41BEFC5
:1062300031F01DEF31F03FEF31F00001BB4BBC2BD3
:10624000F2948CA426EF31F029EF31F08C842AEF00
:1062500031F08C940B0ED76EDC0ED66E0001BCBFF5
:106260003BEF31F0BC5109E10B0EBB5DD8A03BEF19
:1062700031F03DEF31F03FEF31F08C940300B2C0CC
:10628000F5FFB1C0F8FFB0C0F7FFAFC0F6FFAEC07A
:10629000F4FFADC0F3FFACC0DAFFABC0D9FF58923A
:1062A00011001850800B216E18501824276E17AE5D
:1062B0005CEF31F05EEF31F05FEF31F02780275077
:1062C000D8B465EF31F067EF31F07AEF31F027287D
