:020000040000FA
:0400000007EF00F016
:0A0008004D82BAED08F0E0EF10F0B1
:100800000098084C0400003809D007DC05E8030113
:1008100000457370657261206465206F7264656E57
:10082000006775617264616E646F20706F723A0068
:10083000696E6163746976696461640063616C699F
:1008400062726163696F6E00506172717565616497
:1008500065726F00536574206F726967696E00522C
:100860007574696E61726961006775617264616E49
:10087000646F00736163616E646F00436172726FD5
:090880003A006C6973746F00000A
:10088A0033C084F034C085F0000E000185BFFF0E2E
:10089A00866F876F886F896F8A6F8B6F0950845D47
:1008AA000A5085590B5086590C5087590D50885952
:1008BA000E5089590F508A5910508B59D8B068EF89
:1008CA0004F06AEF04F06DEF04F08D806EEF04F02F
:1008DA008D9035C084F036C085F0000E85BFFF0EBE
:1008EA00866F876F886F896F8A6F8B6F0150845DFF
:1008FA000250855903508659045087590550885922
:10090A000650895907508A5908508B59D8B090EF28
:10091A0004F092EF04F095EF04F08D8276EF05F083
:10092A008D9276EF05F033C084F034C085F0000E66
:10093A0085BFFF0E866F876F886F896F8A6F8B6F8F
:10094A00095084191BE10A50851918E10B508619C0
:10095A0015E10C50871912E10D5088190FE10E505C
:10096A0089190CE10F508A1909E110508B19D8B472
:10097A00C1EF04F0C3EF04F0FDEF04F08A8633C040
:10098A0084F034C085F0000E85BFFF0E866F876F36
:10099A00886F896F8A6F8B6F0950845D0A508559F9
:1009AA000B5086590C5087590D5088590E50895949
:1009BA000F508A5910508B59D8B0E6EF04F0E8EF7F
:1009CA0004F0F3EF04F00906000E0A5A0B5A0C5A07
:1009DA000D5A0E5A0F5A105AFDEF04F0010E09264D
:1009EA00000E0A220B220C220D220E220F221022A6
:1009FA0035C084F036C085F0000E85BFFF0E866FC5
:100A0A00876F886F896F8A6F8B6F015084191BE11A
:100A1A000250851918E10350861915E10450871907
:100A2A0012E1055088190FE1065089190CE10750A7
:100A3A008A1909E108508B19D8B426EF05F028EF76
:100A4A0005F062EF05F08A8835C084F036C085F07B
:100A5A00000E85BFFF0E866F876F886F896F8A6F5A
:100A6A008B6F0150845D025085590350865904509A
:100A7A008759055088590650895907508A5908508C
:100A8A008B59D8B04BEF05F04DEF05F058EF05F054
:100A9A000106000E025A035A045A055A065A075A00
:100AAA00085A62EF05F0010E0126000E0222032207
:100ABA0004220522062207220822030E0001846F5F
:100ACA00970EE82EFED7842FFCD700D08A968A98F4
:100ADA00030E0001846F970EE82EFED7842FFCD7F1
:100AEA0000D033C084F034C085F0000E000185BF09
:100AFA00FF0E866F876F886F896F8A6F8B6F0950B9
:100B0A00841919E10A50851916E10B50861913E167
:100B1A000C50871910E10D5088190DE10E508919F2
:100B2A000AE10F508A1907E110508B19D8A4A0EFD7
:100B3A0005F0A2EF05F098EF04F035C084F036C056
:100B4A0085F0000E85BFFF0E866F876F886F896FED
:100B5A008A6F8B6F0150841919E10250851916E1C9
:100B6A000350861913E10450871910E105508819BA
:100B7A000DE1065089190AE107508A1907E1085060
:100B8A008B19D8A4CBEF05F0CDEF05F098EF04F060
:100B9A00120021C025F022C026F0000E26BEFF0E4C
:100BAA00276E286E296E2A6E2B6E2C6E0950255CD4
:100BBA000A5026580B5027580C5028580D502958BF
:100BCA000E502A580F502B5810502C58D8B0F0EF0E
:100BDA0005F0F2EF05F0F5EF05F08D80F6EF05F080
:100BEA008D9023C025F024C026F0000E26BEFF0EED
:100BFA00276E286E296E2A6E2B6E2C6E0150255C8C
:100C0A00025026580350275804502858055029588E
:100C1A0006502A5807502B5808502C58D8B018EFAD
:100C2A0006F01AEF06F01DEF06F08D82FAEF06F0D5
:100C3A008D92FAEF06F021C025F022C026F0000EB0
:100C4A0026BEFF0E276E286E296E2A6E2B6E2C6E1C
:100C5A00095025181BE10A50261818E10B502718CD
:100C6A0015E10C50281812E10D5029180FE10E5009
:100C7A002A180CE10F502B1809E110502C18D8B47F
:100C8A0049EF06F04BEF06F085EF06F08A8621C0A1
:100C9A0025F022C026F0000E26BEFF0E276E286E13
:100CAA00296E2A6E2B6E2C6E0950255C0A50265826
:100CBA000B5027580C5028580D5029580E502A58B6
:100CCA000F502B5810502C58D8B06EEF06F070EF1A
:100CDA0006F07BEF06F00906000E0A5A0B5A0C5A68
:100CEA000D5A0E5A0F5A105A85EF06F0010E0926B0
:100CFA00000E0A220B220C220D220E220F22102293
:100D0A0023C025F024C026F0000E26BEFF0E276E53
:100D1A00286E296E2A6E2B6E2C6E015025181BE147
:100D2A000250261818E10350271815E10450281814
:100D3A0012E1055029180FE106502A180CE1075054
:100D4A002B1809E108502C18D8B4AEEF06F0B0EF12
:100D5A0006F0EAEF06F08A8823C025F024C026F0C0
:100D6A00000E26BEFF0E276E286E296E2A6E2B6E87
:100D7A002C6E0150255C0250265803502758045007
:100D8A0028580550295806502A5807502B580850F9
:100D9A002C58D8B0D3EF06F0D5EF06F0E0EF06F006
:100DAA000106000E025A035A045A055A065A075AED
:100DBA00085AEAEF06F0010E0126000E022203226B
:100DCA0004220522062207220822030E256E980E07
:100DDA00E82EFED7252EFCD78A968A98030E256E12
:100DEA00980EE82EFED7252EFCD721C025F022C06A
:100DFA0026F0000E26BEFF0E276E286E296E2A6E7A
:100E0A002B6E2C6E0950251819E10A50261816E186
:100E1A000B50271813E10C50281810E10D5029180F
:100E2A000DE10E502A180AE10F502B1807E1105055
:100E3A002C18D8A423EF07F025EF07F020EF06F0CF
:100E4A0023C025F024C026F0000E26BEFF0E276E12
:100E5A00286E296E2A6E2B6E2C6E0150251819E108
:100E6A000250261816E10350271813E104502818D7
:100E7A0010E1055029180DE106502A180AE1075019
:100E8A002B1807E108502C18D8A44EEF07F050EFA2
:100E9A0007F020EF06F0120017C04AF018C04BF016
:100EAA0019501A10D8A45CEF07F05EEF07F07FEF35
:100EBA0008F013EC11F04A044B10D8A467EF07F0BE
:100ECA0069EF07F079EF07F046C033F047C034F016
:100EDA0048C035F049C036F045EC04F0000E1A6EF1
:100EEA00010E196E49EF08F0020E4A184B10D8A4E9
:100EFA0081EF07F083EF07F093EF07F042C033F07A
:100F0A0043C034F044C035F045C036F045EC04F037
:100F1A00000E1A6E020E196E49EF08F0030E4A18F7
:100F2A004B10D8A49BEF07F09DEF07F0ADEF07F049
:100F3A003EC033F03FC034F040C035F041C036F017
:100F4A0045EC04F0000E1A6E030E196E49EF08F014
:100F5A00040E4A184B10D8A4B5EF07F0B7EF07F004
:100F6A00C7EF07F03AC033F03BC034F03CC035F06D
:100F7A003DC036F045EC04F0000E1A6E040E196EF0
:100F8A0049EF08F0050E4A184B10D8A4CFEF07F026
:100F9A00D1EF07F0E1EF07F070C033F071C034F021
:100FAA0072C035F073C036F045EC04F0000E1A6ECC
:100FBA00050E196E49EF08F0060E4A184B10D8A410
:100FCA00E9EF07F0EBEF07F0FBEF07F06CC033F047
:100FDA006DC034F06EC035F06FC036F045EC04F0E9
:100FEA00000E1A6E060E196E49EF08F0070E4A181F
:100FFA004B10D8A403EF08F005EF08F015EF08F03E
:10100A0068C033F069C034F06AC035F06BC036F09E
:10101A0045EC04F0000E1A6E070E196E49EF08F03F
:10102A00080E4A184B10D8A41DEF08F01FEF08F05D
:10103A002FEF08F064C033F065C034F066C035F0B5
:10104A0067C036F045EC04F0000E1A6E080E196EF1
:10105A0049EF08F0090E4A184B10D8A437EF08F0E8
:10106A0039EF08F049EF08F060C033F061C034F09E
:10107A0062C035F063C036F045EC04F0000E1A6E1B
:10108A00090E196E49EF08F009C033F00AC034F0AE
:10109A00CE0E0124356EFF0E0220366E45EC04F0AA
:1010AA0046EC11F009C033F00AC034F0320E0124C4
:1010BA00356E000E0220366E45EC04F013EC11F08A
:1010CA00040E346E4C0E336E070E366ED00E356E2D
:1010DA0045EC04F0040E346E4C0E336E090E366E77
:1010EA00380E356E45EC04F0000E4B6E000E4A6E5B
:1010FA00B5EF08F0450E90EC12F0520E90EC12F09B
:10110A00520E90EC12F04F0E90EC12F0520E90EC40
:10111A0012F0200E90EC12F0470E90EC12F0550EE1
:10112A0090EC12F0410E90EC12F0520E90EC12F08C
:10113A00440E90EC12F0450E90EC12F0200E90EC5A
:10114A0012F0410E90EC12F04E0E90EC12F0540E8A
:10115A0090EC12F0450E90EC12F0530E90EC12F057
:10116A00000E146E010E136E12000600D9CF2DF078
:10117A00DACF2EF0F6CF2FF0F7CF30F0F8CF31F0EC
:10118A00F5CF32F09EAACCEF08F0CEEF08F098EF38
:10119A0009F0AECF1DF0000E166E000E156E130488
:1011AA001410D8A4DBEF08F0DDEF08F097EF09F090
:1011BA001D50B1EC12F0310E1D18D8A4E7EF08F05B
:1011CA00E9EF08F0EDEF08F0000E186E010E176E49
:1011DA00320E1D18D8A4F4EF08F0F6EF08F0FAEF73
:1011EA0008F0000E186E020E176E330E1D18D8A4E2
:1011FA0001EF09F003EF09F007EF09F0000E186E8E
:10120A00030E176E340E1D18D8A40EEF09F010EF56
:10121A0009F014EF09F0000E186E040E176E350E61
:10122A001D18D8A41BEF09F01DEF09F021EF09F0F2
:10123A00000E186E050E176E360E1D18D8A428EF6C
:10124A0009F02AEF09F02EEF09F0000E186E060ECB
:10125A00176E370E1D18D8A435EF09F037EF09F0CD
:10126A003BEF09F0000E186E070E176E380E1D18A8
:10127A00D8A442EF09F044EF09F048EF09F0000E54
:10128A00186E080E176E390E1D18D8A44FEF09F004
:10129A0051EF09F055EF09F0000E186E090E176E9E
:1012AA00470E1D18D8B45CEF09F05EEF09F067EF3E
:1012BA0009F0670E1D18D8A465EF09F067EF09F069
:1012CA006BEF09F0000E146E030E136E530E1D1809
:1012DA00D8B472EF09F074EF09F07DEF09F0730EDC
:1012EA001D18D8A47BEF09F07DEF09F081EF09F012
:1012FA00000E146E040E136E480E1D18D8B488EF33
:10130A0009F08AEF09F093EF09F0680E1D18D8A4C6
:10131A0091EF09F093EF09F097EF09F0000E146EC0
:10132A00000E136E9E9AF2A49DEF09F09FEF09F04A
:10133A0004EF0AF0F29413041410D8A4A7EF09F0EA
:10134A00A9EF09F0ABEF09F0154A162A16BEB7EF56
:10135A0009F0165009E1510E155CD8A0B7EF09F053
:10136A00B9EF09F0DBEF09F019501A10D8A4C0EF51
:10137A0009F0C2EF09F0DBEF09F0E6EC12F03C0EDF
:10138A00276E080E286E5BEC12F0C00EC7EC12F046
:10139A005F0E276E080E286E5BEC12F0000E166EBA
:1013AA00000E156E8EEC0EF000EF0AF016BEE7EF97
:1013BA0009F0165009E1650E155CD8A0E7EF09F0AF
:1013CA00E9EF09F000EF0AF0E6EC12F0210E276EC1
:1013DA00080E286E5BEC12F0C00EC7EC12F0300E4D
:1013EA00276E080E286E5BEC12F0000E166E3C0E8D
:1013FA00156E3AEC0BF00B0ED76EDC0ED66E32C0C1
:10140A00F5FF31C0F8FF30C0F7FF2FC0F6FF2EC03E
:10141A00DAFF2DC0D9FF4D92110019501A10D8B415
:10142A0019EF0AF01BEF0AF002EF0BF009C033F0D4
:10143A000AC034F09C0E0124356EFF0E0220366E6F
:10144A0045EC04F019041A10D8A42EEF0AF030EF74
:10145A000AF03CEF0AF046C033F047C034F048C007
:10146A0035F049C036F045EC04F0ECEF0AF0020E14
:10147A0019181A10D8A444EF0AF046EF0AF052EFEE
:10148A000AF042C033F043C034F044C035F045C0DE
:10149A0036F045EC04F0ECEF0AF0030E19181A10B6
:1014AA00D8A45AEF0AF05CEF0AF068EF0AF03EC0DF
:1014BA0033F03FC034F040C035F041C036F045EC5F
:1014CA0004F0ECEF0AF0040E19181A10D8A470EF01
:1014DA000AF072EF0AF07EEF0AF03AC033F03BC02E
:1014EA0034F03CC035F03DC036F045EC04F0ECEF8A
:1014FA000AF0050E19181A10D8A486EF0AF088EF18
:10150A000AF094EF0AF070C033F071C034F072C080
:10151A0035F073C036F045EC04F0ECEF0AF0060E35
:10152A0019181A10D8A49CEF0AF09EEF0AF0AAEF35
:10153A000AF06CC033F06DC034F06EC035F06FC085
:10154A0036F045EC04F0ECEF0AF0070E19181A1001
:10155A00D8A4B2EF0AF0B4EF0AF0C0EF0AF068C0FC
:10156A0033F069C034F06AC035F06BC036F045EC30
:10157A0004F0ECEF0AF0080E19181A10D8A4C8EFF4
:10158A000AF0CAEF0AF0D6EF0AF064C033F065C079
:10159A0034F066C035F067C036F045EC04F0ECEF85
:1015AA000AF0090E19181A10D8A4DEEF0AF0E0EFB3
:1015BA000AF0ECEF0AF060C033F061C034F062C0A8
:1015CA0035F063C036F045EC04F0ECEF0AF046EC77
:1015DA0011F009C033F00AC034F0CE0E0124356E82
:1015EA00FF0E0220366E45EC04F013EC11F0000EEB
:1015FA001A6E000E196E35EF0BF0450E90EC12F0D4
:10160A00520E90EC12F0520E90EC12F04F0E90EC3B
:10161A0012F0520E90EC12F0200E90EC12F0530ED3
:10162A0090EC12F0410E90EC12F0510E90EC12F088
:10163A00550E90EC12F0450E90EC12F0200E90EC44
:10164A0012F0410E90EC12F04E0E90EC12F0540E85
:10165A0090EC12F0450E90EC12F0530E90EC12F052
:10166A00000E146E010E136E120019501A10D8B41F
:10167A0041EF0BF043EF0BF02AEF0CF009C021F019
:10168A000AC022F09C0E0124236EFF0E0220246E53
:10169A00CEEC05F019041A10D8A456EF0BF058EF47
:1016AA000BF064EF0BF046C021F047C022F048C0AF
:1016BA0023F049C024F0CEEC05F014EF0CF0020E32
:1016CA0019181A10D8A46CEF0BF06EEF0BF07AEF22
:1016DA000BF042C021F043C022F044C023F045C0C1
:1016EA0024F0CEEC05F014EF0CF0030E19181A10C2
:1016FA00D8A482EF0BF084EF0BF090EF0BF03EC012
:10170A0021F03FC022F040C023F041C024F0CEECCB
:10171A0005F014EF0CF0040E19181A10D8A498EF5B
:10172A000BF09AEF0BF0A6EF0BF03AC021F03BC09A
:10173A0022F03CC023F03DC024F0CEEC05F014EFBB
:10174A000CF0050E19181A10D8A4AEEF0BF0B0EF72
:10175A000BF0BCEF0BF070C021F071C022F072C028
:10176A0023F073C024F0CEEC05F014EF0CF0060E53
:10177A0019181A10D8A4C4EF0BF0C6EF0BF0D2EF69
:10178A000BF06CC021F06DC022F06EC023F06FC068
:10179A0024F0CEEC05F014EF0CF0070E19181A100D
:1017AA00D8A4DAEF0BF0DCEF0BF0E8EF0BF068C02F
:1017BA0021F069C022F06AC023F06BC024F0CEEC9D
:1017CA0005F014EF0CF0080E19181A10D8A4F0EF4F
:1017DA000BF0F2EF0BF0FEEF0BF064C021F065C0E6
:1017EA0022F066C023F067C024F0CEEC05F014EFB7
:1017FA000CF0090E19181A10D8A406EF0CF008EF0D
:10180A000CF014EF0CF060C021F061C022F062C04D
:10181A0023F063C024F0CEEC05F014EF0CF0ACEC2E
:10182A0011F009C021F00AC022F0CE0E0124236E65
:10183A00FF0E0220246ECEEC05F079EC11F0000EBA
:10184A001A6E000E196E5DEF0CF0450EB1EC12F037
:10185A00520EB1EC12F0520EB1EC12F04F0EB1EC86
:10186A0012F0520EB1EC12F0200EB1EC12F0530E3F
:10187A00B1EC12F0410EB1EC12F0510EB1EC12F0D3
:10188A00550EB1EC12F0450EB1EC12F0200EB1EC8F
:10189A0012F0410EB1EC12F04E0EB1EC12F0540EF1
:1018AA00B1EC12F0450EB1EC12F0530EB1EC12F09D
:1018BA00000E146E010E136E12000F0EC16E000E92
:1018CA008D6E000E966E000E8A6E070E936E700E67
:1018DA00D36EF19E000E956E000E8C6E0B0E0001FB
:1018EA00936F260E926F5D0EE82EFED7922FFCD7CD
:1018FA00932FFAD700D0040E7AEC12F02DEC0FF0E9
:10190A00480E0001846F080E856F3BEC12F0900EB2
:10191A00AB6E200EAC6E000EB86E0C0EAF6E840E5F
:10192A00D56E0B0ED76EDC0ED66EF294F28A9F8AB3
:10193A009E9A9D8AF28EEFEC0DF0330E0001936FA2
:10194A00BB0E926FDF0EE82EFED7922FFCD7932F95
:10195A00FAD700D0DCEC12F0820E0001846F080E78
:10196A00856F3BEC12F013501410D8A4BFEF0CF0A3
:10197A00C1EF0CF0CCEF0CF0540E0001846F080E8E
:10198A00856F3BEC12F0EFEC0DF0B8EF0CF0030EA4
:10199A0013181410D8A4D4EF0CF0D6EF0CF0F2EF11
:1019AA000CF0DCEC12F0690E0001846F080E856FF2
:1019BA003BEC12F0C00EA6EC12F07B0E0001846F15
:1019CA00080E856F3BEC12F0010E396E195032EC9D
:1019DA000DF012EC0AF0B8EF0CF0040E1318141004
:1019EA00D8A4FAEF0CF0FCEF0CF018EF0DF0DCECD9
:1019FA0012F0730E0001846F080E856F3BEC12F033
:101A0A00C00EA6EC12F07B0E0001846F080E856FE3
:101A1A003BEC12F0010E396E175032EC0DF051EC1E
:101A2A0007F0B8EF0CF0DCEC12F0110E0001846F35
:101A3A00080E856F3BEC12F00B0E0001936F260E19
:101A4A00926F5D0EE82EFED7922FFCD7932FFAD70E
:101A5A0000D0B8EF0CF007EF00F00001916F8C8214
:101A6A00D4EF0DF091C033F0346A000E366E0A0ED0
:101A7A00356EF8EC0FF033500001906F9051300F33
:101A8A00DFEC11F0FAEC12F0040E50EC10F0EEEF6D
:101A9A000DF0000E366E640E356E91C033F0346A66
:101AAA00F8EC0FF033C084F034C085F0000E00016A
:101ABA00876F0A0E866F95EC0FF0000184518F6FC5
:101ACA0091C033F0346A000E366E0A0E356EF8ECA9
:101ADA000FF033500001906F8F51300FDFEC11F08F
:101AEA00FAEC12F0040E50EC10F000019051300F95
:101AFA00DFEC11F0FAEC12F0040E50EC10F0EEEFFD
:101B0A000DF091C084F0856B000E876F640E866FAE
:101B1A0095EC0FF0000184518E6F000E366E640E44
:101B2A00356E91C033F0346AF8EC0FF033C084F0AC
:101B3A0034C085F0000E0001876F0A0E866F95EC9F
:101B4A000FF0000184518F6F91C033F0346A000E98
:101B5A00366E0A0E356EF8EC0FF033500001906FB6
:101B6A008E51300FDFEC11F0FAEC12F0040E50EC4B
:101B7A0010F000018F51300FDFEC11F0FAEC12F087
:101B8A00040E50EC10F000019051300FDFEC11F010
:101B9A00FAEC12F0040E50EC10F0EEEF0DF03950A2
:101BAA0000018C6F8D6B8D51000AD8B4DFEF0DF0F8
:101BBA00EEEF0DF08C51010AD8B437EF0DF0030A9D
:101BCA00D8B44EEF0DF0010AD8B486EF0DF0EEEF5F
:101BDA000DF012008D808D828D940BEF0EF081A492
:101BEA00F9EF0DF0FBEF0DF0FCEF0DF08A8A030E12
:101BFA00336E980EE82EFED7332EFCD78A9A030E40
:101C0A00336E980EE82EFED7332EFCD781B410EF30
:101C1A000EF012EF0EF0F4EF0DF034EF0EF081A09B
:101C2A0019EF0EF01BEF0EF01CEF0EF08A8681A260
:101C3A0021EF0EF023EF0EF024EF0EF08A88030E48
:101C4A00336E980EE82EFED7332EFCD78A968A98E2
:101C5A00030E336E980EE82EFED7332EFCD781B0D2
:101C6A0039EF0EF03BEF0EF014EF0EF081B240EFB9
:101C7A000EF042EF0EF014EF0EF081B047EF0EF0C7
:101C8A0049EF0EF04FEF0EF020EE09F0070EDE6A74
:101C9A00E806FDE281B254EF0EF056EF0EF05CEF6B
:101CAA000EF020EE01F0070EDE6AE806FDE28D84F2
:101CBA00000E356E000E346E8A8A030E336E980E4D
:101CCA00E82EFED7332EFCD78A9A030E336E980E6F
:101CDA00E82EFED7332EFCD7344A352A35BE7FEF9D
:101CEA000EF0200E345C030E3558D8A07FEF0EF0AC
:101CFA0081EF0EF061EF0EF0000E126E000E116E03
:101D0A00000E146E010E136E000E1A6E000E196E7E
:101D1A0012008D808D828D94AAEF0EF081A498EF27
:101D2A000EF09AEF0EF09BEF0EF08A8A030E216EE8
:101D3A00980EE82EFED7212EFCD78A9A030E216E22
:101D4A00980EE82EFED7212EFCD781B4AFEF0EF005
:101D5A00B1EF0EF093EF0EF0D3EF0EF081A0B8EFD3
:101D6A000EF0BAEF0EF0BBEF0EF08A8681A2C0EF3A
:101D7A000EF0C2EF0EF0C3EF0EF08A88030E216E4A
:101D8A00980EE82EFED7212EFCD78A968A98030E43
:101D9A00216E980EE82EFED7212EFCD781B0D8EFFF
:101DAA000EF0DAEF0EF0B3EF0EF081B2DFEF0EF0C5
:101DBA00E1EF0EF0B3EF0EF081B0E6EF0EF0E8EFD0
:101DCA000EF0EEEF0EF020EE09F0070EDE6AE806DE
:101DDA00FDE281B2F3EF0EF0F5EF0EF0FBEF0EF03D
:101DEA0020EE01F0070EDE6AE806FDE28D84000EA1
:101DFA00236E000E226E8A8A030E216E980EE82E3A
:101E0A00FED7212EFCD78A9A030E216E980EE82E51
:101E1A00FED7212EFCD7224A232A23BE1EEF0FF01B
:101E2A00200E225C030E2358D8A01EEF0FF020EFDD
:101E3A000FF000EF0FF0000E126E000E116E000E82
:101E4A00146E010E136E000E1A6E000E196E120039
:101E5A008C92040E4C18D8A435EF0FF037EF0FF020
:101E6A003DEF0FF08C500F0B30098C6E3FEF0FF0E7
:101E7A003F0E8C6EFAEC12F0010E50EC10F0040ECC
:101E8A004C18D8A44BEF0FF04DEF0FF053EF0FF0B3
:101E9A008C500F0B30098C6E55EF0FF03F0E8C6E85
:101EAA00FAEC12F0030E50EC10F0040E4C18D8A401
:101EBA0061EF0FF063EF0FF069EF0FF08C500F0B2B
:101ECA0030098C6E6BEF0FF03F0E8C6EFAEC12F04D
:101EDA00040E50EC10F0040E4C18D8A477EF0FF053
:101EEA0079EF0FF08AEF0FF08C500F0B20098C6EF0
:101EFA00FAEC12F0040E50EC10F02F0EDFEC11F099
:101F0A00FAEC12F0040E50EC10F0DCEC12F00F0EAA
:101F1A00DFEC11F0FAEC12F0040E50EC10F01200A3
:101F2A00000E0001896F87BF9FEF0FF09DEF0FF042
:101F3A00A5EF0FF0866D871FD8B0872B010E896F2A
:101F4A0085BFACEF0FF0AAEF0FF0B2EF0FF0846D80
:101F5A00851FD8B0852B010E891B000E8B6F000ED2
:101F6A008A6F86518711D8B4BDEF0FF0BFEF0FF01B
:101F7A00E7EF0FF0010E886FC7EF0FF0D8908637A2
:101F8A008737882B87AFCCEF0FF0CEEF0FF0C3EF78
:101F9A000FF0D8908A378B378651845D87518559DF
:101FAA00D8A0DAEF0FF0DCEF0FF0E1EF0FF0865177
:101FBA00845F8751855B8A81D89087338633882FDF
:101FCA00CEEF0FF08951D8B4EDEF0FF0EFEF0FF02D
:101FDA00F3EF0FF08A6D8B1FD8B08B2B8AC084F079
:101FEA008BC085F01200000E386E34BE01EF10F07F
:101FFA00FFEF0FF007EF10F0336C341ED8B0342A1D
:10200A00010E386E36BE0EEF10F00CEF10F012EF24
:10201A0010F0356C361ED8B0362A35503610D8B482
:10202A0019EF10F01BEF10F03FEF10F0010E376EB2
:10203A0023EF10F0D89035363636372A36AE28EFE9
:10204A0010F02AEF10F01FEF10F03550335C3650C5
:10205A003458D8A033EF10F035EF10F039EF10F004
:10206A003550335E3650345AD89036323532372EA0
:10207A002AEF10F03850D8B445EF10F047EF10F0BF
:10208A004BEF10F0336C341ED8B0342A33C033F01F
:10209A0034C034F01200356E7AEF10F0270E336E2A
:1020AA00F50EE82EFED7332EFCD700F097EF10F08E
:1020BA00030E336E980EE82EFED7332EFCD7B60EDB
:1020CA0000D000D0E82EFCD700D000D000D097EF87
:1020DA0010F0420EE82EFED700D097EF10F01A0E3D
:1020EA00E82EFED700D097EF10F03550336E346AE1
:1020FA003450000AD8B484EF10F097EF10F0335040
:10210A00010AD8B453EF10F0030AD8B45DEF10F007
:10211A00010AD8B46EEF10F0070AD8B474EF10F0C1
:10212A0097EF10F01200236EC2EF10F0270E216E07
:10213A00F50EE82EFED7212EFCD700F0DFEF10F0C7
:10214A00030E216E980EE82EFED7212EFCD7B60E6E
:10215A0000D000D0E82EFCD700D000D000D0DFEFAE
:10216A0010F0420EE82EFED700D0DFEF10F01A0E64
:10217A00E82EFED700D0DFEF10F02350216E226A3E
:10218A002250000AD8B4CCEF10F0DFEF10F0215043
:10219A00010AD8B49BEF10F0030AD8B4A5EF10F0E7
:1021AA00010AD8B4B6EF10F0070AD8B4BCEF10F0A1
:1021BA00DFEF10F01200A40EF66E250EF76E000E79
:1021CA00F86E00EE60F010EE14F00900F5CFEEFFA5
:1021DA00E550E150FAE1E00EF66E250EF76E000EBC
:1021EA00F86E00EE3AF010EE13F00900F5CFEEFFAC
:1021FA00E550E150FAE100EE74F0100EEE6AE806DE
:10220A00FDE100EE01F0200EEE6AE806FDE14D90D8
:10221A004D92000EF86E000162EF0CF08D941104DD
:10222A001210D8A41BEF11F01DEF11F041EF11F0BD
:10223A00000E356E000E346E8A8A030E336E980EC7
:10224A00E82EFED7332EFCD78A9A030E336E980EE9
:10225A00E82EFED7332EFCD7344A352A35BE3FEF57
:10226A0011F0DC0E345C050E3558D8A03FEF11F0A2
:10227A0041EF11F021EF11F0000E126E000E116EF7
:10228A0012008D8411501210D8A44EEF11F050EFA5
:10229A0011F078EF11F0000E356E000E346E8A8A56
:1022AA00030E336E980EE82EFED7332EFCD78A9A89
:1022BA00030E336E980EE82EFED7332EFCD7344A1F
:1022CA00352A35BE72EF11F0DC0E345C050E355836
:1022DA00D8A072EF11F074EF11F054EF11F0000E64
:1022EA00126E010E116E12008D9411041210D8A4F0
:1022FA0081EF11F083EF11F0A7EF11F0000E236EBA
:10230A00000E226E8A8A030E216E980EE82EFED7E0
:10231A00212EFCD78A9A030E216E980EE82EFED73C
:10232A00212EFCD7224A232A23BEA5EF11F0DC0E68
:10233A00225C050E2358D8A0A5EF11F0A7EF11F0E3
:10234A0087EF11F0000E126E000E116E12008D84CE
:10235A0011501210D8A4B4EF11F0B6EF11F0DEEF5D
:10236A0011F0000E236E000E226E8A8A030E216E71
:10237A00980EE82EFED7212EFCD78A9A030E216EDC
:10238A00980EE82EFED7212EFCD7224A232A23BEF6
:10239A00D8EF11F0DC0E225C050E2358D8A0D8EF36
:1023AA0011F0DAEF11F0BAEF11F0000E126E010E11
:1023BA00116E1200376E040E4C18D8A4E7EF11F014
:1023CA00E9EF11F001EF12F037C036F0F00E3616D1
:1023DA008C500F0B36108C6EFAEC12F0010E50EC8A
:1023EA0010F037C036F0363AF00E36168C500F0B16
:1023FA0036108C6E0CEF12F0080E4C18D8A408EFA9
:10240A0012F00AEF12F00CEF12F037C08CFF120034
:10241A00256E040E4C18D8A415EF12F017EF12F01F
:10242A002FEF12F025C024F0F00E24168C500F0B5B
:10243A0024108C6E01EC13F0010E98EC10F025C0FC
:10244A0024F0243AF00E24168C500F0B24108C6EB4
:10245A003AEF12F0080E4C18D8A436EF12F038EF03
:10246A0012F03AEF12F025C08CFF120084C086F0F9
:10247A0085C087F04CEF12F086C0F6FF87C0F7FFE1
:10248A000800F5509BEC12F00001864B872B86C0A2
:10249A00F6FF87C0F7FF0800F5500009D8A458EFE7
:1024AA0012F05AEF12F041EF12F0120027C029F091
:1024BA0028C02AF06BEF12F029C0F6FF2AC0F7FFF6
:1024CA000800F550BCEC12F0294A2A2A29C0F6FF66
:1024DA002AC0F7FF0800F5500009D8A477EF12F0D8
:1024EA0079EF12F061EF12F01200336E040E331816
:1024FA00D8B482EF12F084EF12F08DEF12F0080ECA
:10250A003318D8A48BEF12F08DEF12F08FEF12F080
:10251A0033C04CF01200336EACA296EF12F098EF73
:10252A0012F091EF12F033C0ADFF1200386E8C82B8
:10253A003850DFEC11F0FAEC12F0040E50EC10F007
:10254A001200386E8C923850DFEC11F0FAEC12F06F
:10255A00040E50EC10F01200216EACA2B7EF12F08C
:10256A00B9EF12F0B2EF12F021C0ADFF1200266EE1
:10257A008C8226500DEC12F001EC13F0040E98EC4C
:10258A0010F01200266E8C9226500DEC12F001EC1F
:10259A0013F0040E98EC10F012009808E8034C04AB
:1025AA00E8030000E8039808DC054C04DC058C927B
:1025BA00010EDFEC11F0FAEC12F0020E50EC10F002
:1025CA0012008C92010E0DEC12F001EC13F0020EC7
:1025DA0098EC10F012000000DC059808D0074C04B3
:0925EA00D0070000D0070500082D
:1025F4008C801A0EE82EFED700D08C9012008C80AE
:0C2604001A0EE82EFED700D08C901200B9
:020000040020DA
:08000000FFFFFFFFFFFFFFFF00
:020000040030CA
:0E00000000091F1EFF8181FF0FC00FE00F409F
:00000001FF
